{"contracts/libraries/bitsaveHelperLib.sol":{"BitsaveHelperLib":{"abi":[{"inputs":[],"name":"AmountNotEnough","type":"error"},{"inputs":[],"name":"CallNotFromBitsave","type":"error"},{"inputs":[{"internalType":"string","name":"","type":"string"}],"name":"CanNotWithdrawToken","type":"error"},{"inputs":[],"name":"InvalidSaving","type":"error"},{"inputs":[],"name":"InvalidTime","type":"error"},{"inputs":[],"name":"MasterCallRequired","type":"error"},{"inputs":[],"name":"NotEnoughToPayGasFee","type":"error"},{"inputs":[{"internalType":"string","name":"","type":"string"}],"name":"NotSupported","type":"error"},{"inputs":[],"name":"UserNotRegistered","type":"error"},{"inputs":[],"name":"WrongGasContract","type":"error"},{"anonymous":false,"inputs":[{"indexed":true,"internalType":"address","name":"userAddress","type":"address"}],"name":"JoinedBitsave","type":"event"},{"anonymous":false,"inputs":[{"indexed":true,"internalType":"address","name":"","type":"address"},{"indexed":false,"internalType":"uint256","name":"","type":"uint256"}],"name":"Received","type":"event"},{"anonymous":false,"inputs":[{"indexed":true,"internalType":"string","name":"nameOfSaving","type":"string"},{"indexed":false,"internalType":"uint256","name":"amount","type":"uint256"},{"indexed":false,"internalType":"address","name":"token","type":"address"}],"name":"SavingCreated","type":"event"},{"anonymous":false,"inputs":[{"indexed":true,"internalType":"string","name":"nameOfSaving","type":"string"},{"indexed":false,"internalType":"uint256","name":"amountAdded","type":"uint256"},{"indexed":false,"internalType":"uint256","name":"totalAmountNow","type":"uint256"},{"indexed":false,"internalType":"address","name":"token","type":"address"}],"name":"SavingIncremented","type":"event"},{"anonymous":false,"inputs":[{"indexed":true,"internalType":"string","name":"nameOfSaving","type":"string"}],"name":"SavingWithdrawn","type":"event"},{"anonymous":false,"inputs":[{"indexed":true,"internalType":"address","name":"from","type":"address"},{"indexed":true,"internalType":"address","name":"to","type":"address"},{"indexed":false,"internalType":"uint256","name":"amount","type":"uint256"}],"name":"TokenWithdrawal","type":"event"},{"inputs":[],"name":"divisor","outputs":[{"internalType":"uint256","name":"","type":"uint256"}],"stateMutability":"view","type":"function"},{"inputs":[],"name":"maxSupply","outputs":[{"internalType":"uint256","name":"","type":"uint256"}],"stateMutability":"view","type":"function"},{"inputs":[],"name":"totalSupply","outputs":[{"internalType":"uint256","name":"","type":"uint256"}],"stateMutability":"view","type":"function"},{"inputs":[],"name":"txnCharge","outputs":[{"internalType":"uint256","name":"","type":"uint256"}],"stateMutability":"view","type":"function"},{"inputs":[],"name":"yearInSeconds","outputs":[{"internalType":"uint256","name":"","type":"uint256"}],"stateMutability":"view","type":"function"}],"evm":{"bytecode":{"linkReferences":{},"object":"610195610053600b82828239805160001a607314610046577f4e487b7100000000000000000000000000000000000000000000000000000000600052600060045260246000fd5b30600052607381538281f3fe73000000000000000000000000000000000000000030146080604052600436106100615760003560e01c806318160ddd146100665780631f2dc5ef1461008457806335747b0d146100a25780634059d596146100c0578063d5abeb01146100de575b600080fd5b61006e6100fc565b60405161007b9190610144565b60405180910390f35b61008c610103565b6040516100999190610144565b60405180910390f35b6100aa610110565b6040516100b79190610144565b60405180910390f35b6100c861011b565b6040516100d59190610144565b60405180910390f35b6100e6610123565b6040516100f39190610144565b60405180910390f35b62e4e1c081565b683635c9adc5dea0000081565b66470de4df82000081565b6301e1338081565b6305f5e10081565b6000819050919050565b61013e8161012b565b82525050565b60006020820190506101596000830184610135565b9291505056fea2646970667358221220d1afa616b31f60cf9fb816a0c12e6a1c89355c5733bde8c9e6c166fb630bb25b64736f6c63430008170033","opcodes":"PUSH2 0x195 PUSH2 0x53 PUSH1 0xB DUP3 DUP3 DUP3 CODECOPY DUP1 MLOAD PUSH1 0x0 BYTE PUSH1 0x73 EQ PUSH2 0x46 JUMPI PUSH32 0x4E487B7100000000000000000000000000000000000000000000000000000000 PUSH1 0x0 MSTORE PUSH1 0x0 PUSH1 0x4 MSTORE PUSH1 0x24 PUSH1 0x0 REVERT JUMPDEST ADDRESS PUSH1 0x0 MSTORE PUSH1 0x73 DUP2 MSTORE8 DUP3 DUP2 RETURN INVALID PUSH20 0x0 ADDRESS EQ PUSH1 0x80 PUSH1 0x40 MSTORE PUSH1 0x4 CALLDATASIZE LT PUSH2 0x61 JUMPI PUSH1 0x0 CALLDATALOAD PUSH1 0xE0 SHR DUP1 PUSH4 0x18160DDD EQ PUSH2 0x66 JUMPI DUP1 PUSH4 0x1F2DC5EF EQ PUSH2 0x84 JUMPI DUP1 PUSH4 0x35747B0D EQ PUSH2 0xA2 JUMPI DUP1 PUSH4 0x4059D596 EQ PUSH2 0xC0 JUMPI DUP1 PUSH4 0xD5ABEB01 EQ PUSH2 0xDE JUMPI JUMPDEST PUSH1 0x0 DUP1 REVERT JUMPDEST PUSH2 0x6E PUSH2 0xFC JUMP JUMPDEST PUSH1 0x40 MLOAD PUSH2 0x7B SWAP2 SWAP1 PUSH2 0x144 JUMP JUMPDEST PUSH1 0x40 MLOAD DUP1 SWAP2 SUB SWAP1 RETURN JUMPDEST PUSH2 0x8C PUSH2 0x103 JUMP JUMPDEST PUSH1 0x40 MLOAD PUSH2 0x99 SWAP2 SWAP1 PUSH2 0x144 JUMP JUMPDEST PUSH1 0x40 MLOAD DUP1 SWAP2 SUB SWAP1 RETURN JUMPDEST PUSH2 0xAA PUSH2 0x110 JUMP JUMPDEST PUSH1 0x40 MLOAD PUSH2 0xB7 SWAP2 SWAP1 PUSH2 0x144 JUMP JUMPDEST PUSH1 0x40 MLOAD DUP1 SWAP2 SUB SWAP1 RETURN JUMPDEST PUSH2 0xC8 PUSH2 0x11B JUMP JUMPDEST PUSH1 0x40 MLOAD PUSH2 0xD5 SWAP2 SWAP1 PUSH2 0x144 JUMP JUMPDEST PUSH1 0x40 MLOAD DUP1 SWAP2 SUB SWAP1 RETURN JUMPDEST PUSH2 0xE6 PUSH2 0x123 JUMP JUMPDEST PUSH1 0x40 MLOAD PUSH2 0xF3 SWAP2 SWAP1 PUSH2 0x144 JUMP JUMPDEST PUSH1 0x40 MLOAD DUP1 SWAP2 SUB SWAP1 RETURN JUMPDEST PUSH3 0xE4E1C0 DUP2 JUMP JUMPDEST PUSH9 0x3635C9ADC5DEA00000 DUP2 JUMP JUMPDEST PUSH7 0x470DE4DF820000 DUP2 JUMP JUMPDEST PUSH4 0x1E13380 DUP2 JUMP JUMPDEST PUSH4 0x5F5E100 DUP2 JUMP JUMPDEST PUSH1 0x0 DUP2 SWAP1 POP SWAP2 SWAP1 POP JUMP JUMPDEST PUSH2 0x13E DUP2 PUSH2 0x12B JUMP JUMPDEST DUP3 MSTORE POP POP JUMP JUMPDEST PUSH1 0x0 PUSH1 0x20 DUP3 ADD SWAP1 POP PUSH2 0x159 PUSH1 0x0 DUP4 ADD DUP5 PUSH2 0x135 JUMP JUMPDEST SWAP3 SWAP2 POP POP JUMP INVALID LOG2 PUSH5 0x6970667358 0x22 SLT KECCAK256 0xD1 0xAF 0xA6 AND 0xB3 0x1F PUSH1 0xCF SWAP16 0xB8 AND LOG0 0xC1 0x2E PUSH11 0x1C89355C5733BDE8C9E6C1 PUSH7 0xFB630BB25B6473 PUSH16 0x6C634300081700330000000000000000 "},"methodIdentifiers":{"divisor()":"1f2dc5ef","maxSupply()":"d5abeb01","totalSupply()":"18160ddd","txnCharge()":"35747b0d","yearInSeconds()":"4059d596"}}}}}