{"contracts/Bitsave.sol":{"Bitsave":{"abi":[{"inputs":[{"internalType":"address","name":"_stableCoin","type":"address"},{"internalType":"address","name":"_csToken","type":"address"}],"stateMutability":"payable","type":"constructor"},{"inputs":[],"name":"AmountNotEnough","type":"error"},{"inputs":[],"name":"CallNotFromBitsave","type":"error"},{"inputs":[{"internalType":"string","name":"","type":"string"}],"name":"CanNotWithdrawToken","type":"error"},{"inputs":[],"name":"InvalidTime","type":"error"},{"inputs":[],"name":"MasterCallRequired","type":"error"},{"inputs":[],"name":"NotEnoughToPayGasFee","type":"error"},{"inputs":[{"internalType":"string","name":"","type":"string"}],"name":"NotSupported","type":"error"},{"inputs":[],"name":"UserNotRegistered","type":"error"},{"anonymous":false,"inputs":[{"indexed":true,"internalType":"address","name":"userAddress","type":"address"}],"name":"JoinedBitsave","type":"event"},{"anonymous":false,"inputs":[{"indexed":true,"internalType":"string","name":"nameOfSaving","type":"string"},{"indexed":false,"internalType":"uint256","name":"amount","type":"uint256"},{"indexed":false,"internalType":"address","name":"token","type":"address"}],"name":"SavingCreated","type":"event"},{"anonymous":false,"inputs":[{"indexed":true,"internalType":"address","name":"from","type":"address"},{"indexed":true,"internalType":"address","name":"to","type":"address"},{"indexed":false,"internalType":"uint256","name":"amount","type":"uint256"}],"name":"TokenWithdrawal","type":"event"},{"inputs":[],"name":"ChildContractGasFee","outputs":[{"internalType":"uint256","name":"","type":"uint256"}],"stateMutability":"view","type":"function"},{"inputs":[],"name":"JoinLimitFee","outputs":[{"internalType":"uint256","name":"","type":"uint256"}],"stateMutability":"view","type":"function"},{"inputs":[],"name":"SavingFee","outputs":[{"internalType":"uint256","name":"","type":"uint256"}],"stateMutability":"view","type":"function"},{"inputs":[{"internalType":"string","name":"nameOfSaving","type":"string"},{"internalType":"uint256","name":"maturityTime","type":"uint256"},{"internalType":"uint8","name":"penaltyPercentage","type":"uint8"},{"internalType":"bool","name":"safeMode","type":"bool"},{"internalType":"address","name":"tokenToSave","type":"address"},{"internalType":"uint256","name":"amount","type":"uint256"}],"name":"createSaving","outputs":[],"stateMutability":"payable","type":"function"},{"inputs":[],"name":"csToken","outputs":[{"internalType":"contract IERC20","name":"","type":"address"}],"stateMutability":"view","type":"function"},{"inputs":[],"name":"currentTotalValueLocked","outputs":[{"internalType":"uint256","name":"","type":"uint256"}],"stateMutability":"view","type":"function"},{"inputs":[],"name":"currentVaultState","outputs":[{"internalType":"uint256","name":"","type":"uint256"}],"stateMutability":"view","type":"function"},{"inputs":[],"name":"dripFountain","outputs":[],"stateMutability":"nonpayable","type":"function"},{"inputs":[{"internalType":"uint256","name":"_joinFee","type":"uint256"},{"internalType":"uint256","name":"_savingFee","type":"uint256"}],"name":"editFees","outputs":[],"stateMutability":"nonpayable","type":"function"},{"inputs":[{"internalType":"uint256","name":"_newCurrentVaultState","type":"uint256"},{"internalType":"uint256","name":"_newTotalValueLocked","type":"uint256"},{"internalType":"address","name":"_newCsToken","type":"address"}],"name":"editInternalData","outputs":[],"stateMutability":"nonpayable","type":"function"},{"inputs":[{"internalType":"address","name":"_newStableCoin","type":"address"}],"name":"editStableCoin","outputs":[],"stateMutability":"nonpayable","type":"function"},{"inputs":[],"name":"fountain","outputs":[{"internalType":"uint256","name":"","type":"uint256"}],"stateMutability":"view","type":"function"},{"inputs":[],"name":"getUserChildContractAddress","outputs":[{"internalType":"address","name":"","type":"address"}],"stateMutability":"view","type":"function"},{"inputs":[{"internalType":"string","name":"nameOfSavings","type":"string"},{"internalType":"address","name":"tokenToRetrieve","type":"address"},{"internalType":"uint256","name":"amount","type":"uint256"}],"name":"incrementSaving","outputs":[],"stateMutability":"payable","type":"function"},{"inputs":[],"name":"joinBitsave","outputs":[{"internalType":"address","name":"","type":"address"}],"stateMutability":"payable","type":"function"},{"inputs":[],"name":"masterAddress","outputs":[{"internalType":"address","name":"","type":"address"}],"stateMutability":"view","type":"function"},{"inputs":[],"name":"rewardPool","outputs":[{"internalType":"uint256","name":"","type":"uint256"}],"stateMutability":"view","type":"function"},{"inputs":[{"internalType":"address","name":"originalToken","type":"address"},{"internalType":"uint256","name":"amount","type":"uint256"},{"internalType":"address","name":"ownerAddress","type":"address"}],"name":"sendAsOriginalToken","outputs":[{"internalType":"bool","name":"","type":"bool"}],"stateMutability":"payable","type":"function"},{"inputs":[],"name":"stableCoin","outputs":[{"internalType":"contract IERC20","name":"","type":"address"}],"stateMutability":"view","type":"function"},{"inputs":[],"name":"userCount","outputs":[{"internalType":"uint256","name":"","type":"uint256"}],"stateMutability":"view","type":"function"},{"inputs":[{"internalType":"string","name":"nameOfSavings","type":"string"}],"name":"withdrawSaving","outputs":[{"internalType":"bool","name":"","type":"bool"}],"stateMutability":"nonpayable","type":"function"},{"stateMutability":"payable","type":"receive"}],"evm":{"bytecode":{"linkReferences":{},"object":"6080604052655af3107a4000600955655af3107a4000600a556014600a546200002991906200017f565b600b556040516200571638038062005716833981810160405281019062000051919062000221565b816000806101000a81548173ffffffffffffffffffffffffffffffffffffffff021916908373ffffffffffffffffffffffffffffffffffffffff16021790555080600160006101000a81548173ffffffffffffffffffffffffffffffffffffffff021916908373ffffffffffffffffffffffffffffffffffffffff16021790555033600260006101000a81548173ffffffffffffffffffffffffffffffffffffffff021916908373ffffffffffffffffffffffffffffffffffffffff1602179055506000600381905550600060068190555062d59f80600781905550620186a060088190555034600481905550505062000268565b6000819050919050565b7f4e487b7100000000000000000000000000000000000000000000000000000000600052601260045260246000fd5b60006200018c8262000146565b9150620001998362000146565b925082620001ac57620001ab62000150565b5b828204905092915050565b600080fd5b600073ffffffffffffffffffffffffffffffffffffffff82169050919050565b6000620001e982620001bc565b9050919050565b620001fb81620001dc565b81146200020757600080fd5b50565b6000815190506200021b81620001f0565b92915050565b600080604083850312156200023b576200023a620001b7565b5b60006200024b858286016200020a565b92505060206200025e858286016200020a565b9150509250929050565b61549e80620002786000396000f3fe6080604052600436106200014b5760003560e01c806384762b0b11620000bb578063d5633e961162000079578063d5633e961462000408578063de35c3721462000422578063e04605fd1462000458578063ea4136721462000488578063f24053b314620004b8578063fed0b92514620004e85762000153565b806384762b0b146200031a578063992642e5146200034a5780639986e0e9146200037a578063bf66bfc714620003a8578063d365a08e14620003d85762000153565b8063372f91011162000109578063372f910114620002285780634c3fa304146200026c5780636405350a146200029c57806366666aa914620002bc5780637679489c14620002ec5762000153565b806302500739146200015857806307973ccf146200018857806316f94d5d14620001b8578063174fbaee14620001da5780631fdc181f14620002085762000153565b366200015357005b600080fd5b3480156200016557600080fd5b506200017062000518565b6040516200017f919062001963565b60405180910390f35b3480156200019557600080fd5b50620001a06200051e565b604051620001af919062001963565b60405180910390f35b620001c262000524565b604051620001d19190620019c5565b60405180910390f35b348015620001e757600080fd5b5062000206600480360381019062000200919062001a27565b62000751565b005b62000226600480360381019062000220919062001c01565b62000814565b005b3480156200023557600080fd5b506200025460048036038101906200024e919062001c7c565b62000b77565b60405162000263919062001cea565b60405180910390f35b3480156200027957600080fd5b506200028462000d36565b60405162000293919062001963565b60405180910390f35b620002ba6004803603810190620002b4919062001d76565b62000d3c565b005b348015620002c957600080fd5b50620002d462001028565b604051620002e3919062001963565b60405180910390f35b348015620002f957600080fd5b5062000318600480360381019062000312919062001e31565b6200102e565b005b3480156200032757600080fd5b506200033262001140565b60405162000341919062001963565b60405180910390f35b3480156200035757600080fd5b506200036262001146565b60405162000371919062001ef8565b60405180910390f35b3480156200038757600080fd5b50620003a66004803603810190620003a0919062001f15565b6200116a565b005b348015620003b557600080fd5b50620003c06200126b565b604051620003cf919062001963565b60405180910390f35b348015620003e557600080fd5b50620003f062001271565b604051620003ff9190620019c5565b60405180910390f35b3480156200041557600080fd5b506200042062001297565b005b6200044060048036038101906200043a919062001f47565b620013ac565b6040516200044f919062001cea565b60405180910390f35b3480156200046557600080fd5b5062000470620014eb565b6040516200047f919062001ef8565b60405180910390f35b3480156200049557600080fd5b50620004a062001511565b604051620004af9190620019c5565b60405180910390f35b348015620004c557600080fd5b50620004d062001578565b604051620004df919062001963565b60405180910390f35b348015620004f557600080fd5b50620005006200157e565b6040516200050f919062001963565b60405180910390f35b60085481565b60065481565b6000803390506000600560008373ffffffffffffffffffffffffffffffffffffffff1673ffffffffffffffffffffffffffffffffffffffff16815260200190815260200160002060009054906101000a900473ffffffffffffffffffffffffffffffffffffffff169050600073ffffffffffffffffffffffffffffffffffffffff168173ffffffffffffffffffffffffffffffffffffffff1614620005ce5780925050506200074e565b6009543410156200060b576040517fcb6e851c00000000000000000000000000000000000000000000000000000000815260040160405180910390fd5b60003360008054906101000a900473ffffffffffffffffffffffffffffffffffffffff166040516200063d906200193a565b6200064a92919062001fa3565b604051809103906000f08015801562000667573d6000803e3d6000fd5b50905080600560008573ffffffffffffffffffffffffffffffffffffffff1673ffffffffffffffffffffffffffffffffffffffff16815260200190815260200160002060006101000a81548173ffffffffffffffffffffffffffffffffffffffff021916908373ffffffffffffffffffffffffffffffffffffffff160217905550600160066000828254620006fd919062001fff565b925050819055508273ffffffffffffffffffffffffffffffffffffffff167f0c5c0c4d53b63790e32770cf47fd115d706000fd7ab63fbdc8d176c5020d6b4660405160405180910390a28093505050505b90565b600260009054906101000a900473ffffffffffffffffffffffffffffffffffffffff1673ffffffffffffffffffffffffffffffffffffffff163373ffffffffffffffffffffffffffffffffffffffff1614620007d9576040517f33662b3400000000000000000000000000000000000000000000000000000000815260040160405180910390fd5b60008214620007ea57816009819055505b60008114620008105780600a8190555060148162000809919062002069565b600b819055505b5050565b33600073ffffffffffffffffffffffffffffffffffffffff16600560008373ffffffffffffffffffffffffffffffffffffffff1673ffffffffffffffffffffffffffffffffffffffff16815260200190815260200160002060009054906101000a900473ffffffffffffffffffffffffffffffffffffffff1673ffffffffffffffffffffffffffffffffffffffff1603620008db576040517f2163950f00000000000000000000000000000000000000000000000000000000815260040160405180910390fd5b6000600560003373ffffffffffffffffffffffffffffffffffffffff1673ffffffffffffffffffffffffffffffffffffffff16815260200190815260200160002060009054906101000a900473ffffffffffffffffffffffffffffffffffffffff169050600081905060008173ffffffffffffffffffffffffffffffffffffffff1663e18f5f65886040518263ffffffff1660e01b81526004016200098191906200212a565b602060405180830381865afa1580156200099f573d6000803e3d6000fd5b505050506040513d601f19601f82011682018060405250810190620009c5919062002165565b905060008073ffffffffffffffffffffffffffffffffffffffff168273ffffffffffffffffffffffffffffffffffffffff16149050600086905060008473ffffffffffffffffffffffffffffffffffffffff16631bb862a58b6040518263ffffffff1660e01b815260040162000a3c91906200212a565b602060405180830381865afa15801562000a5a573d6000803e3d6000fd5b505050506040513d601f19601f8201168201806040525081019062000a809190620021ae565b9050801562000aad5760008054906101000a900473ffffffffffffffffffffffffffffffffffffffff1698505b600062000abc898b8962001584565b90508573ffffffffffffffffffffffffffffffffffffffff1663dc2379b98562000ae957600b5462000afa565b84600b5462000af9919062001fff565b5b8d846007546008546040518663ffffffff1660e01b815260040162000b239493929190620021e0565b60206040518083038185885af115801562000b42573d6000803e3d6000fd5b50505050506040513d601f19601f8201168201806040525081019062000b6991906200224b565b505050505050505050505050565b600033600073ffffffffffffffffffffffffffffffffffffffff16600560008373ffffffffffffffffffffffffffffffffffffffff1673ffffffffffffffffffffffffffffffffffffffff16815260200190815260200160002060009054906101000a900473ffffffffffffffffffffffffffffffffffffffff1673ffffffffffffffffffffffffffffffffffffffff160362000c40576040517f2163950f00000000000000000000000000000000000000000000000000000000815260040160405180910390fd5b6000600560003373ffffffffffffffffffffffffffffffffffffffff1673ffffffffffffffffffffffffffffffffffffffff16815260200190815260200160002060009054906101000a900473ffffffffffffffffffffffffffffffffffffffff1690508073ffffffffffffffffffffffffffffffffffffffff1663372f9101856040518263ffffffff1660e01b815260040162000cdf91906200212a565b6000604051808303816000875af115801562000cff573d6000803e3d6000fd5b505050506040513d6000823e3d601f19601f8201168201806040525081019062000d2a9190620022fb565b50600192505050919050565b60075481565b33600073ffffffffffffffffffffffffffffffffffffffff16600560008373ffffffffffffffffffffffffffffffffffffffff1673ffffffffffffffffffffffffffffffffffffffff16815260200190815260200160002060009054906101000a900473ffffffffffffffffffffffffffffffffffffffff1673ffffffffffffffffffffffffffffffffffffffff160362000e03576040517f2163950f00000000000000000000000000000000000000000000000000000000815260040160405180910390fd5b600a5434101562000e40576040517fd0c279a200000000000000000000000000000000000000000000000000000000815260040160405180910390fd5b8542111562000e7b576040517f6f7eac2600000000000000000000000000000000000000000000000000000000815260040160405180910390fd5b831562000ebf576040517f329e2f1500000000000000000000000000000000000000000000000000000000815260040162000eb6906200239c565b60405180910390fd5b600062000ecc33620016e8565b9050600062000edd84868462001584565b905060008290508073ffffffffffffffffffffffffffffffffffffffff1663436d4a6d600073ffffffffffffffffffffffffffffffffffffffff168873ffffffffffffffffffffffffffffffffffffffff161462000f3e57600b5462000f4f565b83600b5462000f4e919062001fff565b5b8c8c428d8c898f6007546008546040518b63ffffffff1660e01b815260040162000f8299989796959493929190620023cf565b60206040518083038185885af115801562000fa1573d6000803e3d6000fd5b50505050506040513d601f19601f8201168201806040525081019062000fc891906200224b565b508960405162000fd99190620024b7565b60405180910390207f4ad85a69286191006ea05981ae1848070dbf232e5e00ffdda4b857c16097f0d7838860405162001014929190620024d0565b60405180910390a250505050505050505050565b60035481565b600260009054906101000a900473ffffffffffffffffffffffffffffffffffffffff1673ffffffffffffffffffffffffffffffffffffffff163373ffffffffffffffffffffffffffffffffffffffff1614620010b6576040517f33662b3400000000000000000000000000000000000000000000000000000000815260040160405180910390fd5b8260078190555081600881905550600073ffffffffffffffffffffffffffffffffffffffff168173ffffffffffffffffffffffffffffffffffffffff16146200113b5780600160006101000a81548173ffffffffffffffffffffffffffffffffffffffff021916908373ffffffffffffffffffffffffffffffffffffffff1602179055505b505050565b60095481565b60008054906101000a900473ffffffffffffffffffffffffffffffffffffffff1681565b600260009054906101000a900473ffffffffffffffffffffffffffffffffffffffff1673ffffffffffffffffffffffffffffffffffffffff163373ffffffffffffffffffffffffffffffffffffffff1614620011f2576040517f33662b3400000000000000000000000000000000000000000000000000000000815260040160405180910390fd5b600073ffffffffffffffffffffffffffffffffffffffff168173ffffffffffffffffffffffffffffffffffffffff16146200126857806000806101000a81548173ffffffffffffffffffffffffffffffffffffffff021916908373ffffffffffffffffffffffffffffffffffffffff1602179055505b50565b600b5481565b600260009054906101000a900473ffffffffffffffffffffffffffffffffffffffff1681565b600260009054906101000a900473ffffffffffffffffffffffffffffffffffffffff1673ffffffffffffffffffffffffffffffffffffffff163373ffffffffffffffffffffffffffffffffffffffff16146200131f576040517f33662b3400000000000000000000000000000000000000000000000000000000815260040160405180910390fd5b6000479050600454811115620013a957600260009054906101000a900473ffffffffffffffffffffffffffffffffffffffff1673ffffffffffffffffffffffffffffffffffffffff166108fc600454836200137b9190620024fd565b9081150290604051600060405180830381858888f19350505050158015620013a7573d6000803e3d6000fd5b505b50565b6000816000600560008373ffffffffffffffffffffffffffffffffffffffff1673ffffffffffffffffffffffffffffffffffffffff16815260200190815260200160002060009054906101000a900473ffffffffffffffffffffffffffffffffffffffff169050600073ffffffffffffffffffffffffffffffffffffffff168173ffffffffffffffffffffffffffffffffffffffff1614806200147b57503373ffffffffffffffffffffffffffffffffffffffff168173ffffffffffffffffffffffffffffffffffffffff1614155b15620014b3576040517f229e1dbd00000000000000000000000000000000000000000000000000000000815260040160405180910390fd5b620014e03360008054906101000a900473ffffffffffffffffffffffffffffffffffffffff168762001751565b925050509392505050565b600160009054906101000a900473ffffffffffffffffffffffffffffffffffffffff1681565b6000600560003373ffffffffffffffffffffffffffffffffffffffff1673ffffffffffffffffffffffffffffffffffffffff16815260200190815260200160002060009054906101000a900473ffffffffffffffffffffffffffffffffffffffff16905090565b60045481565b600a5481565b60008073ffffffffffffffffffffffffffffffffffffffff168373ffffffffffffffffffffffffffffffffffffffff1614620016cb576000620015c933858762001751565b9050806200160e576040517fec866729000000000000000000000000000000000000000000000000000000008152600401620016059062002588565b60405180910390fd5b3073ffffffffffffffffffffffffffffffffffffffff163373ffffffffffffffffffffffffffffffffffffffff167f42856d0378dde02337bb59ae41747abc77ded8ebdbbc5cbdd1e53693b7554938876040516200166d919062001963565b60405180910390a362001682838686620018a7565b620016c4576040517f08c379a0000000000000000000000000000000000000000000000000000000008152600401620016bb90620025fa565b60405180910390fd5b50620016de565b600a5434620016db9190620024fd565b93505b8390509392505050565b6000600560008373ffffffffffffffffffffffffffffffffffffffff1673ffffffffffffffffffffffffffffffffffffffff16815260200190815260200160002060009054906101000a900473ffffffffffffffffffffffffffffffffffffffff169050919050565b6000818373ffffffffffffffffffffffffffffffffffffffff1663dd62ed3e86306040518363ffffffff1660e01b81526004016200179192919062001fa3565b602060405180830381865afa158015620017af573d6000803e3d6000fd5b505050506040513d601f19601f82011682018060405250810190620017d591906200224b565b101562001819576040517f08c379a000000000000000000000000000000000000000000000000000000000815260040162001810906200266c565b60405180910390fd5b8273ffffffffffffffffffffffffffffffffffffffff166323b872dd8530856040518463ffffffff1660e01b815260040162001858939291906200268e565b6020604051808303816000875af115801562001878573d6000803e3d6000fd5b505050506040513d601f19601f820116820180604052508101906200189e9190620021ae565b90509392505050565b6000808290508073ffffffffffffffffffffffffffffffffffffffff1663095ea7b386866040518363ffffffff1660e01b8152600401620018ea929190620026cb565b6020604051808303816000875af11580156200190a573d6000803e3d6000fd5b505050506040513d601f19601f82011682018060405250810190620019309190620021ae565b9150509392505050565b612d7080620026f983390190565b6000819050919050565b6200195d8162001948565b82525050565b60006020820190506200197a600083018462001952565b92915050565b600073ffffffffffffffffffffffffffffffffffffffff82169050919050565b6000620019ad8262001980565b9050919050565b620019bf81620019a0565b82525050565b6000602082019050620019dc6000830184620019b4565b92915050565b6000604051905090565b600080fd5b600080fd5b62001a018162001948565b811462001a0d57600080fd5b50565b60008135905062001a2181620019f6565b92915050565b6000806040838503121562001a415762001a40620019ec565b5b600062001a518582860162001a10565b925050602062001a648582860162001a10565b9150509250929050565b600080fd5b600080fd5b6000601f19601f8301169050919050565b7f4e487b7100000000000000000000000000000000000000000000000000000000600052604160045260246000fd5b62001ac38262001a78565b810181811067ffffffffffffffff8211171562001ae55762001ae462001a89565b5b80604052505050565b600062001afa620019e2565b905062001b08828262001ab8565b919050565b600067ffffffffffffffff82111562001b2b5762001b2a62001a89565b5b62001b368262001a78565b9050602081019050919050565b82818337600083830152505050565b600062001b6962001b638462001b0d565b62001aee565b90508281526020810184848401111562001b885762001b8762001a73565b5b62001b9584828562001b43565b509392505050565b600082601f83011262001bb55762001bb462001a6e565b5b813562001bc784826020860162001b52565b91505092915050565b62001bdb81620019a0565b811462001be757600080fd5b50565b60008135905062001bfb8162001bd0565b92915050565b60008060006060848603121562001c1d5762001c1c620019ec565b5b600084013567ffffffffffffffff81111562001c3e5762001c3d620019f1565b5b62001c4c8682870162001b9d565b935050602062001c5f8682870162001bea565b925050604062001c728682870162001a10565b9150509250925092565b60006020828403121562001c955762001c94620019ec565b5b600082013567ffffffffffffffff81111562001cb65762001cb5620019f1565b5b62001cc48482850162001b9d565b91505092915050565b60008115159050919050565b62001ce48162001ccd565b82525050565b600060208201905062001d01600083018462001cd9565b92915050565b600060ff82169050919050565b62001d1f8162001d07565b811462001d2b57600080fd5b50565b60008135905062001d3f8162001d14565b92915050565b62001d508162001ccd565b811462001d5c57600080fd5b50565b60008135905062001d708162001d45565b92915050565b60008060008060008060c0878903121562001d965762001d95620019ec565b5b600087013567ffffffffffffffff81111562001db75762001db6620019f1565b5b62001dc589828a0162001b9d565b965050602062001dd889828a0162001a10565b955050604062001deb89828a0162001d2e565b945050606062001dfe89828a0162001d5f565b935050608062001e1189828a0162001bea565b92505060a062001e2489828a0162001a10565b9150509295509295509295565b60008060006060848603121562001e4d5762001e4c620019ec565b5b600062001e5d8682870162001a10565b935050602062001e708682870162001a10565b925050604062001e838682870162001bea565b9150509250925092565b6000819050919050565b600062001eb862001eb262001eac8462001980565b62001e8d565b62001980565b9050919050565b600062001ecc8262001e97565b9050919050565b600062001ee08262001ebf565b9050919050565b62001ef28162001ed3565b82525050565b600060208201905062001f0f600083018462001ee7565b92915050565b60006020828403121562001f2e5762001f2d620019ec565b5b600062001f3e8482850162001bea565b91505092915050565b60008060006060848603121562001f635762001f62620019ec565b5b600062001f738682870162001bea565b935050602062001f868682870162001a10565b925050604062001f998682870162001bea565b9150509250925092565b600060408201905062001fba6000830185620019b4565b62001fc96020830184620019b4565b9392505050565b7f4e487b7100000000000000000000000000000000000000000000000000000000600052601160045260246000fd5b60006200200c8262001948565b9150620020198362001948565b925082820190508082111562002034576200203362001fd0565b5b92915050565b7f4e487b7100000000000000000000000000000000000000000000000000000000600052601260045260246000fd5b6000620020768262001948565b9150620020838362001948565b9250826200209657620020956200203a565b5b828204905092915050565b600081519050919050565b600082825260208201905092915050565b60005b83811015620020dd578082015181840152602081019050620020c0565b60008484015250505050565b6000620020f682620020a1565b620021028185620020ac565b935062002114818560208601620020bd565b6200211f8162001a78565b840191505092915050565b60006020820190508181036000830152620021468184620020e9565b905092915050565b6000815190506200215f8162001bd0565b92915050565b6000602082840312156200217e576200217d620019ec565b5b60006200218e848285016200214e565b91505092915050565b600081519050620021a88162001d45565b92915050565b600060208284031215620021c757620021c6620019ec565b5b6000620021d78482850162002197565b91505092915050565b60006080820190508181036000830152620021fc8187620020e9565b90506200220d602083018662001952565b6200221c604083018562001952565b6200222b606083018462001952565b95945050505050565b6000815190506200224581620019f6565b92915050565b600060208284031215620022645762002263620019ec565b5b6000620022748482850162002234565b91505092915050565b6000620022946200228e8462001b0d565b62001aee565b905082815260208101848484011115620022b357620022b262001a73565b5b620022c0848285620020bd565b509392505050565b600082601f830112620022e057620022df62001a6e565b5b8151620022f28482602086016200227d565b91505092915050565b600060208284031215620023145762002313620019ec565b5b600082015167ffffffffffffffff811115620023355762002334620019f1565b5b6200234384828501620022c8565b91505092915050565b7f4e6f2073616665206d6f64652079657421000000000000000000000000000000600082015250565b600062002384601183620020ac565b915062002391826200234c565b602082019050919050565b60006020820190508181036000830152620023b78162002375565b9050919050565b620023c98162001d07565b82525050565b6000610120820190508181036000830152620023ec818c620020e9565b9050620023fd602083018b62001952565b6200240c604083018a62001952565b6200241b6060830189620023be565b6200242a6080830188620019b4565b6200243960a083018762001952565b6200244860c083018662001cd9565b6200245760e083018562001952565b6200246761010083018462001952565b9a9950505050505050505050565b600081905092915050565b60006200248d82620020a1565b62002499818562002475565b9350620024ab818560208601620020bd565b80840191505092915050565b6000620024c5828462002480565b915081905092915050565b6000604082019050620024e7600083018562001952565b620024f66020830184620019b4565b9392505050565b60006200250a8262001948565b9150620025178362001948565b925082820390508181111562002532576200253162001fd0565b5b92915050565b7f54786e206661696c656400000000000000000000000000000000000000000000600082015250565b600062002570600a83620020ac565b91506200257d8262002538565b602082019050919050565b60006020820190508181036000830152620025a38162002561565b9050919050565b7f536176696e677320696e76616c69640000000000000000000000000000000000600082015250565b6000620025e2600f83620020ac565b9150620025ef82620025aa565b602082019050919050565b600060208201905081810360008301526200261581620025d3565b9050919050565b7f546f6b656e20636f756c64206e6f742062652077697468647261776e00000000600082015250565b600062002654601c83620020ac565b915062002661826200261c565b602082019050919050565b60006020820190508181036000830152620026878162002645565b9050919050565b6000606082019050620026a56000830186620019b4565b620026b46020830185620019b4565b620026c3604083018462001952565b949350505050565b6000604082019050620026e26000830185620019b4565b620026f1602083018462001952565b939250505056fe608060405260405162002d7038038062002d70833981810160405281019062000029919062000165565b336000806101000a81548173ffffffffffffffffffffffffffffffffffffffff021916908373ffffffffffffffffffffffffffffffffffffffff16021790555081600260006101000a81548173ffffffffffffffffffffffffffffffffffffffff021916908373ffffffffffffffffffffffffffffffffffffffff16021790555080600160006101000a81548173ffffffffffffffffffffffffffffffffffffffff021916908373ffffffffffffffffffffffffffffffffffffffff16021790555060006003819055505050620001ac565b600080fd5b600073ffffffffffffffffffffffffffffffffffffffff82169050919050565b60006200012d8262000100565b9050919050565b6200013f8162000120565b81146200014b57600080fd5b50565b6000815190506200015f8162000134565b92915050565b600080604083850312156200017f576200017e620000fb565b5b60006200018f858286016200014e565b9250506020620001a2858286016200014e565b9150509250929050565b612bb480620001bc6000396000f3fe6080604052600436106100c25760003560e01c8063585dbffe1161007f578063992642e511610059578063992642e5146102a3578063d1ece790146102ce578063dc2379b9146102f9578063e18f5f6514610329576100c2565b8063585dbffe146101fe57806384febb691461023b5780638f84aa0914610278576100c2565b806313203929146100c75780631bb862a51461010b5780632ae3c90f14610148578063372f910114610173578063436d4a6d146101a3578063567142be146101d3575b600080fd5b3480156100d357600080fd5b506100ee60048036038101906100e99190611c54565b610366565b604051610102989796959493929190611d12565b60405180910390f35b34801561011757600080fd5b50610132600480360381019061012d9190611c54565b6103fe565b60405161013f9190611d90565b60405180910390f35b34801561015457600080fd5b5061015d610436565b60405161016a9190611dcc565b60405180910390f35b61018d60048036038101906101889190611c54565b61045a565b60405161019a9190611e66565b60405180910390f35b6101bd60048036038101906101b89190611f45565b610924565b6040516101ca919061202b565b60405180910390f35b3480156101df57600080fd5b506101e8610cfc565b6040516101f5919061202b565b60405180910390f35b34801561020a57600080fd5b5061022560048036038101906102209190611c54565b610d02565b6040516102329190612115565b60405180910390f35b34801561024757600080fd5b50610262600480360381019061025d9190611c54565b610df9565b60405161026f919061202b565b60405180910390f35b34801561028457600080fd5b5061028d610e24565b60405161029a9190612131565b60405180910390f35b3480156102af57600080fd5b506102b8610e4a565b6040516102c591906121ab565b60405180910390f35b3480156102da57600080fd5b506102e3610e70565b6040516102f091906122fc565b60405180910390f35b610313600480360381019061030e919061231e565b610f63565b604051610320919061202b565b60405180910390f35b34801561033557600080fd5b50610350600480360381019061034b9190611c54565b6113db565b60405161035d9190612131565b60405180910390f35b6004818051602081018201805184825260208301602085012081835280955050505050506000915090508060000160009054906101000a900460ff16908060010154908060020160009054906101000a900473ffffffffffffffffffffffffffffffffffffffff16908060030154908060040154908060050154908060060154908060070160009054906101000a900460ff16905088565b600060048260405161041091906123dd565b908152602001604051809103902060070160009054906101000a900460ff169050919050565b60008054906101000a900473ffffffffffffffffffffffffffffffffffffffff1681565b606060008054906101000a900473ffffffffffffffffffffffffffffffffffffffff1673ffffffffffffffffffffffffffffffffffffffff163373ffffffffffffffffffffffffffffffffffffffff16146104e1576040517f229e1dbd00000000000000000000000000000000000000000000000000000000815260040160405180910390fd5b60006004836040516104f391906123dd565b908152602001604051809103902090508060000160009054906101000a900460ff1661054b576040517fd63d1e4800000000000000000000000000000000000000000000000000000000815260040160405180910390fd5b60008160010154905060008060009054906101000a900473ffffffffffffffffffffffffffffffffffffffff16905082600601544210156105b9576064836005015460646105999190612423565b84600101546105a89190612457565b6105b291906124c8565b91506105ba565b5b60008360020160009054906101000a900473ffffffffffffffffffffffffffffffffffffffff16905060008460070160009054906101000a900460ff16156106f35761064960008054906101000a900473ffffffffffffffffffffffffffffffffffffffff1685600160009054906101000a900473ffffffffffffffffffffffffffffffffffffffff16611426565b508273ffffffffffffffffffffffffffffffffffffffff1663de35c3728386600260009054906101000a900473ffffffffffffffffffffffffffffffffffffffff166040518463ffffffff1660e01b81526004016106a9939291906124f9565b6020604051808303816000875af11580156106c8573d6000803e3d6000fd5b505050506040513d601f19601f820116820180604052508101906106ec9190612545565b9050610856565b600073ffffffffffffffffffffffffffffffffffffffff168273ffffffffffffffffffffffffffffffffffffffff160361080157600080600260009054906101000a900473ffffffffffffffffffffffffffffffffffffffff1673ffffffffffffffffffffffffffffffffffffffff1686604051610770906125a3565b60006040518083038185875af1925050503d80600081146107ad576040519150601f19603f3d011682016040523d82523d6000602084013e6107b2565b606091505b5091509150816107f7576040517f08c379a00000000000000000000000000000000000000000000000000000000081526004016107ee90612604565b60405180910390fd5b8192505050610855565b6108528560020160009054906101000a900473ffffffffffffffffffffffffffffffffffffffff16600260009054906101000a900473ffffffffffffffffffffffffffffffffffffffff16866114b4565b90505b5b801561091a57600060048860405161086e91906123dd565b908152602001604051809103902060000160006101000a81548160ff021916908315150217905550866040516108a491906123dd565b60405180910390207f5b059b7fe1fea38d4de595079621498a365a8f1fa13e49af9f1e4b7197ab049a60405160405180910390a26040518060400160405280601e81526020017f736176696e67732077697468647261776e207375636365737366756c6c7900008152509550505050505061091f565b600080fd5b919050565b60008060009054906101000a900473ffffffffffffffffffffffffffffffffffffffff1673ffffffffffffffffffffffffffffffffffffffff163373ffffffffffffffffffffffffffffffffffffffff16146109ac576040517f229e1dbd00000000000000000000000000000000000000000000000000000000815260040160405180910390fd5b60048a6040516109bc91906123dd565b908152602001604051809103902060000160009054906101000a900460ff1615610a12576040517fd63d1e4800000000000000000000000000000000000000000000000000000000815260040160405180910390fd5b87891015610a4c576040517f6f7eac2600000000000000000000000000000000000000000000000000000000815260040160405180910390fd5b42891015610a86576040517f6f7eac2600000000000000000000000000000000000000000000000000000000815260040160405180910390fd5b60008590508415610ae457610ade60008054906101000a900473ffffffffffffffffffffffffffffffffffffffff16600160009054906101000a900473ffffffffffffffffffffffffffffffffffffffff16886115a7565b50610b4e565b600073ffffffffffffffffffffffffffffffffffffffff168773ffffffffffffffffffffffffffffffffffffffff1614610b4957610b4360008054906101000a900473ffffffffffffffffffffffffffffffffffffffff1688886115a7565b50610b4d565b3490505b5b6000610b5d828c8c88886116f0565b90506040518061010001604052806001151581526020018381526020018973ffffffffffffffffffffffffffffffffffffffff1681526020018281526020018b81526020018a60ff1681526020018c815260200187151581525060048d604051610bc791906123dd565b908152602001604051809103902060008201518160000160006101000a81548160ff0219169083151502179055506020820151816001015560408201518160020160006101000a81548173ffffffffffffffffffffffffffffffffffffffff021916908373ffffffffffffffffffffffffffffffffffffffff160217905550606082015181600301556080820151816004015560a0820151816005015560c0820151816006015560e08201518160070160006101000a81548160ff021916908315150217905550905050610c9a8c61171b565b8b604051610ca891906123dd565b60405180910390207f4ad85a69286191006ea05981ae1848070dbf232e5e00ffdda4b857c16097f0d7888a604051610ce1929190612624565b60405180910390a26001925050509998505050505050505050565b60035481565b610d0a611a88565b600482604051610d1a91906123dd565b9081526020016040518091039020604051806101000160405290816000820160009054906101000a900460ff16151515158152602001600182015481526020016002820160009054906101000a900473ffffffffffffffffffffffffffffffffffffffff1673ffffffffffffffffffffffffffffffffffffffff1673ffffffffffffffffffffffffffffffffffffffff168152602001600382015481526020016004820154815260200160058201548152602001600682015481526020016007820160009054906101000a900460ff1615151515815250509050919050565b6000600482604051610e0b91906123dd565b9081526020016040518091039020600301549050919050565b600260009054906101000a900473ffffffffffffffffffffffffffffffffffffffff1681565b600160009054906101000a900473ffffffffffffffffffffffffffffffffffffffff1681565b610e78611ae7565b600560405180602001604052908160008201805480602002602001604051908101604052809291908181526020016000905b82821015610f56578382906000526020600020018054610ec99061267c565b80601f0160208091040260200160405190810160405280929190818152602001828054610ef59061267c565b8015610f425780601f10610f1757610100808354040283529160200191610f42565b820191906000526020600020905b815481529060010190602001808311610f2557829003601f168201915b505050505081526020019060010190610eaa565b5050505081525050905090565b60008060009054906101000a900473ffffffffffffffffffffffffffffffffffffffff1673ffffffffffffffffffffffffffffffffffffffff163373ffffffffffffffffffffffffffffffffffffffff1614610feb576040517f229e1dbd00000000000000000000000000000000000000000000000000000000815260040160405180910390fd5b6000600486604051610ffd91906123dd565b908152602001604051809103902090508060000160009054906101000a900460ff16611055576040517fd63d1e4800000000000000000000000000000000000000000000000000000000815260040160405180910390fd5b8060060154421115611093576040517f6f7eac2600000000000000000000000000000000000000000000000000000000815260040160405180910390fd5b60008073ffffffffffffffffffffffffffffffffffffffff168260020160009054906101000a900473ffffffffffffffffffffffffffffffffffffffff1673ffffffffffffffffffffffffffffffffffffffff161490508160070160009054906101000a900460ff16156111545761114e60008054906101000a900473ffffffffffffffffffffffffffffffffffffffff16600160009054906101000a900473ffffffffffffffffffffffffffffffffffffffff16886115a7565b506111f6565b806111ae576111a860008054906101000a900473ffffffffffffffffffffffffffffffffffffffff168360020160009054906101000a900473ffffffffffffffffffffffffffffffffffffffff16886115a7565b506111f5565b853410156111f1576040517f08c379a00000000000000000000000000000000000000000000000000000000081526004016111e89061271f565b60405180910390fd5b3495505b5b60006112098784600601544289896116f0565b905080836003015461121b919061273f565b8360030181905550868360010154611233919061273f565b83600101819055508260048960405161124c91906123dd565b90815260200160405180910390206000820160009054906101000a900460ff168160000160006101000a81548160ff021916908315150217905550600182015481600101556002820160009054906101000a900473ffffffffffffffffffffffffffffffffffffffff168160020160006101000a81548173ffffffffffffffffffffffffffffffffffffffff021916908373ffffffffffffffffffffffffffffffffffffffff160217905550600382015481600301556004820154816004015560058201548160050155600682015481600601556007820160009054906101000a900460ff168160070160006101000a81548160ff0219169083151502179055509050508760405161135e91906123dd565b60405180910390207ff6b98d8e0d83f8b1d1ff03a2fa36aba2c77ccf20e4ff035c0cf4aa92762e9eec8885600101548660020160009054906101000a900473ffffffffffffffffffffffffffffffffffffffff166040516113c193929190612773565b60405180910390a282600301549350505050949350505050565b60006004826040516113ed91906123dd565b908152602001604051809103902060020160009054906101000a900473ffffffffffffffffffffffffffffffffffffffff169050919050565b6000808290508073ffffffffffffffffffffffffffffffffffffffff1663095ea7b386866040518363ffffffff1660e01b81526004016114679291906127aa565b6020604051808303816000875af1158015611486573d6000803e3d6000fd5b505050506040513d601f19601f820116820180604052508101906114aa9190612545565b9150509392505050565b6000808490508073ffffffffffffffffffffffffffffffffffffffff1663a9059cbb85856040518363ffffffff1660e01b81526004016114f59291906127aa565b6020604051808303816000875af1158015611514573d6000803e3d6000fd5b505050506040513d601f19601f820116820180604052508101906115389190612545565b91508373ffffffffffffffffffffffffffffffffffffffff163073ffffffffffffffffffffffffffffffffffffffff167f42856d0378dde02337bb59ae41747abc77ded8ebdbbc5cbdd1e53693b755493885604051611597919061202b565b60405180910390a3509392505050565b6000818373ffffffffffffffffffffffffffffffffffffffff1663dd62ed3e86306040518363ffffffff1660e01b81526004016115e59291906127d3565b602060405180830381865afa158015611602573d6000803e3d6000fd5b505050506040513d601f19601f820116820180604052508101906116269190612811565b1015611667576040517f08c379a000000000000000000000000000000000000000000000000000000000815260040161165e9061288a565b60405180910390fd5b8273ffffffffffffffffffffffffffffffffffffffff166323b872dd8530856040518463ffffffff1660e01b81526004016116a4939291906128aa565b6020604051808303816000875af11580156116c3573d6000803e3d6000fd5b505050506040513d601f19601f820116820180604052508101906116e79190612545565b90509392505050565b60006117098685876117029190612423565b8585611756565b90508060038190555095945050505050565b6005600001819080600181540180825580915050600190039060005260206000200160009091909190915090816117529190612a83565b5050565b60008061178d606461177f868762e4e1c06117719190612423565b61182390919063ffffffff16565b61184090919063ffffffff16565b905060006117b384836117a09190612457565b6305f5e10061182390919063ffffffff16565b905060006117ce6301e133808861182390919063ffffffff16565b9050611816611811683635c9adc5dea0000060646117ec9190612457565b83858c6117f99190612457565b6118039190612457565b61182390919063ffffffff16565b611854565b9350505050949350505050565b600061183883670de0b6b3a764000084611876565b905092915050565b600061184c838361198b565b905092915050565b6000670de0b6b3a7640000828161186e5761186d612499565b5b049050919050565b60008060008019858709858702925082811083820303915050600081036118b1578382816118a7576118a6612499565b5b0492505050611984565b8381106118f75780846040517f773cc18c0000000000000000000000000000000000000000000000000000000081526004016118ee929190612b55565b60405180910390fd5b60008486880990508281118203915080830392506000600186190186169050808604955080840493506001818260000304019050808302841793506000600287600302189050808702600203810290508087026002038102905080870260020381029050808702600203810290508087026002038102905080870260020381029050808502955050505050505b9392505050565b60008060008019848609848602925082811083820303915050670de0b6b3a764000081106119f057806040517fd31b34020000000000000000000000000000000000000000000000000000000081526004016119e7919061202b565b60405180910390fd5b600080670de0b6b3a764000086880991506706f05b59d3b1ffff8211905060008303611a3c5780670de0b6b3a76400008581611a2f57611a2e612499565b5b0401945050505050611a82565b807faccb18165bd6fe31ae1cf318dc5b51eee0e1ba569b88cd74c1773b91fac1066960016204000080600003040186851186030262040000858803041702019450505050505b92915050565b60405180610100016040528060001515815260200160008152602001600073ffffffffffffffffffffffffffffffffffffffff168152602001600081526020016000815260200160008152602001600081526020016000151581525090565b6040518060200160405280606081525090565b6000604051905090565b600080fd5b600080fd5b600080fd5b600080fd5b6000601f19601f8301169050919050565b7f4e487b7100000000000000000000000000000000000000000000000000000000600052604160045260246000fd5b611b6182611b18565b810181811067ffffffffffffffff82111715611b8057611b7f611b29565b5b80604052505050565b6000611b93611afa565b9050611b9f8282611b58565b919050565b600067ffffffffffffffff821115611bbf57611bbe611b29565b5b611bc882611b18565b9050602081019050919050565b82818337600083830152505050565b6000611bf7611bf284611ba4565b611b89565b905082815260208101848484011115611c1357611c12611b13565b5b611c1e848285611bd5565b509392505050565b600082601f830112611c3b57611c3a611b0e565b5b8135611c4b848260208601611be4565b91505092915050565b600060208284031215611c6a57611c69611b04565b5b600082013567ffffffffffffffff811115611c8857611c87611b09565b5b611c9484828501611c26565b91505092915050565b60008115159050919050565b611cb281611c9d565b82525050565b6000819050919050565b611ccb81611cb8565b82525050565b600073ffffffffffffffffffffffffffffffffffffffff82169050919050565b6000611cfc82611cd1565b9050919050565b611d0c81611cf1565b82525050565b600061010082019050611d28600083018b611ca9565b611d35602083018a611cc2565b611d426040830189611d03565b611d4f6060830188611cc2565b611d5c6080830187611cc2565b611d6960a0830186611cc2565b611d7660c0830185611cc2565b611d8360e0830184611ca9565b9998505050505050505050565b6000602082019050611da56000830184611ca9565b92915050565b6000611db682611cd1565b9050919050565b611dc681611dab565b82525050565b6000602082019050611de16000830184611dbd565b92915050565b600081519050919050565b600082825260208201905092915050565b60005b83811015611e21578082015181840152602081019050611e06565b60008484015250505050565b6000611e3882611de7565b611e428185611df2565b9350611e52818560208601611e03565b611e5b81611b18565b840191505092915050565b60006020820190508181036000830152611e808184611e2d565b905092915050565b611e9181611cb8565b8114611e9c57600080fd5b50565b600081359050611eae81611e88565b92915050565b600060ff82169050919050565b611eca81611eb4565b8114611ed557600080fd5b50565b600081359050611ee781611ec1565b92915050565b611ef681611cf1565b8114611f0157600080fd5b50565b600081359050611f1381611eed565b92915050565b611f2281611c9d565b8114611f2d57600080fd5b50565b600081359050611f3f81611f19565b92915050565b60008060008060008060008060006101208a8c031215611f6857611f67611b04565b5b60008a013567ffffffffffffffff811115611f8657611f85611b09565b5b611f928c828d01611c26565b9950506020611fa38c828d01611e9f565b9850506040611fb48c828d01611e9f565b9750506060611fc58c828d01611ed8565b9650506080611fd68c828d01611f04565b95505060a0611fe78c828d01611e9f565b94505060c0611ff88c828d01611f30565b93505060e06120098c828d01611e9f565b92505061010061201b8c828d01611e9f565b9150509295985092959850929598565b60006020820190506120406000830184611cc2565b92915050565b61204f81611c9d565b82525050565b61205e81611cb8565b82525050565b61206d81611cf1565b82525050565b6101008201600082015161208a6000850182612046565b50602082015161209d6020850182612055565b5060408201516120b06040850182612064565b5060608201516120c36060850182612055565b5060808201516120d66080850182612055565b5060a08201516120e960a0850182612055565b5060c08201516120fc60c0850182612055565b5060e082015161210f60e0850182612046565b50505050565b60006101008201905061212b6000830184612073565b92915050565b60006020820190506121466000830184611d03565b92915050565b6000819050919050565b600061217161216c61216784611cd1565b61214c565b611cd1565b9050919050565b600061218382612156565b9050919050565b600061219582612178565b9050919050565b6121a58161218a565b82525050565b60006020820190506121c0600083018461219c565b92915050565b600081519050919050565b600082825260208201905092915050565b6000819050602082019050919050565b600082825260208201905092915050565b600061220e82611de7565b61221881856121f2565b9350612228818560208601611e03565b61223181611b18565b840191505092915050565b60006122488383612203565b905092915050565b6000602082019050919050565b6000612268826121c6565b61227281856121d1565b935083602082028501612284856121e2565b8060005b858110156122c057848403895281516122a1858261223c565b94506122ac83612250565b925060208a01995050600181019050612288565b50829750879550505050505092915050565b600060208301600083015184820360008601526122ef828261225d565b9150508091505092915050565b6000602082019050818103600083015261231681846122d2565b905092915050565b6000806000806080858703121561233857612337611b04565b5b600085013567ffffffffffffffff81111561235657612355611b09565b5b61236287828801611c26565b945050602061237387828801611e9f565b935050604061238487828801611e9f565b925050606061239587828801611e9f565b91505092959194509250565b600081905092915050565b60006123b782611de7565b6123c181856123a1565b93506123d1818560208601611e03565b80840191505092915050565b60006123e982846123ac565b915081905092915050565b7f4e487b7100000000000000000000000000000000000000000000000000000000600052601160045260246000fd5b600061242e82611cb8565b915061243983611cb8565b9250828203905081811115612451576124506123f4565b5b92915050565b600061246282611cb8565b915061246d83611cb8565b925082820261247b81611cb8565b91508282048414831517612492576124916123f4565b5b5092915050565b7f4e487b7100000000000000000000000000000000000000000000000000000000600052601260045260246000fd5b60006124d382611cb8565b91506124de83611cb8565b9250826124ee576124ed612499565b5b828204905092915050565b600060608201905061250e6000830186611d03565b61251b6020830185611cc2565b6125286040830184611d03565b949350505050565b60008151905061253f81611f19565b92915050565b60006020828403121561255b5761255a611b04565b5b600061256984828501612530565b91505092915050565b600081905092915050565b50565b600061258d600083612572565b91506125988261257d565b600082019050919050565b60006125ae82612580565b9150819050919050565b7f436f756c646e27742073656e642066756e647300000000000000000000000000600082015250565b60006125ee601383611df2565b91506125f9826125b8565b602082019050919050565b6000602082019050818103600083015261261d816125e1565b9050919050565b60006040820190506126396000830185611cc2565b6126466020830184611d03565b9392505050565b7f4e487b7100000000000000000000000000000000000000000000000000000000600052602260045260246000fd5b6000600282049050600182168061269457607f821691505b6020821081036126a7576126a661264d565b5b50919050565b7f496e76616c696420736176696e6720696e6372656d656e742076616c7565207360008201527f656e740000000000000000000000000000000000000000000000000000000000602082015250565b6000612709602383611df2565b9150612714826126ad565b604082019050919050565b60006020820190508181036000830152612738816126fc565b9050919050565b600061274a82611cb8565b915061275583611cb8565b925082820190508082111561276d5761276c6123f4565b5b92915050565b60006060820190506127886000830186611cc2565b6127956020830185611cc2565b6127a26040830184611d03565b949350505050565b60006040820190506127bf6000830185611d03565b6127cc6020830184611cc2565b9392505050565b60006040820190506127e86000830185611d03565b6127f56020830184611d03565b9392505050565b60008151905061280b81611e88565b92915050565b60006020828403121561282757612826611b04565b5b6000612835848285016127fc565b91505092915050565b7f546f6b656e20636f756c64206e6f742062652077697468647261776e00000000600082015250565b6000612874601c83611df2565b915061287f8261283e565b602082019050919050565b600060208201905081810360008301526128a381612867565b9050919050565b60006060820190506128bf6000830186611d03565b6128cc6020830185611d03565b6128d96040830184611cc2565b949350505050565b60008190508160005260206000209050919050565b60006020601f8301049050919050565b600082821b905092915050565b6000600883026129437fffffffffffffffffffffffffffffffffffffffffffffffffffffffffffffffff82612906565b61294d8683612906565b95508019841693508086168417925050509392505050565b600061298061297b61297684611cb8565b61214c565b611cb8565b9050919050565b6000819050919050565b61299a83612965565b6129ae6129a682612987565b848454612913565b825550505050565b600090565b6129c36129b6565b6129ce818484612991565b505050565b5b818110156129f2576129e76000826129bb565b6001810190506129d4565b5050565b601f821115612a3757612a08816128e1565b612a11846128f6565b81016020851015612a20578190505b612a34612a2c856128f6565b8301826129d3565b50505b505050565b600082821c905092915050565b6000612a5a60001984600802612a3c565b1980831691505092915050565b6000612a738383612a49565b9150826002028217905092915050565b612a8c82611de7565b67ffffffffffffffff811115612aa557612aa4611b29565b5b612aaf825461267c565b612aba8282856129f6565b600060209050601f831160018114612aed5760008415612adb578287015190505b612ae58582612a67565b865550612b4d565b601f198416612afb866128e1565b60005b82811015612b2357848901518255600182019150602085019450602081019050612afe565b86831015612b405784890151612b3c601f891682612a49565b8355505b6001600288020188555050505b505050505050565b6000604082019050612b6a6000830185611cc2565b612b776020830184611cc2565b939250505056fea26469706673582212209501de0f3a5c5b6fc92856d3315d5c6876d4bdb6b7f1dfd73dde97aadab311d164736f6c63430008170033a264697066735822122060828841c5061f409369aae5a0c607bc4e020a5d972302b34e0f213758ff15e064736f6c63430008170033","opcodes":"PUSH1 0x80 PUSH1 0x40 MSTORE PUSH6 0x5AF3107A4000 PUSH1 0x9 SSTORE PUSH6 0x5AF3107A4000 PUSH1 0xA SSTORE PUSH1 0x14 PUSH1 0xA SLOAD PUSH3 0x29 SWAP2 SWAP1 PUSH3 0x17F JUMP JUMPDEST PUSH1 0xB SSTORE PUSH1 0x40 MLOAD PUSH3 0x5716 CODESIZE SUB DUP1 PUSH3 0x5716 DUP4 CODECOPY DUP2 DUP2 ADD PUSH1 0x40 MSTORE DUP2 ADD SWAP1 PUSH3 0x51 SWAP2 SWAP1 PUSH3 0x221 JUMP JUMPDEST DUP2 PUSH1 0x0 DUP1 PUSH2 0x100 EXP DUP2 SLOAD DUP2 PUSH20 0xFFFFFFFFFFFFFFFFFFFFFFFFFFFFFFFFFFFFFFFF MUL NOT AND SWAP1 DUP4 PUSH20 0xFFFFFFFFFFFFFFFFFFFFFFFFFFFFFFFFFFFFFFFF AND MUL OR SWAP1 SSTORE POP DUP1 PUSH1 0x1 PUSH1 0x0 PUSH2 0x100 EXP DUP2 SLOAD DUP2 PUSH20 0xFFFFFFFFFFFFFFFFFFFFFFFFFFFFFFFFFFFFFFFF MUL NOT AND SWAP1 DUP4 PUSH20 0xFFFFFFFFFFFFFFFFFFFFFFFFFFFFFFFFFFFFFFFF AND MUL OR SWAP1 SSTORE POP CALLER PUSH1 0x2 PUSH1 0x0 PUSH2 0x100 EXP DUP2 SLOAD DUP2 PUSH20 0xFFFFFFFFFFFFFFFFFFFFFFFFFFFFFFFFFFFFFFFF MUL NOT AND SWAP1 DUP4 PUSH20 0xFFFFFFFFFFFFFFFFFFFFFFFFFFFFFFFFFFFFFFFF AND MUL OR SWAP1 SSTORE POP PUSH1 0x0 PUSH1 0x3 DUP2 SWAP1 SSTORE POP PUSH1 0x0 PUSH1 0x6 DUP2 SWAP1 SSTORE POP PUSH3 0xD59F80 PUSH1 0x7 DUP2 SWAP1 SSTORE POP PUSH3 0x186A0 PUSH1 0x8 DUP2 SWAP1 SSTORE POP CALLVALUE PUSH1 0x4 DUP2 SWAP1 SSTORE POP POP POP PUSH3 0x268 JUMP JUMPDEST PUSH1 0x0 DUP2 SWAP1 POP SWAP2 SWAP1 POP JUMP JUMPDEST PUSH32 0x4E487B7100000000000000000000000000000000000000000000000000000000 PUSH1 0x0 MSTORE PUSH1 0x12 PUSH1 0x4 MSTORE PUSH1 0x24 PUSH1 0x0 REVERT JUMPDEST PUSH1 0x0 PUSH3 0x18C DUP3 PUSH3 0x146 JUMP JUMPDEST SWAP2 POP PUSH3 0x199 DUP4 PUSH3 0x146 JUMP JUMPDEST SWAP3 POP DUP3 PUSH3 0x1AC JUMPI PUSH3 0x1AB PUSH3 0x150 JUMP JUMPDEST JUMPDEST DUP3 DUP3 DIV SWAP1 POP SWAP3 SWAP2 POP POP JUMP JUMPDEST PUSH1 0x0 DUP1 REVERT JUMPDEST PUSH1 0x0 PUSH20 0xFFFFFFFFFFFFFFFFFFFFFFFFFFFFFFFFFFFFFFFF DUP3 AND SWAP1 POP SWAP2 SWAP1 POP JUMP JUMPDEST PUSH1 0x0 PUSH3 0x1E9 DUP3 PUSH3 0x1BC JUMP JUMPDEST SWAP1 POP SWAP2 SWAP1 POP JUMP JUMPDEST PUSH3 0x1FB DUP2 PUSH3 0x1DC JUMP JUMPDEST DUP2 EQ PUSH3 0x207 JUMPI PUSH1 0x0 DUP1 REVERT JUMPDEST POP JUMP JUMPDEST PUSH1 0x0 DUP2 MLOAD SWAP1 POP PUSH3 0x21B DUP2 PUSH3 0x1F0 JUMP JUMPDEST SWAP3 SWAP2 POP POP JUMP JUMPDEST PUSH1 0x0 DUP1 PUSH1 0x40 DUP4 DUP6 SUB SLT ISZERO PUSH3 0x23B JUMPI PUSH3 0x23A PUSH3 0x1B7 JUMP JUMPDEST JUMPDEST PUSH1 0x0 PUSH3 0x24B DUP6 DUP3 DUP7 ADD PUSH3 0x20A JUMP JUMPDEST SWAP3 POP POP PUSH1 0x20 PUSH3 0x25E DUP6 DUP3 DUP7 ADD PUSH3 0x20A JUMP JUMPDEST SWAP2 POP POP SWAP3 POP SWAP3 SWAP1 POP JUMP JUMPDEST PUSH2 0x549E DUP1 PUSH3 0x278 PUSH1 0x0 CODECOPY PUSH1 0x0 RETURN INVALID PUSH1 0x80 PUSH1 0x40 MSTORE PUSH1 0x4 CALLDATASIZE LT PUSH3 0x14B JUMPI PUSH1 0x0 CALLDATALOAD PUSH1 0xE0 SHR DUP1 PUSH4 0x84762B0B GT PUSH3 0xBB JUMPI DUP1 PUSH4 0xD5633E96 GT PUSH3 0x79 JUMPI DUP1 PUSH4 0xD5633E96 EQ PUSH3 0x408 JUMPI DUP1 PUSH4 0xDE35C372 EQ PUSH3 0x422 JUMPI DUP1 PUSH4 0xE04605FD EQ PUSH3 0x458 JUMPI DUP1 PUSH4 0xEA413672 EQ PUSH3 0x488 JUMPI DUP1 PUSH4 0xF24053B3 EQ PUSH3 0x4B8 JUMPI DUP1 PUSH4 0xFED0B925 EQ PUSH3 0x4E8 JUMPI PUSH3 0x153 JUMP JUMPDEST DUP1 PUSH4 0x84762B0B EQ PUSH3 0x31A JUMPI DUP1 PUSH4 0x992642E5 EQ PUSH3 0x34A JUMPI DUP1 PUSH4 0x9986E0E9 EQ PUSH3 0x37A JUMPI DUP1 PUSH4 0xBF66BFC7 EQ PUSH3 0x3A8 JUMPI DUP1 PUSH4 0xD365A08E EQ PUSH3 0x3D8 JUMPI PUSH3 0x153 JUMP JUMPDEST DUP1 PUSH4 0x372F9101 GT PUSH3 0x109 JUMPI DUP1 PUSH4 0x372F9101 EQ PUSH3 0x228 JUMPI DUP1 PUSH4 0x4C3FA304 EQ PUSH3 0x26C JUMPI DUP1 PUSH4 0x6405350A EQ PUSH3 0x29C JUMPI DUP1 PUSH4 0x66666AA9 EQ PUSH3 0x2BC JUMPI DUP1 PUSH4 0x7679489C EQ PUSH3 0x2EC JUMPI PUSH3 0x153 JUMP JUMPDEST DUP1 PUSH4 0x2500739 EQ PUSH3 0x158 JUMPI DUP1 PUSH4 0x7973CCF EQ PUSH3 0x188 JUMPI DUP1 PUSH4 0x16F94D5D EQ PUSH3 0x1B8 JUMPI DUP1 PUSH4 0x174FBAEE EQ PUSH3 0x1DA JUMPI DUP1 PUSH4 0x1FDC181F EQ PUSH3 0x208 JUMPI PUSH3 0x153 JUMP JUMPDEST CALLDATASIZE PUSH3 0x153 JUMPI STOP JUMPDEST PUSH1 0x0 DUP1 REVERT JUMPDEST CALLVALUE DUP1 ISZERO PUSH3 0x165 JUMPI PUSH1 0x0 DUP1 REVERT JUMPDEST POP PUSH3 0x170 PUSH3 0x518 JUMP JUMPDEST PUSH1 0x40 MLOAD PUSH3 0x17F SWAP2 SWAP1 PUSH3 0x1963 JUMP JUMPDEST PUSH1 0x40 MLOAD DUP1 SWAP2 SUB SWAP1 RETURN JUMPDEST CALLVALUE DUP1 ISZERO PUSH3 0x195 JUMPI PUSH1 0x0 DUP1 REVERT JUMPDEST POP PUSH3 0x1A0 PUSH3 0x51E JUMP JUMPDEST PUSH1 0x40 MLOAD PUSH3 0x1AF SWAP2 SWAP1 PUSH3 0x1963 JUMP JUMPDEST PUSH1 0x40 MLOAD DUP1 SWAP2 SUB SWAP1 RETURN JUMPDEST PUSH3 0x1C2 PUSH3 0x524 JUMP JUMPDEST PUSH1 0x40 MLOAD PUSH3 0x1D1 SWAP2 SWAP1 PUSH3 0x19C5 JUMP JUMPDEST PUSH1 0x40 MLOAD DUP1 SWAP2 SUB SWAP1 RETURN JUMPDEST CALLVALUE DUP1 ISZERO PUSH3 0x1E7 JUMPI PUSH1 0x0 DUP1 REVERT JUMPDEST POP PUSH3 0x206 PUSH1 0x4 DUP1 CALLDATASIZE SUB DUP2 ADD SWAP1 PUSH3 0x200 SWAP2 SWAP1 PUSH3 0x1A27 JUMP JUMPDEST PUSH3 0x751 JUMP JUMPDEST STOP JUMPDEST PUSH3 0x226 PUSH1 0x4 DUP1 CALLDATASIZE SUB DUP2 ADD SWAP1 PUSH3 0x220 SWAP2 SWAP1 PUSH3 0x1C01 JUMP JUMPDEST PUSH3 0x814 JUMP JUMPDEST STOP JUMPDEST CALLVALUE DUP1 ISZERO PUSH3 0x235 JUMPI PUSH1 0x0 DUP1 REVERT JUMPDEST POP PUSH3 0x254 PUSH1 0x4 DUP1 CALLDATASIZE SUB DUP2 ADD SWAP1 PUSH3 0x24E SWAP2 SWAP1 PUSH3 0x1C7C JUMP JUMPDEST PUSH3 0xB77 JUMP JUMPDEST PUSH1 0x40 MLOAD PUSH3 0x263 SWAP2 SWAP1 PUSH3 0x1CEA JUMP JUMPDEST PUSH1 0x40 MLOAD DUP1 SWAP2 SUB SWAP1 RETURN JUMPDEST CALLVALUE DUP1 ISZERO PUSH3 0x279 JUMPI PUSH1 0x0 DUP1 REVERT JUMPDEST POP PUSH3 0x284 PUSH3 0xD36 JUMP JUMPDEST PUSH1 0x40 MLOAD PUSH3 0x293 SWAP2 SWAP1 PUSH3 0x1963 JUMP JUMPDEST PUSH1 0x40 MLOAD DUP1 SWAP2 SUB SWAP1 RETURN JUMPDEST PUSH3 0x2BA PUSH1 0x4 DUP1 CALLDATASIZE SUB DUP2 ADD SWAP1 PUSH3 0x2B4 SWAP2 SWAP1 PUSH3 0x1D76 JUMP JUMPDEST PUSH3 0xD3C JUMP JUMPDEST STOP JUMPDEST CALLVALUE DUP1 ISZERO PUSH3 0x2C9 JUMPI PUSH1 0x0 DUP1 REVERT JUMPDEST POP PUSH3 0x2D4 PUSH3 0x1028 JUMP JUMPDEST PUSH1 0x40 MLOAD PUSH3 0x2E3 SWAP2 SWAP1 PUSH3 0x1963 JUMP JUMPDEST PUSH1 0x40 MLOAD DUP1 SWAP2 SUB SWAP1 RETURN JUMPDEST CALLVALUE DUP1 ISZERO PUSH3 0x2F9 JUMPI PUSH1 0x0 DUP1 REVERT JUMPDEST POP PUSH3 0x318 PUSH1 0x4 DUP1 CALLDATASIZE SUB DUP2 ADD SWAP1 PUSH3 0x312 SWAP2 SWAP1 PUSH3 0x1E31 JUMP JUMPDEST PUSH3 0x102E JUMP JUMPDEST STOP JUMPDEST CALLVALUE DUP1 ISZERO PUSH3 0x327 JUMPI PUSH1 0x0 DUP1 REVERT JUMPDEST POP PUSH3 0x332 PUSH3 0x1140 JUMP JUMPDEST PUSH1 0x40 MLOAD PUSH3 0x341 SWAP2 SWAP1 PUSH3 0x1963 JUMP JUMPDEST PUSH1 0x40 MLOAD DUP1 SWAP2 SUB SWAP1 RETURN JUMPDEST CALLVALUE DUP1 ISZERO PUSH3 0x357 JUMPI PUSH1 0x0 DUP1 REVERT JUMPDEST POP PUSH3 0x362 PUSH3 0x1146 JUMP JUMPDEST PUSH1 0x40 MLOAD PUSH3 0x371 SWAP2 SWAP1 PUSH3 0x1EF8 JUMP JUMPDEST PUSH1 0x40 MLOAD DUP1 SWAP2 SUB SWAP1 RETURN JUMPDEST CALLVALUE DUP1 ISZERO PUSH3 0x387 JUMPI PUSH1 0x0 DUP1 REVERT JUMPDEST POP PUSH3 0x3A6 PUSH1 0x4 DUP1 CALLDATASIZE SUB DUP2 ADD SWAP1 PUSH3 0x3A0 SWAP2 SWAP1 PUSH3 0x1F15 JUMP JUMPDEST PUSH3 0x116A JUMP JUMPDEST STOP JUMPDEST CALLVALUE DUP1 ISZERO PUSH3 0x3B5 JUMPI PUSH1 0x0 DUP1 REVERT JUMPDEST POP PUSH3 0x3C0 PUSH3 0x126B JUMP JUMPDEST PUSH1 0x40 MLOAD PUSH3 0x3CF SWAP2 SWAP1 PUSH3 0x1963 JUMP JUMPDEST PUSH1 0x40 MLOAD DUP1 SWAP2 SUB SWAP1 RETURN JUMPDEST CALLVALUE DUP1 ISZERO PUSH3 0x3E5 JUMPI PUSH1 0x0 DUP1 REVERT JUMPDEST POP PUSH3 0x3F0 PUSH3 0x1271 JUMP JUMPDEST PUSH1 0x40 MLOAD PUSH3 0x3FF SWAP2 SWAP1 PUSH3 0x19C5 JUMP JUMPDEST PUSH1 0x40 MLOAD DUP1 SWAP2 SUB SWAP1 RETURN JUMPDEST CALLVALUE DUP1 ISZERO PUSH3 0x415 JUMPI PUSH1 0x0 DUP1 REVERT JUMPDEST POP PUSH3 0x420 PUSH3 0x1297 JUMP JUMPDEST STOP JUMPDEST PUSH3 0x440 PUSH1 0x4 DUP1 CALLDATASIZE SUB DUP2 ADD SWAP1 PUSH3 0x43A SWAP2 SWAP1 PUSH3 0x1F47 JUMP JUMPDEST PUSH3 0x13AC JUMP JUMPDEST PUSH1 0x40 MLOAD PUSH3 0x44F SWAP2 SWAP1 PUSH3 0x1CEA JUMP JUMPDEST PUSH1 0x40 MLOAD DUP1 SWAP2 SUB SWAP1 RETURN JUMPDEST CALLVALUE DUP1 ISZERO PUSH3 0x465 JUMPI PUSH1 0x0 DUP1 REVERT JUMPDEST POP PUSH3 0x470 PUSH3 0x14EB JUMP JUMPDEST PUSH1 0x40 MLOAD PUSH3 0x47F SWAP2 SWAP1 PUSH3 0x1EF8 JUMP JUMPDEST PUSH1 0x40 MLOAD DUP1 SWAP2 SUB SWAP1 RETURN JUMPDEST CALLVALUE DUP1 ISZERO PUSH3 0x495 JUMPI PUSH1 0x0 DUP1 REVERT JUMPDEST POP PUSH3 0x4A0 PUSH3 0x1511 JUMP JUMPDEST PUSH1 0x40 MLOAD PUSH3 0x4AF SWAP2 SWAP1 PUSH3 0x19C5 JUMP JUMPDEST PUSH1 0x40 MLOAD DUP1 SWAP2 SUB SWAP1 RETURN JUMPDEST CALLVALUE DUP1 ISZERO PUSH3 0x4C5 JUMPI PUSH1 0x0 DUP1 REVERT JUMPDEST POP PUSH3 0x4D0 PUSH3 0x1578 JUMP JUMPDEST PUSH1 0x40 MLOAD PUSH3 0x4DF SWAP2 SWAP1 PUSH3 0x1963 JUMP JUMPDEST PUSH1 0x40 MLOAD DUP1 SWAP2 SUB SWAP1 RETURN JUMPDEST CALLVALUE DUP1 ISZERO PUSH3 0x4F5 JUMPI PUSH1 0x0 DUP1 REVERT JUMPDEST POP PUSH3 0x500 PUSH3 0x157E JUMP JUMPDEST PUSH1 0x40 MLOAD PUSH3 0x50F SWAP2 SWAP1 PUSH3 0x1963 JUMP JUMPDEST PUSH1 0x40 MLOAD DUP1 SWAP2 SUB SWAP1 RETURN JUMPDEST PUSH1 0x8 SLOAD DUP2 JUMP JUMPDEST PUSH1 0x6 SLOAD DUP2 JUMP JUMPDEST PUSH1 0x0 DUP1 CALLER SWAP1 POP PUSH1 0x0 PUSH1 0x5 PUSH1 0x0 DUP4 PUSH20 0xFFFFFFFFFFFFFFFFFFFFFFFFFFFFFFFFFFFFFFFF AND PUSH20 0xFFFFFFFFFFFFFFFFFFFFFFFFFFFFFFFFFFFFFFFF AND DUP2 MSTORE PUSH1 0x20 ADD SWAP1 DUP2 MSTORE PUSH1 0x20 ADD PUSH1 0x0 KECCAK256 PUSH1 0x0 SWAP1 SLOAD SWAP1 PUSH2 0x100 EXP SWAP1 DIV PUSH20 0xFFFFFFFFFFFFFFFFFFFFFFFFFFFFFFFFFFFFFFFF AND SWAP1 POP PUSH1 0x0 PUSH20 0xFFFFFFFFFFFFFFFFFFFFFFFFFFFFFFFFFFFFFFFF AND DUP2 PUSH20 0xFFFFFFFFFFFFFFFFFFFFFFFFFFFFFFFFFFFFFFFF AND EQ PUSH3 0x5CE JUMPI DUP1 SWAP3 POP POP POP PUSH3 0x74E JUMP JUMPDEST PUSH1 0x9 SLOAD CALLVALUE LT ISZERO PUSH3 0x60B JUMPI PUSH1 0x40 MLOAD PUSH32 0xCB6E851C00000000000000000000000000000000000000000000000000000000 DUP2 MSTORE PUSH1 0x4 ADD PUSH1 0x40 MLOAD DUP1 SWAP2 SUB SWAP1 REVERT JUMPDEST PUSH1 0x0 CALLER PUSH1 0x0 DUP1 SLOAD SWAP1 PUSH2 0x100 EXP SWAP1 DIV PUSH20 0xFFFFFFFFFFFFFFFFFFFFFFFFFFFFFFFFFFFFFFFF AND PUSH1 0x40 MLOAD PUSH3 0x63D SWAP1 PUSH3 0x193A JUMP JUMPDEST PUSH3 0x64A SWAP3 SWAP2 SWAP1 PUSH3 0x1FA3 JUMP JUMPDEST PUSH1 0x40 MLOAD DUP1 SWAP2 SUB SWAP1 PUSH1 0x0 CREATE DUP1 ISZERO DUP1 ISZERO PUSH3 0x667 JUMPI RETURNDATASIZE PUSH1 0x0 DUP1 RETURNDATACOPY RETURNDATASIZE PUSH1 0x0 REVERT JUMPDEST POP SWAP1 POP DUP1 PUSH1 0x5 PUSH1 0x0 DUP6 PUSH20 0xFFFFFFFFFFFFFFFFFFFFFFFFFFFFFFFFFFFFFFFF AND PUSH20 0xFFFFFFFFFFFFFFFFFFFFFFFFFFFFFFFFFFFFFFFF AND DUP2 MSTORE PUSH1 0x20 ADD SWAP1 DUP2 MSTORE PUSH1 0x20 ADD PUSH1 0x0 KECCAK256 PUSH1 0x0 PUSH2 0x100 EXP DUP2 SLOAD DUP2 PUSH20 0xFFFFFFFFFFFFFFFFFFFFFFFFFFFFFFFFFFFFFFFF MUL NOT AND SWAP1 DUP4 PUSH20 0xFFFFFFFFFFFFFFFFFFFFFFFFFFFFFFFFFFFFFFFF AND MUL OR SWAP1 SSTORE POP PUSH1 0x1 PUSH1 0x6 PUSH1 0x0 DUP3 DUP3 SLOAD PUSH3 0x6FD SWAP2 SWAP1 PUSH3 0x1FFF JUMP JUMPDEST SWAP3 POP POP DUP2 SWAP1 SSTORE POP DUP3 PUSH20 0xFFFFFFFFFFFFFFFFFFFFFFFFFFFFFFFFFFFFFFFF AND PUSH32 0xC5C0C4D53B63790E32770CF47FD115D706000FD7AB63FBDC8D176C5020D6B46 PUSH1 0x40 MLOAD PUSH1 0x40 MLOAD DUP1 SWAP2 SUB SWAP1 LOG2 DUP1 SWAP4 POP POP POP POP JUMPDEST SWAP1 JUMP JUMPDEST PUSH1 0x2 PUSH1 0x0 SWAP1 SLOAD SWAP1 PUSH2 0x100 EXP SWAP1 DIV PUSH20 0xFFFFFFFFFFFFFFFFFFFFFFFFFFFFFFFFFFFFFFFF AND PUSH20 0xFFFFFFFFFFFFFFFFFFFFFFFFFFFFFFFFFFFFFFFF AND CALLER PUSH20 0xFFFFFFFFFFFFFFFFFFFFFFFFFFFFFFFFFFFFFFFF AND EQ PUSH3 0x7D9 JUMPI PUSH1 0x40 MLOAD PUSH32 0x33662B3400000000000000000000000000000000000000000000000000000000 DUP2 MSTORE PUSH1 0x4 ADD PUSH1 0x40 MLOAD DUP1 SWAP2 SUB SWAP1 REVERT JUMPDEST PUSH1 0x0 DUP3 EQ PUSH3 0x7EA JUMPI DUP2 PUSH1 0x9 DUP2 SWAP1 SSTORE POP JUMPDEST PUSH1 0x0 DUP2 EQ PUSH3 0x810 JUMPI DUP1 PUSH1 0xA DUP2 SWAP1 SSTORE POP PUSH1 0x14 DUP2 PUSH3 0x809 SWAP2 SWAP1 PUSH3 0x2069 JUMP JUMPDEST PUSH1 0xB DUP2 SWAP1 SSTORE POP JUMPDEST POP POP JUMP JUMPDEST CALLER PUSH1 0x0 PUSH20 0xFFFFFFFFFFFFFFFFFFFFFFFFFFFFFFFFFFFFFFFF AND PUSH1 0x5 PUSH1 0x0 DUP4 PUSH20 0xFFFFFFFFFFFFFFFFFFFFFFFFFFFFFFFFFFFFFFFF AND PUSH20 0xFFFFFFFFFFFFFFFFFFFFFFFFFFFFFFFFFFFFFFFF AND DUP2 MSTORE PUSH1 0x20 ADD SWAP1 DUP2 MSTORE PUSH1 0x20 ADD PUSH1 0x0 KECCAK256 PUSH1 0x0 SWAP1 SLOAD SWAP1 PUSH2 0x100 EXP SWAP1 DIV PUSH20 0xFFFFFFFFFFFFFFFFFFFFFFFFFFFFFFFFFFFFFFFF AND PUSH20 0xFFFFFFFFFFFFFFFFFFFFFFFFFFFFFFFFFFFFFFFF AND SUB PUSH3 0x8DB JUMPI PUSH1 0x40 MLOAD PUSH32 0x2163950F00000000000000000000000000000000000000000000000000000000 DUP2 MSTORE PUSH1 0x4 ADD PUSH1 0x40 MLOAD DUP1 SWAP2 SUB SWAP1 REVERT JUMPDEST PUSH1 0x0 PUSH1 0x5 PUSH1 0x0 CALLER PUSH20 0xFFFFFFFFFFFFFFFFFFFFFFFFFFFFFFFFFFFFFFFF AND PUSH20 0xFFFFFFFFFFFFFFFFFFFFFFFFFFFFFFFFFFFFFFFF AND DUP2 MSTORE PUSH1 0x20 ADD SWAP1 DUP2 MSTORE PUSH1 0x20 ADD PUSH1 0x0 KECCAK256 PUSH1 0x0 SWAP1 SLOAD SWAP1 PUSH2 0x100 EXP SWAP1 DIV PUSH20 0xFFFFFFFFFFFFFFFFFFFFFFFFFFFFFFFFFFFFFFFF AND SWAP1 POP PUSH1 0x0 DUP2 SWAP1 POP PUSH1 0x0 DUP2 PUSH20 0xFFFFFFFFFFFFFFFFFFFFFFFFFFFFFFFFFFFFFFFF AND PUSH4 0xE18F5F65 DUP9 PUSH1 0x40 MLOAD DUP3 PUSH4 0xFFFFFFFF AND PUSH1 0xE0 SHL DUP2 MSTORE PUSH1 0x4 ADD PUSH3 0x981 SWAP2 SWAP1 PUSH3 0x212A JUMP JUMPDEST PUSH1 0x20 PUSH1 0x40 MLOAD DUP1 DUP4 SUB DUP2 DUP7 GAS STATICCALL ISZERO DUP1 ISZERO PUSH3 0x99F JUMPI RETURNDATASIZE PUSH1 0x0 DUP1 RETURNDATACOPY RETURNDATASIZE PUSH1 0x0 REVERT JUMPDEST POP POP POP POP PUSH1 0x40 MLOAD RETURNDATASIZE PUSH1 0x1F NOT PUSH1 0x1F DUP3 ADD AND DUP3 ADD DUP1 PUSH1 0x40 MSTORE POP DUP2 ADD SWAP1 PUSH3 0x9C5 SWAP2 SWAP1 PUSH3 0x2165 JUMP JUMPDEST SWAP1 POP PUSH1 0x0 DUP1 PUSH20 0xFFFFFFFFFFFFFFFFFFFFFFFFFFFFFFFFFFFFFFFF AND DUP3 PUSH20 0xFFFFFFFFFFFFFFFFFFFFFFFFFFFFFFFFFFFFFFFF AND EQ SWAP1 POP PUSH1 0x0 DUP7 SWAP1 POP PUSH1 0x0 DUP5 PUSH20 0xFFFFFFFFFFFFFFFFFFFFFFFFFFFFFFFFFFFFFFFF AND PUSH4 0x1BB862A5 DUP12 PUSH1 0x40 MLOAD DUP3 PUSH4 0xFFFFFFFF AND PUSH1 0xE0 SHL DUP2 MSTORE PUSH1 0x4 ADD PUSH3 0xA3C SWAP2 SWAP1 PUSH3 0x212A JUMP JUMPDEST PUSH1 0x20 PUSH1 0x40 MLOAD DUP1 DUP4 SUB DUP2 DUP7 GAS STATICCALL ISZERO DUP1 ISZERO PUSH3 0xA5A JUMPI RETURNDATASIZE PUSH1 0x0 DUP1 RETURNDATACOPY RETURNDATASIZE PUSH1 0x0 REVERT JUMPDEST POP POP POP POP PUSH1 0x40 MLOAD RETURNDATASIZE PUSH1 0x1F NOT PUSH1 0x1F DUP3 ADD AND DUP3 ADD DUP1 PUSH1 0x40 MSTORE POP DUP2 ADD SWAP1 PUSH3 0xA80 SWAP2 SWAP1 PUSH3 0x21AE JUMP JUMPDEST SWAP1 POP DUP1 ISZERO PUSH3 0xAAD JUMPI PUSH1 0x0 DUP1 SLOAD SWAP1 PUSH2 0x100 EXP SWAP1 DIV PUSH20 0xFFFFFFFFFFFFFFFFFFFFFFFFFFFFFFFFFFFFFFFF AND SWAP9 POP JUMPDEST PUSH1 0x0 PUSH3 0xABC DUP10 DUP12 DUP10 PUSH3 0x1584 JUMP JUMPDEST SWAP1 POP DUP6 PUSH20 0xFFFFFFFFFFFFFFFFFFFFFFFFFFFFFFFFFFFFFFFF AND PUSH4 0xDC2379B9 DUP6 PUSH3 0xAE9 JUMPI PUSH1 0xB SLOAD PUSH3 0xAFA JUMP JUMPDEST DUP5 PUSH1 0xB SLOAD PUSH3 0xAF9 SWAP2 SWAP1 PUSH3 0x1FFF JUMP JUMPDEST JUMPDEST DUP14 DUP5 PUSH1 0x7 SLOAD PUSH1 0x8 SLOAD PUSH1 0x40 MLOAD DUP7 PUSH4 0xFFFFFFFF AND PUSH1 0xE0 SHL DUP2 MSTORE PUSH1 0x4 ADD PUSH3 0xB23 SWAP5 SWAP4 SWAP3 SWAP2 SWAP1 PUSH3 0x21E0 JUMP JUMPDEST PUSH1 0x20 PUSH1 0x40 MLOAD DUP1 DUP4 SUB DUP2 DUP6 DUP9 GAS CALL ISZERO DUP1 ISZERO PUSH3 0xB42 JUMPI RETURNDATASIZE PUSH1 0x0 DUP1 RETURNDATACOPY RETURNDATASIZE PUSH1 0x0 REVERT JUMPDEST POP POP POP POP POP PUSH1 0x40 MLOAD RETURNDATASIZE PUSH1 0x1F NOT PUSH1 0x1F DUP3 ADD AND DUP3 ADD DUP1 PUSH1 0x40 MSTORE POP DUP2 ADD SWAP1 PUSH3 0xB69 SWAP2 SWAP1 PUSH3 0x224B JUMP JUMPDEST POP POP POP POP POP POP POP POP POP POP POP POP JUMP JUMPDEST PUSH1 0x0 CALLER PUSH1 0x0 PUSH20 0xFFFFFFFFFFFFFFFFFFFFFFFFFFFFFFFFFFFFFFFF AND PUSH1 0x5 PUSH1 0x0 DUP4 PUSH20 0xFFFFFFFFFFFFFFFFFFFFFFFFFFFFFFFFFFFFFFFF AND PUSH20 0xFFFFFFFFFFFFFFFFFFFFFFFFFFFFFFFFFFFFFFFF AND DUP2 MSTORE PUSH1 0x20 ADD SWAP1 DUP2 MSTORE PUSH1 0x20 ADD PUSH1 0x0 KECCAK256 PUSH1 0x0 SWAP1 SLOAD SWAP1 PUSH2 0x100 EXP SWAP1 DIV PUSH20 0xFFFFFFFFFFFFFFFFFFFFFFFFFFFFFFFFFFFFFFFF AND PUSH20 0xFFFFFFFFFFFFFFFFFFFFFFFFFFFFFFFFFFFFFFFF AND SUB PUSH3 0xC40 JUMPI PUSH1 0x40 MLOAD PUSH32 0x2163950F00000000000000000000000000000000000000000000000000000000 DUP2 MSTORE PUSH1 0x4 ADD PUSH1 0x40 MLOAD DUP1 SWAP2 SUB SWAP1 REVERT JUMPDEST PUSH1 0x0 PUSH1 0x5 PUSH1 0x0 CALLER PUSH20 0xFFFFFFFFFFFFFFFFFFFFFFFFFFFFFFFFFFFFFFFF AND PUSH20 0xFFFFFFFFFFFFFFFFFFFFFFFFFFFFFFFFFFFFFFFF AND DUP2 MSTORE PUSH1 0x20 ADD SWAP1 DUP2 MSTORE PUSH1 0x20 ADD PUSH1 0x0 KECCAK256 PUSH1 0x0 SWAP1 SLOAD SWAP1 PUSH2 0x100 EXP SWAP1 DIV PUSH20 0xFFFFFFFFFFFFFFFFFFFFFFFFFFFFFFFFFFFFFFFF AND SWAP1 POP DUP1 PUSH20 0xFFFFFFFFFFFFFFFFFFFFFFFFFFFFFFFFFFFFFFFF AND PUSH4 0x372F9101 DUP6 PUSH1 0x40 MLOAD DUP3 PUSH4 0xFFFFFFFF AND PUSH1 0xE0 SHL DUP2 MSTORE PUSH1 0x4 ADD PUSH3 0xCDF SWAP2 SWAP1 PUSH3 0x212A JUMP JUMPDEST PUSH1 0x0 PUSH1 0x40 MLOAD DUP1 DUP4 SUB DUP2 PUSH1 0x0 DUP8 GAS CALL ISZERO DUP1 ISZERO PUSH3 0xCFF JUMPI RETURNDATASIZE PUSH1 0x0 DUP1 RETURNDATACOPY RETURNDATASIZE PUSH1 0x0 REVERT JUMPDEST POP POP POP POP PUSH1 0x40 MLOAD RETURNDATASIZE PUSH1 0x0 DUP3 RETURNDATACOPY RETURNDATASIZE PUSH1 0x1F NOT PUSH1 0x1F DUP3 ADD AND DUP3 ADD DUP1 PUSH1 0x40 MSTORE POP DUP2 ADD SWAP1 PUSH3 0xD2A SWAP2 SWAP1 PUSH3 0x22FB JUMP JUMPDEST POP PUSH1 0x1 SWAP3 POP POP POP SWAP2 SWAP1 POP JUMP JUMPDEST PUSH1 0x7 SLOAD DUP2 JUMP JUMPDEST CALLER PUSH1 0x0 PUSH20 0xFFFFFFFFFFFFFFFFFFFFFFFFFFFFFFFFFFFFFFFF AND PUSH1 0x5 PUSH1 0x0 DUP4 PUSH20 0xFFFFFFFFFFFFFFFFFFFFFFFFFFFFFFFFFFFFFFFF AND PUSH20 0xFFFFFFFFFFFFFFFFFFFFFFFFFFFFFFFFFFFFFFFF AND DUP2 MSTORE PUSH1 0x20 ADD SWAP1 DUP2 MSTORE PUSH1 0x20 ADD PUSH1 0x0 KECCAK256 PUSH1 0x0 SWAP1 SLOAD SWAP1 PUSH2 0x100 EXP SWAP1 DIV PUSH20 0xFFFFFFFFFFFFFFFFFFFFFFFFFFFFFFFFFFFFFFFF AND PUSH20 0xFFFFFFFFFFFFFFFFFFFFFFFFFFFFFFFFFFFFFFFF AND SUB PUSH3 0xE03 JUMPI PUSH1 0x40 MLOAD PUSH32 0x2163950F00000000000000000000000000000000000000000000000000000000 DUP2 MSTORE PUSH1 0x4 ADD PUSH1 0x40 MLOAD DUP1 SWAP2 SUB SWAP1 REVERT JUMPDEST PUSH1 0xA SLOAD CALLVALUE LT ISZERO PUSH3 0xE40 JUMPI PUSH1 0x40 MLOAD PUSH32 0xD0C279A200000000000000000000000000000000000000000000000000000000 DUP2 MSTORE PUSH1 0x4 ADD PUSH1 0x40 MLOAD DUP1 SWAP2 SUB SWAP1 REVERT JUMPDEST DUP6 TIMESTAMP GT ISZERO PUSH3 0xE7B JUMPI PUSH1 0x40 MLOAD PUSH32 0x6F7EAC2600000000000000000000000000000000000000000000000000000000 DUP2 MSTORE PUSH1 0x4 ADD PUSH1 0x40 MLOAD DUP1 SWAP2 SUB SWAP1 REVERT JUMPDEST DUP4 ISZERO PUSH3 0xEBF JUMPI PUSH1 0x40 MLOAD PUSH32 0x329E2F1500000000000000000000000000000000000000000000000000000000 DUP2 MSTORE PUSH1 0x4 ADD PUSH3 0xEB6 SWAP1 PUSH3 0x239C JUMP JUMPDEST PUSH1 0x40 MLOAD DUP1 SWAP2 SUB SWAP1 REVERT JUMPDEST PUSH1 0x0 PUSH3 0xECC CALLER PUSH3 0x16E8 JUMP JUMPDEST SWAP1 POP PUSH1 0x0 PUSH3 0xEDD DUP5 DUP7 DUP5 PUSH3 0x1584 JUMP JUMPDEST SWAP1 POP PUSH1 0x0 DUP3 SWAP1 POP DUP1 PUSH20 0xFFFFFFFFFFFFFFFFFFFFFFFFFFFFFFFFFFFFFFFF AND PUSH4 0x436D4A6D PUSH1 0x0 PUSH20 0xFFFFFFFFFFFFFFFFFFFFFFFFFFFFFFFFFFFFFFFF AND DUP9 PUSH20 0xFFFFFFFFFFFFFFFFFFFFFFFFFFFFFFFFFFFFFFFF AND EQ PUSH3 0xF3E JUMPI PUSH1 0xB SLOAD PUSH3 0xF4F JUMP JUMPDEST DUP4 PUSH1 0xB SLOAD PUSH3 0xF4E SWAP2 SWAP1 PUSH3 0x1FFF JUMP JUMPDEST JUMPDEST DUP13 DUP13 TIMESTAMP DUP14 DUP13 DUP10 DUP16 PUSH1 0x7 SLOAD PUSH1 0x8 SLOAD PUSH1 0x40 MLOAD DUP12 PUSH4 0xFFFFFFFF AND PUSH1 0xE0 SHL DUP2 MSTORE PUSH1 0x4 ADD PUSH3 0xF82 SWAP10 SWAP9 SWAP8 SWAP7 SWAP6 SWAP5 SWAP4 SWAP3 SWAP2 SWAP1 PUSH3 0x23CF JUMP JUMPDEST PUSH1 0x20 PUSH1 0x40 MLOAD DUP1 DUP4 SUB DUP2 DUP6 DUP9 GAS CALL ISZERO DUP1 ISZERO PUSH3 0xFA1 JUMPI RETURNDATASIZE PUSH1 0x0 DUP1 RETURNDATACOPY RETURNDATASIZE PUSH1 0x0 REVERT JUMPDEST POP POP POP POP POP PUSH1 0x40 MLOAD RETURNDATASIZE PUSH1 0x1F NOT PUSH1 0x1F DUP3 ADD AND DUP3 ADD DUP1 PUSH1 0x40 MSTORE POP DUP2 ADD SWAP1 PUSH3 0xFC8 SWAP2 SWAP1 PUSH3 0x224B JUMP JUMPDEST POP DUP10 PUSH1 0x40 MLOAD PUSH3 0xFD9 SWAP2 SWAP1 PUSH3 0x24B7 JUMP JUMPDEST PUSH1 0x40 MLOAD DUP1 SWAP2 SUB SWAP1 KECCAK256 PUSH32 0x4AD85A69286191006EA05981AE1848070DBF232E5E00FFDDA4B857C16097F0D7 DUP4 DUP9 PUSH1 0x40 MLOAD PUSH3 0x1014 SWAP3 SWAP2 SWAP1 PUSH3 0x24D0 JUMP JUMPDEST PUSH1 0x40 MLOAD DUP1 SWAP2 SUB SWAP1 LOG2 POP POP POP POP POP POP POP POP POP POP JUMP JUMPDEST PUSH1 0x3 SLOAD DUP2 JUMP JUMPDEST PUSH1 0x2 PUSH1 0x0 SWAP1 SLOAD SWAP1 PUSH2 0x100 EXP SWAP1 DIV PUSH20 0xFFFFFFFFFFFFFFFFFFFFFFFFFFFFFFFFFFFFFFFF AND PUSH20 0xFFFFFFFFFFFFFFFFFFFFFFFFFFFFFFFFFFFFFFFF AND CALLER PUSH20 0xFFFFFFFFFFFFFFFFFFFFFFFFFFFFFFFFFFFFFFFF AND EQ PUSH3 0x10B6 JUMPI PUSH1 0x40 MLOAD PUSH32 0x33662B3400000000000000000000000000000000000000000000000000000000 DUP2 MSTORE PUSH1 0x4 ADD PUSH1 0x40 MLOAD DUP1 SWAP2 SUB SWAP1 REVERT JUMPDEST DUP3 PUSH1 0x7 DUP2 SWAP1 SSTORE POP DUP2 PUSH1 0x8 DUP2 SWAP1 SSTORE POP PUSH1 0x0 PUSH20 0xFFFFFFFFFFFFFFFFFFFFFFFFFFFFFFFFFFFFFFFF AND DUP2 PUSH20 0xFFFFFFFFFFFFFFFFFFFFFFFFFFFFFFFFFFFFFFFF AND EQ PUSH3 0x113B JUMPI DUP1 PUSH1 0x1 PUSH1 0x0 PUSH2 0x100 EXP DUP2 SLOAD DUP2 PUSH20 0xFFFFFFFFFFFFFFFFFFFFFFFFFFFFFFFFFFFFFFFF MUL NOT AND SWAP1 DUP4 PUSH20 0xFFFFFFFFFFFFFFFFFFFFFFFFFFFFFFFFFFFFFFFF AND MUL OR SWAP1 SSTORE POP JUMPDEST POP POP POP JUMP JUMPDEST PUSH1 0x9 SLOAD DUP2 JUMP JUMPDEST PUSH1 0x0 DUP1 SLOAD SWAP1 PUSH2 0x100 EXP SWAP1 DIV PUSH20 0xFFFFFFFFFFFFFFFFFFFFFFFFFFFFFFFFFFFFFFFF AND DUP2 JUMP JUMPDEST PUSH1 0x2 PUSH1 0x0 SWAP1 SLOAD SWAP1 PUSH2 0x100 EXP SWAP1 DIV PUSH20 0xFFFFFFFFFFFFFFFFFFFFFFFFFFFFFFFFFFFFFFFF AND PUSH20 0xFFFFFFFFFFFFFFFFFFFFFFFFFFFFFFFFFFFFFFFF AND CALLER PUSH20 0xFFFFFFFFFFFFFFFFFFFFFFFFFFFFFFFFFFFFFFFF AND EQ PUSH3 0x11F2 JUMPI PUSH1 0x40 MLOAD PUSH32 0x33662B3400000000000000000000000000000000000000000000000000000000 DUP2 MSTORE PUSH1 0x4 ADD PUSH1 0x40 MLOAD DUP1 SWAP2 SUB SWAP1 REVERT JUMPDEST PUSH1 0x0 PUSH20 0xFFFFFFFFFFFFFFFFFFFFFFFFFFFFFFFFFFFFFFFF AND DUP2 PUSH20 0xFFFFFFFFFFFFFFFFFFFFFFFFFFFFFFFFFFFFFFFF AND EQ PUSH3 0x1268 JUMPI DUP1 PUSH1 0x0 DUP1 PUSH2 0x100 EXP DUP2 SLOAD DUP2 PUSH20 0xFFFFFFFFFFFFFFFFFFFFFFFFFFFFFFFFFFFFFFFF MUL NOT AND SWAP1 DUP4 PUSH20 0xFFFFFFFFFFFFFFFFFFFFFFFFFFFFFFFFFFFFFFFF AND MUL OR SWAP1 SSTORE POP JUMPDEST POP JUMP JUMPDEST PUSH1 0xB SLOAD DUP2 JUMP JUMPDEST PUSH1 0x2 PUSH1 0x0 SWAP1 SLOAD SWAP1 PUSH2 0x100 EXP SWAP1 DIV PUSH20 0xFFFFFFFFFFFFFFFFFFFFFFFFFFFFFFFFFFFFFFFF AND DUP2 JUMP JUMPDEST PUSH1 0x2 PUSH1 0x0 SWAP1 SLOAD SWAP1 PUSH2 0x100 EXP SWAP1 DIV PUSH20 0xFFFFFFFFFFFFFFFFFFFFFFFFFFFFFFFFFFFFFFFF AND PUSH20 0xFFFFFFFFFFFFFFFFFFFFFFFFFFFFFFFFFFFFFFFF AND CALLER PUSH20 0xFFFFFFFFFFFFFFFFFFFFFFFFFFFFFFFFFFFFFFFF AND EQ PUSH3 0x131F JUMPI PUSH1 0x40 MLOAD PUSH32 0x33662B3400000000000000000000000000000000000000000000000000000000 DUP2 MSTORE PUSH1 0x4 ADD PUSH1 0x40 MLOAD DUP1 SWAP2 SUB SWAP1 REVERT JUMPDEST PUSH1 0x0 SELFBALANCE SWAP1 POP PUSH1 0x4 SLOAD DUP2 GT ISZERO PUSH3 0x13A9 JUMPI PUSH1 0x2 PUSH1 0x0 SWAP1 SLOAD SWAP1 PUSH2 0x100 EXP SWAP1 DIV PUSH20 0xFFFFFFFFFFFFFFFFFFFFFFFFFFFFFFFFFFFFFFFF AND PUSH20 0xFFFFFFFFFFFFFFFFFFFFFFFFFFFFFFFFFFFFFFFF AND PUSH2 0x8FC PUSH1 0x4 SLOAD DUP4 PUSH3 0x137B SWAP2 SWAP1 PUSH3 0x24FD JUMP JUMPDEST SWAP1 DUP2 ISZERO MUL SWAP1 PUSH1 0x40 MLOAD PUSH1 0x0 PUSH1 0x40 MLOAD DUP1 DUP4 SUB DUP2 DUP6 DUP9 DUP9 CALL SWAP4 POP POP POP POP ISZERO DUP1 ISZERO PUSH3 0x13A7 JUMPI RETURNDATASIZE PUSH1 0x0 DUP1 RETURNDATACOPY RETURNDATASIZE PUSH1 0x0 REVERT JUMPDEST POP JUMPDEST POP JUMP JUMPDEST PUSH1 0x0 DUP2 PUSH1 0x0 PUSH1 0x5 PUSH1 0x0 DUP4 PUSH20 0xFFFFFFFFFFFFFFFFFFFFFFFFFFFFFFFFFFFFFFFF AND PUSH20 0xFFFFFFFFFFFFFFFFFFFFFFFFFFFFFFFFFFFFFFFF AND DUP2 MSTORE PUSH1 0x20 ADD SWAP1 DUP2 MSTORE PUSH1 0x20 ADD PUSH1 0x0 KECCAK256 PUSH1 0x0 SWAP1 SLOAD SWAP1 PUSH2 0x100 EXP SWAP1 DIV PUSH20 0xFFFFFFFFFFFFFFFFFFFFFFFFFFFFFFFFFFFFFFFF AND SWAP1 POP PUSH1 0x0 PUSH20 0xFFFFFFFFFFFFFFFFFFFFFFFFFFFFFFFFFFFFFFFF AND DUP2 PUSH20 0xFFFFFFFFFFFFFFFFFFFFFFFFFFFFFFFFFFFFFFFF AND EQ DUP1 PUSH3 0x147B JUMPI POP CALLER PUSH20 0xFFFFFFFFFFFFFFFFFFFFFFFFFFFFFFFFFFFFFFFF AND DUP2 PUSH20 0xFFFFFFFFFFFFFFFFFFFFFFFFFFFFFFFFFFFFFFFF AND EQ ISZERO JUMPDEST ISZERO PUSH3 0x14B3 JUMPI PUSH1 0x40 MLOAD PUSH32 0x229E1DBD00000000000000000000000000000000000000000000000000000000 DUP2 MSTORE PUSH1 0x4 ADD PUSH1 0x40 MLOAD DUP1 SWAP2 SUB SWAP1 REVERT JUMPDEST PUSH3 0x14E0 CALLER PUSH1 0x0 DUP1 SLOAD SWAP1 PUSH2 0x100 EXP SWAP1 DIV PUSH20 0xFFFFFFFFFFFFFFFFFFFFFFFFFFFFFFFFFFFFFFFF AND DUP8 PUSH3 0x1751 JUMP JUMPDEST SWAP3 POP POP POP SWAP4 SWAP3 POP POP POP JUMP JUMPDEST PUSH1 0x1 PUSH1 0x0 SWAP1 SLOAD SWAP1 PUSH2 0x100 EXP SWAP1 DIV PUSH20 0xFFFFFFFFFFFFFFFFFFFFFFFFFFFFFFFFFFFFFFFF AND DUP2 JUMP JUMPDEST PUSH1 0x0 PUSH1 0x5 PUSH1 0x0 CALLER PUSH20 0xFFFFFFFFFFFFFFFFFFFFFFFFFFFFFFFFFFFFFFFF AND PUSH20 0xFFFFFFFFFFFFFFFFFFFFFFFFFFFFFFFFFFFFFFFF AND DUP2 MSTORE PUSH1 0x20 ADD SWAP1 DUP2 MSTORE PUSH1 0x20 ADD PUSH1 0x0 KECCAK256 PUSH1 0x0 SWAP1 SLOAD SWAP1 PUSH2 0x100 EXP SWAP1 DIV PUSH20 0xFFFFFFFFFFFFFFFFFFFFFFFFFFFFFFFFFFFFFFFF AND SWAP1 POP SWAP1 JUMP JUMPDEST PUSH1 0x4 SLOAD DUP2 JUMP JUMPDEST PUSH1 0xA SLOAD DUP2 JUMP JUMPDEST PUSH1 0x0 DUP1 PUSH20 0xFFFFFFFFFFFFFFFFFFFFFFFFFFFFFFFFFFFFFFFF AND DUP4 PUSH20 0xFFFFFFFFFFFFFFFFFFFFFFFFFFFFFFFFFFFFFFFF AND EQ PUSH3 0x16CB JUMPI PUSH1 0x0 PUSH3 0x15C9 CALLER DUP6 DUP8 PUSH3 0x1751 JUMP JUMPDEST SWAP1 POP DUP1 PUSH3 0x160E JUMPI PUSH1 0x40 MLOAD PUSH32 0xEC86672900000000000000000000000000000000000000000000000000000000 DUP2 MSTORE PUSH1 0x4 ADD PUSH3 0x1605 SWAP1 PUSH3 0x2588 JUMP JUMPDEST PUSH1 0x40 MLOAD DUP1 SWAP2 SUB SWAP1 REVERT JUMPDEST ADDRESS PUSH20 0xFFFFFFFFFFFFFFFFFFFFFFFFFFFFFFFFFFFFFFFF AND CALLER PUSH20 0xFFFFFFFFFFFFFFFFFFFFFFFFFFFFFFFFFFFFFFFF AND PUSH32 0x42856D0378DDE02337BB59AE41747ABC77DED8EBDBBC5CBDD1E53693B7554938 DUP8 PUSH1 0x40 MLOAD PUSH3 0x166D SWAP2 SWAP1 PUSH3 0x1963 JUMP JUMPDEST PUSH1 0x40 MLOAD DUP1 SWAP2 SUB SWAP1 LOG3 PUSH3 0x1682 DUP4 DUP7 DUP7 PUSH3 0x18A7 JUMP JUMPDEST PUSH3 0x16C4 JUMPI PUSH1 0x40 MLOAD PUSH32 0x8C379A000000000000000000000000000000000000000000000000000000000 DUP2 MSTORE PUSH1 0x4 ADD PUSH3 0x16BB SWAP1 PUSH3 0x25FA JUMP JUMPDEST PUSH1 0x40 MLOAD DUP1 SWAP2 SUB SWAP1 REVERT JUMPDEST POP PUSH3 0x16DE JUMP JUMPDEST PUSH1 0xA SLOAD CALLVALUE PUSH3 0x16DB SWAP2 SWAP1 PUSH3 0x24FD JUMP JUMPDEST SWAP4 POP JUMPDEST DUP4 SWAP1 POP SWAP4 SWAP3 POP POP POP JUMP JUMPDEST PUSH1 0x0 PUSH1 0x5 PUSH1 0x0 DUP4 PUSH20 0xFFFFFFFFFFFFFFFFFFFFFFFFFFFFFFFFFFFFFFFF AND PUSH20 0xFFFFFFFFFFFFFFFFFFFFFFFFFFFFFFFFFFFFFFFF AND DUP2 MSTORE PUSH1 0x20 ADD SWAP1 DUP2 MSTORE PUSH1 0x20 ADD PUSH1 0x0 KECCAK256 PUSH1 0x0 SWAP1 SLOAD SWAP1 PUSH2 0x100 EXP SWAP1 DIV PUSH20 0xFFFFFFFFFFFFFFFFFFFFFFFFFFFFFFFFFFFFFFFF AND SWAP1 POP SWAP2 SWAP1 POP JUMP JUMPDEST PUSH1 0x0 DUP2 DUP4 PUSH20 0xFFFFFFFFFFFFFFFFFFFFFFFFFFFFFFFFFFFFFFFF AND PUSH4 0xDD62ED3E DUP7 ADDRESS PUSH1 0x40 MLOAD DUP4 PUSH4 0xFFFFFFFF AND PUSH1 0xE0 SHL DUP2 MSTORE PUSH1 0x4 ADD PUSH3 0x1791 SWAP3 SWAP2 SWAP1 PUSH3 0x1FA3 JUMP JUMPDEST PUSH1 0x20 PUSH1 0x40 MLOAD DUP1 DUP4 SUB DUP2 DUP7 GAS STATICCALL ISZERO DUP1 ISZERO PUSH3 0x17AF JUMPI RETURNDATASIZE PUSH1 0x0 DUP1 RETURNDATACOPY RETURNDATASIZE PUSH1 0x0 REVERT JUMPDEST POP POP POP POP PUSH1 0x40 MLOAD RETURNDATASIZE PUSH1 0x1F NOT PUSH1 0x1F DUP3 ADD AND DUP3 ADD DUP1 PUSH1 0x40 MSTORE POP DUP2 ADD SWAP1 PUSH3 0x17D5 SWAP2 SWAP1 PUSH3 0x224B JUMP JUMPDEST LT ISZERO PUSH3 0x1819 JUMPI PUSH1 0x40 MLOAD PUSH32 0x8C379A000000000000000000000000000000000000000000000000000000000 DUP2 MSTORE PUSH1 0x4 ADD PUSH3 0x1810 SWAP1 PUSH3 0x266C JUMP JUMPDEST PUSH1 0x40 MLOAD DUP1 SWAP2 SUB SWAP1 REVERT JUMPDEST DUP3 PUSH20 0xFFFFFFFFFFFFFFFFFFFFFFFFFFFFFFFFFFFFFFFF AND PUSH4 0x23B872DD DUP6 ADDRESS DUP6 PUSH1 0x40 MLOAD DUP5 PUSH4 0xFFFFFFFF AND PUSH1 0xE0 SHL DUP2 MSTORE PUSH1 0x4 ADD PUSH3 0x1858 SWAP4 SWAP3 SWAP2 SWAP1 PUSH3 0x268E JUMP JUMPDEST PUSH1 0x20 PUSH1 0x40 MLOAD DUP1 DUP4 SUB DUP2 PUSH1 0x0 DUP8 GAS CALL ISZERO DUP1 ISZERO PUSH3 0x1878 JUMPI RETURNDATASIZE PUSH1 0x0 DUP1 RETURNDATACOPY RETURNDATASIZE PUSH1 0x0 REVERT JUMPDEST POP POP POP POP PUSH1 0x40 MLOAD RETURNDATASIZE PUSH1 0x1F NOT PUSH1 0x1F DUP3 ADD AND DUP3 ADD DUP1 PUSH1 0x40 MSTORE POP DUP2 ADD SWAP1 PUSH3 0x189E SWAP2 SWAP1 PUSH3 0x21AE JUMP JUMPDEST SWAP1 POP SWAP4 SWAP3 POP POP POP JUMP JUMPDEST PUSH1 0x0 DUP1 DUP3 SWAP1 POP DUP1 PUSH20 0xFFFFFFFFFFFFFFFFFFFFFFFFFFFFFFFFFFFFFFFF AND PUSH4 0x95EA7B3 DUP7 DUP7 PUSH1 0x40 MLOAD DUP4 PUSH4 0xFFFFFFFF AND PUSH1 0xE0 SHL DUP2 MSTORE PUSH1 0x4 ADD PUSH3 0x18EA SWAP3 SWAP2 SWAP1 PUSH3 0x26CB JUMP JUMPDEST PUSH1 0x20 PUSH1 0x40 MLOAD DUP1 DUP4 SUB DUP2 PUSH1 0x0 DUP8 GAS CALL ISZERO DUP1 ISZERO PUSH3 0x190A JUMPI RETURNDATASIZE PUSH1 0x0 DUP1 RETURNDATACOPY RETURNDATASIZE PUSH1 0x0 REVERT JUMPDEST POP POP POP POP PUSH1 0x40 MLOAD RETURNDATASIZE PUSH1 0x1F NOT PUSH1 0x1F DUP3 ADD AND DUP3 ADD DUP1 PUSH1 0x40 MSTORE POP DUP2 ADD SWAP1 PUSH3 0x1930 SWAP2 SWAP1 PUSH3 0x21AE JUMP JUMPDEST SWAP2 POP POP SWAP4 SWAP3 POP POP POP JUMP JUMPDEST PUSH2 0x2D70 DUP1 PUSH3 0x26F9 DUP4 CODECOPY ADD SWAP1 JUMP JUMPDEST PUSH1 0x0 DUP2 SWAP1 POP SWAP2 SWAP1 POP JUMP JUMPDEST PUSH3 0x195D DUP2 PUSH3 0x1948 JUMP JUMPDEST DUP3 MSTORE POP POP JUMP JUMPDEST PUSH1 0x0 PUSH1 0x20 DUP3 ADD SWAP1 POP PUSH3 0x197A PUSH1 0x0 DUP4 ADD DUP5 PUSH3 0x1952 JUMP JUMPDEST SWAP3 SWAP2 POP POP JUMP JUMPDEST PUSH1 0x0 PUSH20 0xFFFFFFFFFFFFFFFFFFFFFFFFFFFFFFFFFFFFFFFF DUP3 AND SWAP1 POP SWAP2 SWAP1 POP JUMP JUMPDEST PUSH1 0x0 PUSH3 0x19AD DUP3 PUSH3 0x1980 JUMP JUMPDEST SWAP1 POP SWAP2 SWAP1 POP JUMP JUMPDEST PUSH3 0x19BF DUP2 PUSH3 0x19A0 JUMP JUMPDEST DUP3 MSTORE POP POP JUMP JUMPDEST PUSH1 0x0 PUSH1 0x20 DUP3 ADD SWAP1 POP PUSH3 0x19DC PUSH1 0x0 DUP4 ADD DUP5 PUSH3 0x19B4 JUMP JUMPDEST SWAP3 SWAP2 POP POP JUMP JUMPDEST PUSH1 0x0 PUSH1 0x40 MLOAD SWAP1 POP SWAP1 JUMP JUMPDEST PUSH1 0x0 DUP1 REVERT JUMPDEST PUSH1 0x0 DUP1 REVERT JUMPDEST PUSH3 0x1A01 DUP2 PUSH3 0x1948 JUMP JUMPDEST DUP2 EQ PUSH3 0x1A0D JUMPI PUSH1 0x0 DUP1 REVERT JUMPDEST POP JUMP JUMPDEST PUSH1 0x0 DUP2 CALLDATALOAD SWAP1 POP PUSH3 0x1A21 DUP2 PUSH3 0x19F6 JUMP JUMPDEST SWAP3 SWAP2 POP POP JUMP JUMPDEST PUSH1 0x0 DUP1 PUSH1 0x40 DUP4 DUP6 SUB SLT ISZERO PUSH3 0x1A41 JUMPI PUSH3 0x1A40 PUSH3 0x19EC JUMP JUMPDEST JUMPDEST PUSH1 0x0 PUSH3 0x1A51 DUP6 DUP3 DUP7 ADD PUSH3 0x1A10 JUMP JUMPDEST SWAP3 POP POP PUSH1 0x20 PUSH3 0x1A64 DUP6 DUP3 DUP7 ADD PUSH3 0x1A10 JUMP JUMPDEST SWAP2 POP POP SWAP3 POP SWAP3 SWAP1 POP JUMP JUMPDEST PUSH1 0x0 DUP1 REVERT JUMPDEST PUSH1 0x0 DUP1 REVERT JUMPDEST PUSH1 0x0 PUSH1 0x1F NOT PUSH1 0x1F DUP4 ADD AND SWAP1 POP SWAP2 SWAP1 POP JUMP JUMPDEST PUSH32 0x4E487B7100000000000000000000000000000000000000000000000000000000 PUSH1 0x0 MSTORE PUSH1 0x41 PUSH1 0x4 MSTORE PUSH1 0x24 PUSH1 0x0 REVERT JUMPDEST PUSH3 0x1AC3 DUP3 PUSH3 0x1A78 JUMP JUMPDEST DUP2 ADD DUP2 DUP2 LT PUSH8 0xFFFFFFFFFFFFFFFF DUP3 GT OR ISZERO PUSH3 0x1AE5 JUMPI PUSH3 0x1AE4 PUSH3 0x1A89 JUMP JUMPDEST JUMPDEST DUP1 PUSH1 0x40 MSTORE POP POP POP JUMP JUMPDEST PUSH1 0x0 PUSH3 0x1AFA PUSH3 0x19E2 JUMP JUMPDEST SWAP1 POP PUSH3 0x1B08 DUP3 DUP3 PUSH3 0x1AB8 JUMP JUMPDEST SWAP2 SWAP1 POP JUMP JUMPDEST PUSH1 0x0 PUSH8 0xFFFFFFFFFFFFFFFF DUP3 GT ISZERO PUSH3 0x1B2B JUMPI PUSH3 0x1B2A PUSH3 0x1A89 JUMP JUMPDEST JUMPDEST PUSH3 0x1B36 DUP3 PUSH3 0x1A78 JUMP JUMPDEST SWAP1 POP PUSH1 0x20 DUP2 ADD SWAP1 POP SWAP2 SWAP1 POP JUMP JUMPDEST DUP3 DUP2 DUP4 CALLDATACOPY PUSH1 0x0 DUP4 DUP4 ADD MSTORE POP POP POP JUMP JUMPDEST PUSH1 0x0 PUSH3 0x1B69 PUSH3 0x1B63 DUP5 PUSH3 0x1B0D JUMP JUMPDEST PUSH3 0x1AEE JUMP JUMPDEST SWAP1 POP DUP3 DUP2 MSTORE PUSH1 0x20 DUP2 ADD DUP5 DUP5 DUP5 ADD GT ISZERO PUSH3 0x1B88 JUMPI PUSH3 0x1B87 PUSH3 0x1A73 JUMP JUMPDEST JUMPDEST PUSH3 0x1B95 DUP5 DUP3 DUP6 PUSH3 0x1B43 JUMP JUMPDEST POP SWAP4 SWAP3 POP POP POP JUMP JUMPDEST PUSH1 0x0 DUP3 PUSH1 0x1F DUP4 ADD SLT PUSH3 0x1BB5 JUMPI PUSH3 0x1BB4 PUSH3 0x1A6E JUMP JUMPDEST JUMPDEST DUP2 CALLDATALOAD PUSH3 0x1BC7 DUP5 DUP3 PUSH1 0x20 DUP7 ADD PUSH3 0x1B52 JUMP JUMPDEST SWAP2 POP POP SWAP3 SWAP2 POP POP JUMP JUMPDEST PUSH3 0x1BDB DUP2 PUSH3 0x19A0 JUMP JUMPDEST DUP2 EQ PUSH3 0x1BE7 JUMPI PUSH1 0x0 DUP1 REVERT JUMPDEST POP JUMP JUMPDEST PUSH1 0x0 DUP2 CALLDATALOAD SWAP1 POP PUSH3 0x1BFB DUP2 PUSH3 0x1BD0 JUMP JUMPDEST SWAP3 SWAP2 POP POP JUMP JUMPDEST PUSH1 0x0 DUP1 PUSH1 0x0 PUSH1 0x60 DUP5 DUP7 SUB SLT ISZERO PUSH3 0x1C1D JUMPI PUSH3 0x1C1C PUSH3 0x19EC JUMP JUMPDEST JUMPDEST PUSH1 0x0 DUP5 ADD CALLDATALOAD PUSH8 0xFFFFFFFFFFFFFFFF DUP2 GT ISZERO PUSH3 0x1C3E JUMPI PUSH3 0x1C3D PUSH3 0x19F1 JUMP JUMPDEST JUMPDEST PUSH3 0x1C4C DUP7 DUP3 DUP8 ADD PUSH3 0x1B9D JUMP JUMPDEST SWAP4 POP POP PUSH1 0x20 PUSH3 0x1C5F DUP7 DUP3 DUP8 ADD PUSH3 0x1BEA JUMP JUMPDEST SWAP3 POP POP PUSH1 0x40 PUSH3 0x1C72 DUP7 DUP3 DUP8 ADD PUSH3 0x1A10 JUMP JUMPDEST SWAP2 POP POP SWAP3 POP SWAP3 POP SWAP3 JUMP JUMPDEST PUSH1 0x0 PUSH1 0x20 DUP3 DUP5 SUB SLT ISZERO PUSH3 0x1C95 JUMPI PUSH3 0x1C94 PUSH3 0x19EC JUMP JUMPDEST JUMPDEST PUSH1 0x0 DUP3 ADD CALLDATALOAD PUSH8 0xFFFFFFFFFFFFFFFF DUP2 GT ISZERO PUSH3 0x1CB6 JUMPI PUSH3 0x1CB5 PUSH3 0x19F1 JUMP JUMPDEST JUMPDEST PUSH3 0x1CC4 DUP5 DUP3 DUP6 ADD PUSH3 0x1B9D JUMP JUMPDEST SWAP2 POP POP SWAP3 SWAP2 POP POP JUMP JUMPDEST PUSH1 0x0 DUP2 ISZERO ISZERO SWAP1 POP SWAP2 SWAP1 POP JUMP JUMPDEST PUSH3 0x1CE4 DUP2 PUSH3 0x1CCD JUMP JUMPDEST DUP3 MSTORE POP POP JUMP JUMPDEST PUSH1 0x0 PUSH1 0x20 DUP3 ADD SWAP1 POP PUSH3 0x1D01 PUSH1 0x0 DUP4 ADD DUP5 PUSH3 0x1CD9 JUMP JUMPDEST SWAP3 SWAP2 POP POP JUMP JUMPDEST PUSH1 0x0 PUSH1 0xFF DUP3 AND SWAP1 POP SWAP2 SWAP1 POP JUMP JUMPDEST PUSH3 0x1D1F DUP2 PUSH3 0x1D07 JUMP JUMPDEST DUP2 EQ PUSH3 0x1D2B JUMPI PUSH1 0x0 DUP1 REVERT JUMPDEST POP JUMP JUMPDEST PUSH1 0x0 DUP2 CALLDATALOAD SWAP1 POP PUSH3 0x1D3F DUP2 PUSH3 0x1D14 JUMP JUMPDEST SWAP3 SWAP2 POP POP JUMP JUMPDEST PUSH3 0x1D50 DUP2 PUSH3 0x1CCD JUMP JUMPDEST DUP2 EQ PUSH3 0x1D5C JUMPI PUSH1 0x0 DUP1 REVERT JUMPDEST POP JUMP JUMPDEST PUSH1 0x0 DUP2 CALLDATALOAD SWAP1 POP PUSH3 0x1D70 DUP2 PUSH3 0x1D45 JUMP JUMPDEST SWAP3 SWAP2 POP POP JUMP JUMPDEST PUSH1 0x0 DUP1 PUSH1 0x0 DUP1 PUSH1 0x0 DUP1 PUSH1 0xC0 DUP8 DUP10 SUB SLT ISZERO PUSH3 0x1D96 JUMPI PUSH3 0x1D95 PUSH3 0x19EC JUMP JUMPDEST JUMPDEST PUSH1 0x0 DUP8 ADD CALLDATALOAD PUSH8 0xFFFFFFFFFFFFFFFF DUP2 GT ISZERO PUSH3 0x1DB7 JUMPI PUSH3 0x1DB6 PUSH3 0x19F1 JUMP JUMPDEST JUMPDEST PUSH3 0x1DC5 DUP10 DUP3 DUP11 ADD PUSH3 0x1B9D JUMP JUMPDEST SWAP7 POP POP PUSH1 0x20 PUSH3 0x1DD8 DUP10 DUP3 DUP11 ADD PUSH3 0x1A10 JUMP JUMPDEST SWAP6 POP POP PUSH1 0x40 PUSH3 0x1DEB DUP10 DUP3 DUP11 ADD PUSH3 0x1D2E JUMP JUMPDEST SWAP5 POP POP PUSH1 0x60 PUSH3 0x1DFE DUP10 DUP3 DUP11 ADD PUSH3 0x1D5F JUMP JUMPDEST SWAP4 POP POP PUSH1 0x80 PUSH3 0x1E11 DUP10 DUP3 DUP11 ADD PUSH3 0x1BEA JUMP JUMPDEST SWAP3 POP POP PUSH1 0xA0 PUSH3 0x1E24 DUP10 DUP3 DUP11 ADD PUSH3 0x1A10 JUMP JUMPDEST SWAP2 POP POP SWAP3 SWAP6 POP SWAP3 SWAP6 POP SWAP3 SWAP6 JUMP JUMPDEST PUSH1 0x0 DUP1 PUSH1 0x0 PUSH1 0x60 DUP5 DUP7 SUB SLT ISZERO PUSH3 0x1E4D JUMPI PUSH3 0x1E4C PUSH3 0x19EC JUMP JUMPDEST JUMPDEST PUSH1 0x0 PUSH3 0x1E5D DUP7 DUP3 DUP8 ADD PUSH3 0x1A10 JUMP JUMPDEST SWAP4 POP POP PUSH1 0x20 PUSH3 0x1E70 DUP7 DUP3 DUP8 ADD PUSH3 0x1A10 JUMP JUMPDEST SWAP3 POP POP PUSH1 0x40 PUSH3 0x1E83 DUP7 DUP3 DUP8 ADD PUSH3 0x1BEA JUMP JUMPDEST SWAP2 POP POP SWAP3 POP SWAP3 POP SWAP3 JUMP JUMPDEST PUSH1 0x0 DUP2 SWAP1 POP SWAP2 SWAP1 POP JUMP JUMPDEST PUSH1 0x0 PUSH3 0x1EB8 PUSH3 0x1EB2 PUSH3 0x1EAC DUP5 PUSH3 0x1980 JUMP JUMPDEST PUSH3 0x1E8D JUMP JUMPDEST PUSH3 0x1980 JUMP JUMPDEST SWAP1 POP SWAP2 SWAP1 POP JUMP JUMPDEST PUSH1 0x0 PUSH3 0x1ECC DUP3 PUSH3 0x1E97 JUMP JUMPDEST SWAP1 POP SWAP2 SWAP1 POP JUMP JUMPDEST PUSH1 0x0 PUSH3 0x1EE0 DUP3 PUSH3 0x1EBF JUMP JUMPDEST SWAP1 POP SWAP2 SWAP1 POP JUMP JUMPDEST PUSH3 0x1EF2 DUP2 PUSH3 0x1ED3 JUMP JUMPDEST DUP3 MSTORE POP POP JUMP JUMPDEST PUSH1 0x0 PUSH1 0x20 DUP3 ADD SWAP1 POP PUSH3 0x1F0F PUSH1 0x0 DUP4 ADD DUP5 PUSH3 0x1EE7 JUMP JUMPDEST SWAP3 SWAP2 POP POP JUMP JUMPDEST PUSH1 0x0 PUSH1 0x20 DUP3 DUP5 SUB SLT ISZERO PUSH3 0x1F2E JUMPI PUSH3 0x1F2D PUSH3 0x19EC JUMP JUMPDEST JUMPDEST PUSH1 0x0 PUSH3 0x1F3E DUP5 DUP3 DUP6 ADD PUSH3 0x1BEA JUMP JUMPDEST SWAP2 POP POP SWAP3 SWAP2 POP POP JUMP JUMPDEST PUSH1 0x0 DUP1 PUSH1 0x0 PUSH1 0x60 DUP5 DUP7 SUB SLT ISZERO PUSH3 0x1F63 JUMPI PUSH3 0x1F62 PUSH3 0x19EC JUMP JUMPDEST JUMPDEST PUSH1 0x0 PUSH3 0x1F73 DUP7 DUP3 DUP8 ADD PUSH3 0x1BEA JUMP JUMPDEST SWAP4 POP POP PUSH1 0x20 PUSH3 0x1F86 DUP7 DUP3 DUP8 ADD PUSH3 0x1A10 JUMP JUMPDEST SWAP3 POP POP PUSH1 0x40 PUSH3 0x1F99 DUP7 DUP3 DUP8 ADD PUSH3 0x1BEA JUMP JUMPDEST SWAP2 POP POP SWAP3 POP SWAP3 POP SWAP3 JUMP JUMPDEST PUSH1 0x0 PUSH1 0x40 DUP3 ADD SWAP1 POP PUSH3 0x1FBA PUSH1 0x0 DUP4 ADD DUP6 PUSH3 0x19B4 JUMP JUMPDEST PUSH3 0x1FC9 PUSH1 0x20 DUP4 ADD DUP5 PUSH3 0x19B4 JUMP JUMPDEST SWAP4 SWAP3 POP POP POP JUMP JUMPDEST PUSH32 0x4E487B7100000000000000000000000000000000000000000000000000000000 PUSH1 0x0 MSTORE PUSH1 0x11 PUSH1 0x4 MSTORE PUSH1 0x24 PUSH1 0x0 REVERT JUMPDEST PUSH1 0x0 PUSH3 0x200C DUP3 PUSH3 0x1948 JUMP JUMPDEST SWAP2 POP PUSH3 0x2019 DUP4 PUSH3 0x1948 JUMP JUMPDEST SWAP3 POP DUP3 DUP3 ADD SWAP1 POP DUP1 DUP3 GT ISZERO PUSH3 0x2034 JUMPI PUSH3 0x2033 PUSH3 0x1FD0 JUMP JUMPDEST JUMPDEST SWAP3 SWAP2 POP POP JUMP JUMPDEST PUSH32 0x4E487B7100000000000000000000000000000000000000000000000000000000 PUSH1 0x0 MSTORE PUSH1 0x12 PUSH1 0x4 MSTORE PUSH1 0x24 PUSH1 0x0 REVERT JUMPDEST PUSH1 0x0 PUSH3 0x2076 DUP3 PUSH3 0x1948 JUMP JUMPDEST SWAP2 POP PUSH3 0x2083 DUP4 PUSH3 0x1948 JUMP JUMPDEST SWAP3 POP DUP3 PUSH3 0x2096 JUMPI PUSH3 0x2095 PUSH3 0x203A JUMP JUMPDEST JUMPDEST DUP3 DUP3 DIV SWAP1 POP SWAP3 SWAP2 POP POP JUMP JUMPDEST PUSH1 0x0 DUP2 MLOAD SWAP1 POP SWAP2 SWAP1 POP JUMP JUMPDEST PUSH1 0x0 DUP3 DUP3 MSTORE PUSH1 0x20 DUP3 ADD SWAP1 POP SWAP3 SWAP2 POP POP JUMP JUMPDEST PUSH1 0x0 JUMPDEST DUP4 DUP2 LT ISZERO PUSH3 0x20DD JUMPI DUP1 DUP3 ADD MLOAD DUP2 DUP5 ADD MSTORE PUSH1 0x20 DUP2 ADD SWAP1 POP PUSH3 0x20C0 JUMP JUMPDEST PUSH1 0x0 DUP5 DUP5 ADD MSTORE POP POP POP POP JUMP JUMPDEST PUSH1 0x0 PUSH3 0x20F6 DUP3 PUSH3 0x20A1 JUMP JUMPDEST PUSH3 0x2102 DUP2 DUP6 PUSH3 0x20AC JUMP JUMPDEST SWAP4 POP PUSH3 0x2114 DUP2 DUP6 PUSH1 0x20 DUP7 ADD PUSH3 0x20BD JUMP JUMPDEST PUSH3 0x211F DUP2 PUSH3 0x1A78 JUMP JUMPDEST DUP5 ADD SWAP2 POP POP SWAP3 SWAP2 POP POP JUMP JUMPDEST PUSH1 0x0 PUSH1 0x20 DUP3 ADD SWAP1 POP DUP2 DUP2 SUB PUSH1 0x0 DUP4 ADD MSTORE PUSH3 0x2146 DUP2 DUP5 PUSH3 0x20E9 JUMP JUMPDEST SWAP1 POP SWAP3 SWAP2 POP POP JUMP JUMPDEST PUSH1 0x0 DUP2 MLOAD SWAP1 POP PUSH3 0x215F DUP2 PUSH3 0x1BD0 JUMP JUMPDEST SWAP3 SWAP2 POP POP JUMP JUMPDEST PUSH1 0x0 PUSH1 0x20 DUP3 DUP5 SUB SLT ISZERO PUSH3 0x217E JUMPI PUSH3 0x217D PUSH3 0x19EC JUMP JUMPDEST JUMPDEST PUSH1 0x0 PUSH3 0x218E DUP5 DUP3 DUP6 ADD PUSH3 0x214E JUMP JUMPDEST SWAP2 POP POP SWAP3 SWAP2 POP POP JUMP JUMPDEST PUSH1 0x0 DUP2 MLOAD SWAP1 POP PUSH3 0x21A8 DUP2 PUSH3 0x1D45 JUMP JUMPDEST SWAP3 SWAP2 POP POP JUMP JUMPDEST PUSH1 0x0 PUSH1 0x20 DUP3 DUP5 SUB SLT ISZERO PUSH3 0x21C7 JUMPI PUSH3 0x21C6 PUSH3 0x19EC JUMP JUMPDEST JUMPDEST PUSH1 0x0 PUSH3 0x21D7 DUP5 DUP3 DUP6 ADD PUSH3 0x2197 JUMP JUMPDEST SWAP2 POP POP SWAP3 SWAP2 POP POP JUMP JUMPDEST PUSH1 0x0 PUSH1 0x80 DUP3 ADD SWAP1 POP DUP2 DUP2 SUB PUSH1 0x0 DUP4 ADD MSTORE PUSH3 0x21FC DUP2 DUP8 PUSH3 0x20E9 JUMP JUMPDEST SWAP1 POP PUSH3 0x220D PUSH1 0x20 DUP4 ADD DUP7 PUSH3 0x1952 JUMP JUMPDEST PUSH3 0x221C PUSH1 0x40 DUP4 ADD DUP6 PUSH3 0x1952 JUMP JUMPDEST PUSH3 0x222B PUSH1 0x60 DUP4 ADD DUP5 PUSH3 0x1952 JUMP JUMPDEST SWAP6 SWAP5 POP POP POP POP POP JUMP JUMPDEST PUSH1 0x0 DUP2 MLOAD SWAP1 POP PUSH3 0x2245 DUP2 PUSH3 0x19F6 JUMP JUMPDEST SWAP3 SWAP2 POP POP JUMP JUMPDEST PUSH1 0x0 PUSH1 0x20 DUP3 DUP5 SUB SLT ISZERO PUSH3 0x2264 JUMPI PUSH3 0x2263 PUSH3 0x19EC JUMP JUMPDEST JUMPDEST PUSH1 0x0 PUSH3 0x2274 DUP5 DUP3 DUP6 ADD PUSH3 0x2234 JUMP JUMPDEST SWAP2 POP POP SWAP3 SWAP2 POP POP JUMP JUMPDEST PUSH1 0x0 PUSH3 0x2294 PUSH3 0x228E DUP5 PUSH3 0x1B0D JUMP JUMPDEST PUSH3 0x1AEE JUMP JUMPDEST SWAP1 POP DUP3 DUP2 MSTORE PUSH1 0x20 DUP2 ADD DUP5 DUP5 DUP5 ADD GT ISZERO PUSH3 0x22B3 JUMPI PUSH3 0x22B2 PUSH3 0x1A73 JUMP JUMPDEST JUMPDEST PUSH3 0x22C0 DUP5 DUP3 DUP6 PUSH3 0x20BD JUMP JUMPDEST POP SWAP4 SWAP3 POP POP POP JUMP JUMPDEST PUSH1 0x0 DUP3 PUSH1 0x1F DUP4 ADD SLT PUSH3 0x22E0 JUMPI PUSH3 0x22DF PUSH3 0x1A6E JUMP JUMPDEST JUMPDEST DUP2 MLOAD PUSH3 0x22F2 DUP5 DUP3 PUSH1 0x20 DUP7 ADD PUSH3 0x227D JUMP JUMPDEST SWAP2 POP POP SWAP3 SWAP2 POP POP JUMP JUMPDEST PUSH1 0x0 PUSH1 0x20 DUP3 DUP5 SUB SLT ISZERO PUSH3 0x2314 JUMPI PUSH3 0x2313 PUSH3 0x19EC JUMP JUMPDEST JUMPDEST PUSH1 0x0 DUP3 ADD MLOAD PUSH8 0xFFFFFFFFFFFFFFFF DUP2 GT ISZERO PUSH3 0x2335 JUMPI PUSH3 0x2334 PUSH3 0x19F1 JUMP JUMPDEST JUMPDEST PUSH3 0x2343 DUP5 DUP3 DUP6 ADD PUSH3 0x22C8 JUMP JUMPDEST SWAP2 POP POP SWAP3 SWAP2 POP POP JUMP JUMPDEST PUSH32 0x4E6F2073616665206D6F64652079657421000000000000000000000000000000 PUSH1 0x0 DUP3 ADD MSTORE POP JUMP JUMPDEST PUSH1 0x0 PUSH3 0x2384 PUSH1 0x11 DUP4 PUSH3 0x20AC JUMP JUMPDEST SWAP2 POP PUSH3 0x2391 DUP3 PUSH3 0x234C JUMP JUMPDEST PUSH1 0x20 DUP3 ADD SWAP1 POP SWAP2 SWAP1 POP JUMP JUMPDEST PUSH1 0x0 PUSH1 0x20 DUP3 ADD SWAP1 POP DUP2 DUP2 SUB PUSH1 0x0 DUP4 ADD MSTORE PUSH3 0x23B7 DUP2 PUSH3 0x2375 JUMP JUMPDEST SWAP1 POP SWAP2 SWAP1 POP JUMP JUMPDEST PUSH3 0x23C9 DUP2 PUSH3 0x1D07 JUMP JUMPDEST DUP3 MSTORE POP POP JUMP JUMPDEST PUSH1 0x0 PUSH2 0x120 DUP3 ADD SWAP1 POP DUP2 DUP2 SUB PUSH1 0x0 DUP4 ADD MSTORE PUSH3 0x23EC DUP2 DUP13 PUSH3 0x20E9 JUMP JUMPDEST SWAP1 POP PUSH3 0x23FD PUSH1 0x20 DUP4 ADD DUP12 PUSH3 0x1952 JUMP JUMPDEST PUSH3 0x240C PUSH1 0x40 DUP4 ADD DUP11 PUSH3 0x1952 JUMP JUMPDEST PUSH3 0x241B PUSH1 0x60 DUP4 ADD DUP10 PUSH3 0x23BE JUMP JUMPDEST PUSH3 0x242A PUSH1 0x80 DUP4 ADD DUP9 PUSH3 0x19B4 JUMP JUMPDEST PUSH3 0x2439 PUSH1 0xA0 DUP4 ADD DUP8 PUSH3 0x1952 JUMP JUMPDEST PUSH3 0x2448 PUSH1 0xC0 DUP4 ADD DUP7 PUSH3 0x1CD9 JUMP JUMPDEST PUSH3 0x2457 PUSH1 0xE0 DUP4 ADD DUP6 PUSH3 0x1952 JUMP JUMPDEST PUSH3 0x2467 PUSH2 0x100 DUP4 ADD DUP5 PUSH3 0x1952 JUMP JUMPDEST SWAP11 SWAP10 POP POP POP POP POP POP POP POP POP POP JUMP JUMPDEST PUSH1 0x0 DUP2 SWAP1 POP SWAP3 SWAP2 POP POP JUMP JUMPDEST PUSH1 0x0 PUSH3 0x248D DUP3 PUSH3 0x20A1 JUMP JUMPDEST PUSH3 0x2499 DUP2 DUP6 PUSH3 0x2475 JUMP JUMPDEST SWAP4 POP PUSH3 0x24AB DUP2 DUP6 PUSH1 0x20 DUP7 ADD PUSH3 0x20BD JUMP JUMPDEST DUP1 DUP5 ADD SWAP2 POP POP SWAP3 SWAP2 POP POP JUMP JUMPDEST PUSH1 0x0 PUSH3 0x24C5 DUP3 DUP5 PUSH3 0x2480 JUMP JUMPDEST SWAP2 POP DUP2 SWAP1 POP SWAP3 SWAP2 POP POP JUMP JUMPDEST PUSH1 0x0 PUSH1 0x40 DUP3 ADD SWAP1 POP PUSH3 0x24E7 PUSH1 0x0 DUP4 ADD DUP6 PUSH3 0x1952 JUMP JUMPDEST PUSH3 0x24F6 PUSH1 0x20 DUP4 ADD DUP5 PUSH3 0x19B4 JUMP JUMPDEST SWAP4 SWAP3 POP POP POP JUMP JUMPDEST PUSH1 0x0 PUSH3 0x250A DUP3 PUSH3 0x1948 JUMP JUMPDEST SWAP2 POP PUSH3 0x2517 DUP4 PUSH3 0x1948 JUMP JUMPDEST SWAP3 POP DUP3 DUP3 SUB SWAP1 POP DUP2 DUP2 GT ISZERO PUSH3 0x2532 JUMPI PUSH3 0x2531 PUSH3 0x1FD0 JUMP JUMPDEST JUMPDEST SWAP3 SWAP2 POP POP JUMP JUMPDEST PUSH32 0x54786E206661696C656400000000000000000000000000000000000000000000 PUSH1 0x0 DUP3 ADD MSTORE POP JUMP JUMPDEST PUSH1 0x0 PUSH3 0x2570 PUSH1 0xA DUP4 PUSH3 0x20AC JUMP JUMPDEST SWAP2 POP PUSH3 0x257D DUP3 PUSH3 0x2538 JUMP JUMPDEST PUSH1 0x20 DUP3 ADD SWAP1 POP SWAP2 SWAP1 POP JUMP JUMPDEST PUSH1 0x0 PUSH1 0x20 DUP3 ADD SWAP1 POP DUP2 DUP2 SUB PUSH1 0x0 DUP4 ADD MSTORE PUSH3 0x25A3 DUP2 PUSH3 0x2561 JUMP JUMPDEST SWAP1 POP SWAP2 SWAP1 POP JUMP JUMPDEST PUSH32 0x536176696E677320696E76616C69640000000000000000000000000000000000 PUSH1 0x0 DUP3 ADD MSTORE POP JUMP JUMPDEST PUSH1 0x0 PUSH3 0x25E2 PUSH1 0xF DUP4 PUSH3 0x20AC JUMP JUMPDEST SWAP2 POP PUSH3 0x25EF DUP3 PUSH3 0x25AA JUMP JUMPDEST PUSH1 0x20 DUP3 ADD SWAP1 POP SWAP2 SWAP1 POP JUMP JUMPDEST PUSH1 0x0 PUSH1 0x20 DUP3 ADD SWAP1 POP DUP2 DUP2 SUB PUSH1 0x0 DUP4 ADD MSTORE PUSH3 0x2615 DUP2 PUSH3 0x25D3 JUMP JUMPDEST SWAP1 POP SWAP2 SWAP1 POP JUMP JUMPDEST PUSH32 0x546F6B656E20636F756C64206E6F742062652077697468647261776E00000000 PUSH1 0x0 DUP3 ADD MSTORE POP JUMP JUMPDEST PUSH1 0x0 PUSH3 0x2654 PUSH1 0x1C DUP4 PUSH3 0x20AC JUMP JUMPDEST SWAP2 POP PUSH3 0x2661 DUP3 PUSH3 0x261C JUMP JUMPDEST PUSH1 0x20 DUP3 ADD SWAP1 POP SWAP2 SWAP1 POP JUMP JUMPDEST PUSH1 0x0 PUSH1 0x20 DUP3 ADD SWAP1 POP DUP2 DUP2 SUB PUSH1 0x0 DUP4 ADD MSTORE PUSH3 0x2687 DUP2 PUSH3 0x2645 JUMP JUMPDEST SWAP1 POP SWAP2 SWAP1 POP JUMP JUMPDEST PUSH1 0x0 PUSH1 0x60 DUP3 ADD SWAP1 POP PUSH3 0x26A5 PUSH1 0x0 DUP4 ADD DUP7 PUSH3 0x19B4 JUMP JUMPDEST PUSH3 0x26B4 PUSH1 0x20 DUP4 ADD DUP6 PUSH3 0x19B4 JUMP JUMPDEST PUSH3 0x26C3 PUSH1 0x40 DUP4 ADD DUP5 PUSH3 0x1952 JUMP JUMPDEST SWAP5 SWAP4 POP POP POP POP JUMP JUMPDEST PUSH1 0x0 PUSH1 0x40 DUP3 ADD SWAP1 POP PUSH3 0x26E2 PUSH1 0x0 DUP4 ADD DUP6 PUSH3 0x19B4 JUMP JUMPDEST PUSH3 0x26F1 PUSH1 0x20 DUP4 ADD DUP5 PUSH3 0x1952 JUMP JUMPDEST SWAP4 SWAP3 POP POP POP JUMP INVALID PUSH1 0x80 PUSH1 0x40 MSTORE PUSH1 0x40 MLOAD PUSH3 0x2D70 CODESIZE SUB DUP1 PUSH3 0x2D70 DUP4 CODECOPY DUP2 DUP2 ADD PUSH1 0x40 MSTORE DUP2 ADD SWAP1 PUSH3 0x29 SWAP2 SWAP1 PUSH3 0x165 JUMP JUMPDEST CALLER PUSH1 0x0 DUP1 PUSH2 0x100 EXP DUP2 SLOAD DUP2 PUSH20 0xFFFFFFFFFFFFFFFFFFFFFFFFFFFFFFFFFFFFFFFF MUL NOT AND SWAP1 DUP4 PUSH20 0xFFFFFFFFFFFFFFFFFFFFFFFFFFFFFFFFFFFFFFFF AND MUL OR SWAP1 SSTORE POP DUP2 PUSH1 0x2 PUSH1 0x0 PUSH2 0x100 EXP DUP2 SLOAD DUP2 PUSH20 0xFFFFFFFFFFFFFFFFFFFFFFFFFFFFFFFFFFFFFFFF MUL NOT AND SWAP1 DUP4 PUSH20 0xFFFFFFFFFFFFFFFFFFFFFFFFFFFFFFFFFFFFFFFF AND MUL OR SWAP1 SSTORE POP DUP1 PUSH1 0x1 PUSH1 0x0 PUSH2 0x100 EXP DUP2 SLOAD DUP2 PUSH20 0xFFFFFFFFFFFFFFFFFFFFFFFFFFFFFFFFFFFFFFFF MUL NOT AND SWAP1 DUP4 PUSH20 0xFFFFFFFFFFFFFFFFFFFFFFFFFFFFFFFFFFFFFFFF AND MUL OR SWAP1 SSTORE POP PUSH1 0x0 PUSH1 0x3 DUP2 SWAP1 SSTORE POP POP POP PUSH3 0x1AC JUMP JUMPDEST PUSH1 0x0 DUP1 REVERT JUMPDEST PUSH1 0x0 PUSH20 0xFFFFFFFFFFFFFFFFFFFFFFFFFFFFFFFFFFFFFFFF DUP3 AND SWAP1 POP SWAP2 SWAP1 POP JUMP JUMPDEST PUSH1 0x0 PUSH3 0x12D DUP3 PUSH3 0x100 JUMP JUMPDEST SWAP1 POP SWAP2 SWAP1 POP JUMP JUMPDEST PUSH3 0x13F DUP2 PUSH3 0x120 JUMP JUMPDEST DUP2 EQ PUSH3 0x14B JUMPI PUSH1 0x0 DUP1 REVERT JUMPDEST POP JUMP JUMPDEST PUSH1 0x0 DUP2 MLOAD SWAP1 POP PUSH3 0x15F DUP2 PUSH3 0x134 JUMP JUMPDEST SWAP3 SWAP2 POP POP JUMP JUMPDEST PUSH1 0x0 DUP1 PUSH1 0x40 DUP4 DUP6 SUB SLT ISZERO PUSH3 0x17F JUMPI PUSH3 0x17E PUSH3 0xFB JUMP JUMPDEST JUMPDEST PUSH1 0x0 PUSH3 0x18F DUP6 DUP3 DUP7 ADD PUSH3 0x14E JUMP JUMPDEST SWAP3 POP POP PUSH1 0x20 PUSH3 0x1A2 DUP6 DUP3 DUP7 ADD PUSH3 0x14E JUMP JUMPDEST SWAP2 POP POP SWAP3 POP SWAP3 SWAP1 POP JUMP JUMPDEST PUSH2 0x2BB4 DUP1 PUSH3 0x1BC PUSH1 0x0 CODECOPY PUSH1 0x0 RETURN INVALID PUSH1 0x80 PUSH1 0x40 MSTORE PUSH1 0x4 CALLDATASIZE LT PUSH2 0xC2 JUMPI PUSH1 0x0 CALLDATALOAD PUSH1 0xE0 SHR DUP1 PUSH4 0x585DBFFE GT PUSH2 0x7F JUMPI DUP1 PUSH4 0x992642E5 GT PUSH2 0x59 JUMPI DUP1 PUSH4 0x992642E5 EQ PUSH2 0x2A3 JUMPI DUP1 PUSH4 0xD1ECE790 EQ PUSH2 0x2CE JUMPI DUP1 PUSH4 0xDC2379B9 EQ PUSH2 0x2F9 JUMPI DUP1 PUSH4 0xE18F5F65 EQ PUSH2 0x329 JUMPI PUSH2 0xC2 JUMP JUMPDEST DUP1 PUSH4 0x585DBFFE EQ PUSH2 0x1FE JUMPI DUP1 PUSH4 0x84FEBB69 EQ PUSH2 0x23B JUMPI DUP1 PUSH4 0x8F84AA09 EQ PUSH2 0x278 JUMPI PUSH2 0xC2 JUMP JUMPDEST DUP1 PUSH4 0x13203929 EQ PUSH2 0xC7 JUMPI DUP1 PUSH4 0x1BB862A5 EQ PUSH2 0x10B JUMPI DUP1 PUSH4 0x2AE3C90F EQ PUSH2 0x148 JUMPI DUP1 PUSH4 0x372F9101 EQ PUSH2 0x173 JUMPI DUP1 PUSH4 0x436D4A6D EQ PUSH2 0x1A3 JUMPI DUP1 PUSH4 0x567142BE EQ PUSH2 0x1D3 JUMPI JUMPDEST PUSH1 0x0 DUP1 REVERT JUMPDEST CALLVALUE DUP1 ISZERO PUSH2 0xD3 JUMPI PUSH1 0x0 DUP1 REVERT JUMPDEST POP PUSH2 0xEE PUSH1 0x4 DUP1 CALLDATASIZE SUB DUP2 ADD SWAP1 PUSH2 0xE9 SWAP2 SWAP1 PUSH2 0x1C54 JUMP JUMPDEST PUSH2 0x366 JUMP JUMPDEST PUSH1 0x40 MLOAD PUSH2 0x102 SWAP9 SWAP8 SWAP7 SWAP6 SWAP5 SWAP4 SWAP3 SWAP2 SWAP1 PUSH2 0x1D12 JUMP JUMPDEST PUSH1 0x40 MLOAD DUP1 SWAP2 SUB SWAP1 RETURN JUMPDEST CALLVALUE DUP1 ISZERO PUSH2 0x117 JUMPI PUSH1 0x0 DUP1 REVERT JUMPDEST POP PUSH2 0x132 PUSH1 0x4 DUP1 CALLDATASIZE SUB DUP2 ADD SWAP1 PUSH2 0x12D SWAP2 SWAP1 PUSH2 0x1C54 JUMP JUMPDEST PUSH2 0x3FE JUMP JUMPDEST PUSH1 0x40 MLOAD PUSH2 0x13F SWAP2 SWAP1 PUSH2 0x1D90 JUMP JUMPDEST PUSH1 0x40 MLOAD DUP1 SWAP2 SUB SWAP1 RETURN JUMPDEST CALLVALUE DUP1 ISZERO PUSH2 0x154 JUMPI PUSH1 0x0 DUP1 REVERT JUMPDEST POP PUSH2 0x15D PUSH2 0x436 JUMP JUMPDEST PUSH1 0x40 MLOAD PUSH2 0x16A SWAP2 SWAP1 PUSH2 0x1DCC JUMP JUMPDEST PUSH1 0x40 MLOAD DUP1 SWAP2 SUB SWAP1 RETURN JUMPDEST PUSH2 0x18D PUSH1 0x4 DUP1 CALLDATASIZE SUB DUP2 ADD SWAP1 PUSH2 0x188 SWAP2 SWAP1 PUSH2 0x1C54 JUMP JUMPDEST PUSH2 0x45A JUMP JUMPDEST PUSH1 0x40 MLOAD PUSH2 0x19A SWAP2 SWAP1 PUSH2 0x1E66 JUMP JUMPDEST PUSH1 0x40 MLOAD DUP1 SWAP2 SUB SWAP1 RETURN JUMPDEST PUSH2 0x1BD PUSH1 0x4 DUP1 CALLDATASIZE SUB DUP2 ADD SWAP1 PUSH2 0x1B8 SWAP2 SWAP1 PUSH2 0x1F45 JUMP JUMPDEST PUSH2 0x924 JUMP JUMPDEST PUSH1 0x40 MLOAD PUSH2 0x1CA SWAP2 SWAP1 PUSH2 0x202B JUMP JUMPDEST PUSH1 0x40 MLOAD DUP1 SWAP2 SUB SWAP1 RETURN JUMPDEST CALLVALUE DUP1 ISZERO PUSH2 0x1DF JUMPI PUSH1 0x0 DUP1 REVERT JUMPDEST POP PUSH2 0x1E8 PUSH2 0xCFC JUMP JUMPDEST PUSH1 0x40 MLOAD PUSH2 0x1F5 SWAP2 SWAP1 PUSH2 0x202B JUMP JUMPDEST PUSH1 0x40 MLOAD DUP1 SWAP2 SUB SWAP1 RETURN JUMPDEST CALLVALUE DUP1 ISZERO PUSH2 0x20A JUMPI PUSH1 0x0 DUP1 REVERT JUMPDEST POP PUSH2 0x225 PUSH1 0x4 DUP1 CALLDATASIZE SUB DUP2 ADD SWAP1 PUSH2 0x220 SWAP2 SWAP1 PUSH2 0x1C54 JUMP JUMPDEST PUSH2 0xD02 JUMP JUMPDEST PUSH1 0x40 MLOAD PUSH2 0x232 SWAP2 SWAP1 PUSH2 0x2115 JUMP JUMPDEST PUSH1 0x40 MLOAD DUP1 SWAP2 SUB SWAP1 RETURN JUMPDEST CALLVALUE DUP1 ISZERO PUSH2 0x247 JUMPI PUSH1 0x0 DUP1 REVERT JUMPDEST POP PUSH2 0x262 PUSH1 0x4 DUP1 CALLDATASIZE SUB DUP2 ADD SWAP1 PUSH2 0x25D SWAP2 SWAP1 PUSH2 0x1C54 JUMP JUMPDEST PUSH2 0xDF9 JUMP JUMPDEST PUSH1 0x40 MLOAD PUSH2 0x26F SWAP2 SWAP1 PUSH2 0x202B JUMP JUMPDEST PUSH1 0x40 MLOAD DUP1 SWAP2 SUB SWAP1 RETURN JUMPDEST CALLVALUE DUP1 ISZERO PUSH2 0x284 JUMPI PUSH1 0x0 DUP1 REVERT JUMPDEST POP PUSH2 0x28D PUSH2 0xE24 JUMP JUMPDEST PUSH1 0x40 MLOAD PUSH2 0x29A SWAP2 SWAP1 PUSH2 0x2131 JUMP JUMPDEST PUSH1 0x40 MLOAD DUP1 SWAP2 SUB SWAP1 RETURN JUMPDEST CALLVALUE DUP1 ISZERO PUSH2 0x2AF JUMPI PUSH1 0x0 DUP1 REVERT JUMPDEST POP PUSH2 0x2B8 PUSH2 0xE4A JUMP JUMPDEST PUSH1 0x40 MLOAD PUSH2 0x2C5 SWAP2 SWAP1 PUSH2 0x21AB JUMP JUMPDEST PUSH1 0x40 MLOAD DUP1 SWAP2 SUB SWAP1 RETURN JUMPDEST CALLVALUE DUP1 ISZERO PUSH2 0x2DA JUMPI PUSH1 0x0 DUP1 REVERT JUMPDEST POP PUSH2 0x2E3 PUSH2 0xE70 JUMP JUMPDEST PUSH1 0x40 MLOAD PUSH2 0x2F0 SWAP2 SWAP1 PUSH2 0x22FC JUMP JUMPDEST PUSH1 0x40 MLOAD DUP1 SWAP2 SUB SWAP1 RETURN JUMPDEST PUSH2 0x313 PUSH1 0x4 DUP1 CALLDATASIZE SUB DUP2 ADD SWAP1 PUSH2 0x30E SWAP2 SWAP1 PUSH2 0x231E JUMP JUMPDEST PUSH2 0xF63 JUMP JUMPDEST PUSH1 0x40 MLOAD PUSH2 0x320 SWAP2 SWAP1 PUSH2 0x202B JUMP JUMPDEST PUSH1 0x40 MLOAD DUP1 SWAP2 SUB SWAP1 RETURN JUMPDEST CALLVALUE DUP1 ISZERO PUSH2 0x335 JUMPI PUSH1 0x0 DUP1 REVERT JUMPDEST POP PUSH2 0x350 PUSH1 0x4 DUP1 CALLDATASIZE SUB DUP2 ADD SWAP1 PUSH2 0x34B SWAP2 SWAP1 PUSH2 0x1C54 JUMP JUMPDEST PUSH2 0x13DB JUMP JUMPDEST PUSH1 0x40 MLOAD PUSH2 0x35D SWAP2 SWAP1 PUSH2 0x2131 JUMP JUMPDEST PUSH1 0x40 MLOAD DUP1 SWAP2 SUB SWAP1 RETURN JUMPDEST PUSH1 0x4 DUP2 DUP1 MLOAD PUSH1 0x20 DUP2 ADD DUP3 ADD DUP1 MLOAD DUP5 DUP3 MSTORE PUSH1 0x20 DUP4 ADD PUSH1 0x20 DUP6 ADD KECCAK256 DUP2 DUP4 MSTORE DUP1 SWAP6 POP POP POP POP POP POP PUSH1 0x0 SWAP2 POP SWAP1 POP DUP1 PUSH1 0x0 ADD PUSH1 0x0 SWAP1 SLOAD SWAP1 PUSH2 0x100 EXP SWAP1 DIV PUSH1 0xFF AND SWAP1 DUP1 PUSH1 0x1 ADD SLOAD SWAP1 DUP1 PUSH1 0x2 ADD PUSH1 0x0 SWAP1 SLOAD SWAP1 PUSH2 0x100 EXP SWAP1 DIV PUSH20 0xFFFFFFFFFFFFFFFFFFFFFFFFFFFFFFFFFFFFFFFF AND SWAP1 DUP1 PUSH1 0x3 ADD SLOAD SWAP1 DUP1 PUSH1 0x4 ADD SLOAD SWAP1 DUP1 PUSH1 0x5 ADD SLOAD SWAP1 DUP1 PUSH1 0x6 ADD SLOAD SWAP1 DUP1 PUSH1 0x7 ADD PUSH1 0x0 SWAP1 SLOAD SWAP1 PUSH2 0x100 EXP SWAP1 DIV PUSH1 0xFF AND SWAP1 POP DUP9 JUMP JUMPDEST PUSH1 0x0 PUSH1 0x4 DUP3 PUSH1 0x40 MLOAD PUSH2 0x410 SWAP2 SWAP1 PUSH2 0x23DD JUMP JUMPDEST SWAP1 DUP2 MSTORE PUSH1 0x20 ADD PUSH1 0x40 MLOAD DUP1 SWAP2 SUB SWAP1 KECCAK256 PUSH1 0x7 ADD PUSH1 0x0 SWAP1 SLOAD SWAP1 PUSH2 0x100 EXP SWAP1 DIV PUSH1 0xFF AND SWAP1 POP SWAP2 SWAP1 POP JUMP JUMPDEST PUSH1 0x0 DUP1 SLOAD SWAP1 PUSH2 0x100 EXP SWAP1 DIV PUSH20 0xFFFFFFFFFFFFFFFFFFFFFFFFFFFFFFFFFFFFFFFF AND DUP2 JUMP JUMPDEST PUSH1 0x60 PUSH1 0x0 DUP1 SLOAD SWAP1 PUSH2 0x100 EXP SWAP1 DIV PUSH20 0xFFFFFFFFFFFFFFFFFFFFFFFFFFFFFFFFFFFFFFFF AND PUSH20 0xFFFFFFFFFFFFFFFFFFFFFFFFFFFFFFFFFFFFFFFF AND CALLER PUSH20 0xFFFFFFFFFFFFFFFFFFFFFFFFFFFFFFFFFFFFFFFF AND EQ PUSH2 0x4E1 JUMPI PUSH1 0x40 MLOAD PUSH32 0x229E1DBD00000000000000000000000000000000000000000000000000000000 DUP2 MSTORE PUSH1 0x4 ADD PUSH1 0x40 MLOAD DUP1 SWAP2 SUB SWAP1 REVERT JUMPDEST PUSH1 0x0 PUSH1 0x4 DUP4 PUSH1 0x40 MLOAD PUSH2 0x4F3 SWAP2 SWAP1 PUSH2 0x23DD JUMP JUMPDEST SWAP1 DUP2 MSTORE PUSH1 0x20 ADD PUSH1 0x40 MLOAD DUP1 SWAP2 SUB SWAP1 KECCAK256 SWAP1 POP DUP1 PUSH1 0x0 ADD PUSH1 0x0 SWAP1 SLOAD SWAP1 PUSH2 0x100 EXP SWAP1 DIV PUSH1 0xFF AND PUSH2 0x54B JUMPI PUSH1 0x40 MLOAD PUSH32 0xD63D1E4800000000000000000000000000000000000000000000000000000000 DUP2 MSTORE PUSH1 0x4 ADD PUSH1 0x40 MLOAD DUP1 SWAP2 SUB SWAP1 REVERT JUMPDEST PUSH1 0x0 DUP2 PUSH1 0x1 ADD SLOAD SWAP1 POP PUSH1 0x0 DUP1 PUSH1 0x0 SWAP1 SLOAD SWAP1 PUSH2 0x100 EXP SWAP1 DIV PUSH20 0xFFFFFFFFFFFFFFFFFFFFFFFFFFFFFFFFFFFFFFFF AND SWAP1 POP DUP3 PUSH1 0x6 ADD SLOAD TIMESTAMP LT ISZERO PUSH2 0x5B9 JUMPI PUSH1 0x64 DUP4 PUSH1 0x5 ADD SLOAD PUSH1 0x64 PUSH2 0x599 SWAP2 SWAP1 PUSH2 0x2423 JUMP JUMPDEST DUP5 PUSH1 0x1 ADD SLOAD PUSH2 0x5A8 SWAP2 SWAP1 PUSH2 0x2457 JUMP JUMPDEST PUSH2 0x5B2 SWAP2 SWAP1 PUSH2 0x24C8 JUMP JUMPDEST SWAP2 POP PUSH2 0x5BA JUMP JUMPDEST JUMPDEST PUSH1 0x0 DUP4 PUSH1 0x2 ADD PUSH1 0x0 SWAP1 SLOAD SWAP1 PUSH2 0x100 EXP SWAP1 DIV PUSH20 0xFFFFFFFFFFFFFFFFFFFFFFFFFFFFFFFFFFFFFFFF AND SWAP1 POP PUSH1 0x0 DUP5 PUSH1 0x7 ADD PUSH1 0x0 SWAP1 SLOAD SWAP1 PUSH2 0x100 EXP SWAP1 DIV PUSH1 0xFF AND ISZERO PUSH2 0x6F3 JUMPI PUSH2 0x649 PUSH1 0x0 DUP1 SLOAD SWAP1 PUSH2 0x100 EXP SWAP1 DIV PUSH20 0xFFFFFFFFFFFFFFFFFFFFFFFFFFFFFFFFFFFFFFFF AND DUP6 PUSH1 0x1 PUSH1 0x0 SWAP1 SLOAD SWAP1 PUSH2 0x100 EXP SWAP1 DIV PUSH20 0xFFFFFFFFFFFFFFFFFFFFFFFFFFFFFFFFFFFFFFFF AND PUSH2 0x1426 JUMP JUMPDEST POP DUP3 PUSH20 0xFFFFFFFFFFFFFFFFFFFFFFFFFFFFFFFFFFFFFFFF AND PUSH4 0xDE35C372 DUP4 DUP7 PUSH1 0x2 PUSH1 0x0 SWAP1 SLOAD SWAP1 PUSH2 0x100 EXP SWAP1 DIV PUSH20 0xFFFFFFFFFFFFFFFFFFFFFFFFFFFFFFFFFFFFFFFF AND PUSH1 0x40 MLOAD DUP5 PUSH4 0xFFFFFFFF AND PUSH1 0xE0 SHL DUP2 MSTORE PUSH1 0x4 ADD PUSH2 0x6A9 SWAP4 SWAP3 SWAP2 SWAP1 PUSH2 0x24F9 JUMP JUMPDEST PUSH1 0x20 PUSH1 0x40 MLOAD DUP1 DUP4 SUB DUP2 PUSH1 0x0 DUP8 GAS CALL ISZERO DUP1 ISZERO PUSH2 0x6C8 JUMPI RETURNDATASIZE PUSH1 0x0 DUP1 RETURNDATACOPY RETURNDATASIZE PUSH1 0x0 REVERT JUMPDEST POP POP POP POP PUSH1 0x40 MLOAD RETURNDATASIZE PUSH1 0x1F NOT PUSH1 0x1F DUP3 ADD AND DUP3 ADD DUP1 PUSH1 0x40 MSTORE POP DUP2 ADD SWAP1 PUSH2 0x6EC SWAP2 SWAP1 PUSH2 0x2545 JUMP JUMPDEST SWAP1 POP PUSH2 0x856 JUMP JUMPDEST PUSH1 0x0 PUSH20 0xFFFFFFFFFFFFFFFFFFFFFFFFFFFFFFFFFFFFFFFF AND DUP3 PUSH20 0xFFFFFFFFFFFFFFFFFFFFFFFFFFFFFFFFFFFFFFFF AND SUB PUSH2 0x801 JUMPI PUSH1 0x0 DUP1 PUSH1 0x2 PUSH1 0x0 SWAP1 SLOAD SWAP1 PUSH2 0x100 EXP SWAP1 DIV PUSH20 0xFFFFFFFFFFFFFFFFFFFFFFFFFFFFFFFFFFFFFFFF AND PUSH20 0xFFFFFFFFFFFFFFFFFFFFFFFFFFFFFFFFFFFFFFFF AND DUP7 PUSH1 0x40 MLOAD PUSH2 0x770 SWAP1 PUSH2 0x25A3 JUMP JUMPDEST PUSH1 0x0 PUSH1 0x40 MLOAD DUP1 DUP4 SUB DUP2 DUP6 DUP8 GAS CALL SWAP3 POP POP POP RETURNDATASIZE DUP1 PUSH1 0x0 DUP2 EQ PUSH2 0x7AD JUMPI PUSH1 0x40 MLOAD SWAP2 POP PUSH1 0x1F NOT PUSH1 0x3F RETURNDATASIZE ADD AND DUP3 ADD PUSH1 0x40 MSTORE RETURNDATASIZE DUP3 MSTORE RETURNDATASIZE PUSH1 0x0 PUSH1 0x20 DUP5 ADD RETURNDATACOPY PUSH2 0x7B2 JUMP JUMPDEST PUSH1 0x60 SWAP2 POP JUMPDEST POP SWAP2 POP SWAP2 POP DUP2 PUSH2 0x7F7 JUMPI PUSH1 0x40 MLOAD PUSH32 0x8C379A000000000000000000000000000000000000000000000000000000000 DUP2 MSTORE PUSH1 0x4 ADD PUSH2 0x7EE SWAP1 PUSH2 0x2604 JUMP JUMPDEST PUSH1 0x40 MLOAD DUP1 SWAP2 SUB SWAP1 REVERT JUMPDEST DUP2 SWAP3 POP POP POP PUSH2 0x855 JUMP JUMPDEST PUSH2 0x852 DUP6 PUSH1 0x2 ADD PUSH1 0x0 SWAP1 SLOAD SWAP1 PUSH2 0x100 EXP SWAP1 DIV PUSH20 0xFFFFFFFFFFFFFFFFFFFFFFFFFFFFFFFFFFFFFFFF AND PUSH1 0x2 PUSH1 0x0 SWAP1 SLOAD SWAP1 PUSH2 0x100 EXP SWAP1 DIV PUSH20 0xFFFFFFFFFFFFFFFFFFFFFFFFFFFFFFFFFFFFFFFF AND DUP7 PUSH2 0x14B4 JUMP JUMPDEST SWAP1 POP JUMPDEST JUMPDEST DUP1 ISZERO PUSH2 0x91A JUMPI PUSH1 0x0 PUSH1 0x4 DUP9 PUSH1 0x40 MLOAD PUSH2 0x86E SWAP2 SWAP1 PUSH2 0x23DD JUMP JUMPDEST SWAP1 DUP2 MSTORE PUSH1 0x20 ADD PUSH1 0x40 MLOAD DUP1 SWAP2 SUB SWAP1 KECCAK256 PUSH1 0x0 ADD PUSH1 0x0 PUSH2 0x100 EXP DUP2 SLOAD DUP2 PUSH1 0xFF MUL NOT AND SWAP1 DUP4 ISZERO ISZERO MUL OR SWAP1 SSTORE POP DUP7 PUSH1 0x40 MLOAD PUSH2 0x8A4 SWAP2 SWAP1 PUSH2 0x23DD JUMP JUMPDEST PUSH1 0x40 MLOAD DUP1 SWAP2 SUB SWAP1 KECCAK256 PUSH32 0x5B059B7FE1FEA38D4DE595079621498A365A8F1FA13E49AF9F1E4B7197AB049A PUSH1 0x40 MLOAD PUSH1 0x40 MLOAD DUP1 SWAP2 SUB SWAP1 LOG2 PUSH1 0x40 MLOAD DUP1 PUSH1 0x40 ADD PUSH1 0x40 MSTORE DUP1 PUSH1 0x1E DUP2 MSTORE PUSH1 0x20 ADD PUSH32 0x736176696E67732077697468647261776E207375636365737366756C6C790000 DUP2 MSTORE POP SWAP6 POP POP POP POP POP POP PUSH2 0x91F JUMP JUMPDEST PUSH1 0x0 DUP1 REVERT JUMPDEST SWAP2 SWAP1 POP JUMP JUMPDEST PUSH1 0x0 DUP1 PUSH1 0x0 SWAP1 SLOAD SWAP1 PUSH2 0x100 EXP SWAP1 DIV PUSH20 0xFFFFFFFFFFFFFFFFFFFFFFFFFFFFFFFFFFFFFFFF AND PUSH20 0xFFFFFFFFFFFFFFFFFFFFFFFFFFFFFFFFFFFFFFFF AND CALLER PUSH20 0xFFFFFFFFFFFFFFFFFFFFFFFFFFFFFFFFFFFFFFFF AND EQ PUSH2 0x9AC JUMPI PUSH1 0x40 MLOAD PUSH32 0x229E1DBD00000000000000000000000000000000000000000000000000000000 DUP2 MSTORE PUSH1 0x4 ADD PUSH1 0x40 MLOAD DUP1 SWAP2 SUB SWAP1 REVERT JUMPDEST PUSH1 0x4 DUP11 PUSH1 0x40 MLOAD PUSH2 0x9BC SWAP2 SWAP1 PUSH2 0x23DD JUMP JUMPDEST SWAP1 DUP2 MSTORE PUSH1 0x20 ADD PUSH1 0x40 MLOAD DUP1 SWAP2 SUB SWAP1 KECCAK256 PUSH1 0x0 ADD PUSH1 0x0 SWAP1 SLOAD SWAP1 PUSH2 0x100 EXP SWAP1 DIV PUSH1 0xFF AND ISZERO PUSH2 0xA12 JUMPI PUSH1 0x40 MLOAD PUSH32 0xD63D1E4800000000000000000000000000000000000000000000000000000000 DUP2 MSTORE PUSH1 0x4 ADD PUSH1 0x40 MLOAD DUP1 SWAP2 SUB SWAP1 REVERT JUMPDEST DUP8 DUP10 LT ISZERO PUSH2 0xA4C JUMPI PUSH1 0x40 MLOAD PUSH32 0x6F7EAC2600000000000000000000000000000000000000000000000000000000 DUP2 MSTORE PUSH1 0x4 ADD PUSH1 0x40 MLOAD DUP1 SWAP2 SUB SWAP1 REVERT JUMPDEST TIMESTAMP DUP10 LT ISZERO PUSH2 0xA86 JUMPI PUSH1 0x40 MLOAD PUSH32 0x6F7EAC2600000000000000000000000000000000000000000000000000000000 DUP2 MSTORE PUSH1 0x4 ADD PUSH1 0x40 MLOAD DUP1 SWAP2 SUB SWAP1 REVERT JUMPDEST PUSH1 0x0 DUP6 SWAP1 POP DUP5 ISZERO PUSH2 0xAE4 JUMPI PUSH2 0xADE PUSH1 0x0 DUP1 SLOAD SWAP1 PUSH2 0x100 EXP SWAP1 DIV PUSH20 0xFFFFFFFFFFFFFFFFFFFFFFFFFFFFFFFFFFFFFFFF AND PUSH1 0x1 PUSH1 0x0 SWAP1 SLOAD SWAP1 PUSH2 0x100 EXP SWAP1 DIV PUSH20 0xFFFFFFFFFFFFFFFFFFFFFFFFFFFFFFFFFFFFFFFF AND DUP9 PUSH2 0x15A7 JUMP JUMPDEST POP PUSH2 0xB4E JUMP JUMPDEST PUSH1 0x0 PUSH20 0xFFFFFFFFFFFFFFFFFFFFFFFFFFFFFFFFFFFFFFFF AND DUP8 PUSH20 0xFFFFFFFFFFFFFFFFFFFFFFFFFFFFFFFFFFFFFFFF AND EQ PUSH2 0xB49 JUMPI PUSH2 0xB43 PUSH1 0x0 DUP1 SLOAD SWAP1 PUSH2 0x100 EXP SWAP1 DIV PUSH20 0xFFFFFFFFFFFFFFFFFFFFFFFFFFFFFFFFFFFFFFFF AND DUP9 DUP9 PUSH2 0x15A7 JUMP JUMPDEST POP PUSH2 0xB4D JUMP JUMPDEST CALLVALUE SWAP1 POP JUMPDEST JUMPDEST PUSH1 0x0 PUSH2 0xB5D DUP3 DUP13 DUP13 DUP9 DUP9 PUSH2 0x16F0 JUMP JUMPDEST SWAP1 POP PUSH1 0x40 MLOAD DUP1 PUSH2 0x100 ADD PUSH1 0x40 MSTORE DUP1 PUSH1 0x1 ISZERO ISZERO DUP2 MSTORE PUSH1 0x20 ADD DUP4 DUP2 MSTORE PUSH1 0x20 ADD DUP10 PUSH20 0xFFFFFFFFFFFFFFFFFFFFFFFFFFFFFFFFFFFFFFFF AND DUP2 MSTORE PUSH1 0x20 ADD DUP3 DUP2 MSTORE PUSH1 0x20 ADD DUP12 DUP2 MSTORE PUSH1 0x20 ADD DUP11 PUSH1 0xFF AND DUP2 MSTORE PUSH1 0x20 ADD DUP13 DUP2 MSTORE PUSH1 0x20 ADD DUP8 ISZERO ISZERO DUP2 MSTORE POP PUSH1 0x4 DUP14 PUSH1 0x40 MLOAD PUSH2 0xBC7 SWAP2 SWAP1 PUSH2 0x23DD JUMP JUMPDEST SWAP1 DUP2 MSTORE PUSH1 0x20 ADD PUSH1 0x40 MLOAD DUP1 SWAP2 SUB SWAP1 KECCAK256 PUSH1 0x0 DUP3 ADD MLOAD DUP2 PUSH1 0x0 ADD PUSH1 0x0 PUSH2 0x100 EXP DUP2 SLOAD DUP2 PUSH1 0xFF MUL NOT AND SWAP1 DUP4 ISZERO ISZERO MUL OR SWAP1 SSTORE POP PUSH1 0x20 DUP3 ADD MLOAD DUP2 PUSH1 0x1 ADD SSTORE PUSH1 0x40 DUP3 ADD MLOAD DUP2 PUSH1 0x2 ADD PUSH1 0x0 PUSH2 0x100 EXP DUP2 SLOAD DUP2 PUSH20 0xFFFFFFFFFFFFFFFFFFFFFFFFFFFFFFFFFFFFFFFF MUL NOT AND SWAP1 DUP4 PUSH20 0xFFFFFFFFFFFFFFFFFFFFFFFFFFFFFFFFFFFFFFFF AND MUL OR SWAP1 SSTORE POP PUSH1 0x60 DUP3 ADD MLOAD DUP2 PUSH1 0x3 ADD SSTORE PUSH1 0x80 DUP3 ADD MLOAD DUP2 PUSH1 0x4 ADD SSTORE PUSH1 0xA0 DUP3 ADD MLOAD DUP2 PUSH1 0x5 ADD SSTORE PUSH1 0xC0 DUP3 ADD MLOAD DUP2 PUSH1 0x6 ADD SSTORE PUSH1 0xE0 DUP3 ADD MLOAD DUP2 PUSH1 0x7 ADD PUSH1 0x0 PUSH2 0x100 EXP DUP2 SLOAD DUP2 PUSH1 0xFF MUL NOT AND SWAP1 DUP4 ISZERO ISZERO MUL OR SWAP1 SSTORE POP SWAP1 POP POP PUSH2 0xC9A DUP13 PUSH2 0x171B JUMP JUMPDEST DUP12 PUSH1 0x40 MLOAD PUSH2 0xCA8 SWAP2 SWAP1 PUSH2 0x23DD JUMP JUMPDEST PUSH1 0x40 MLOAD DUP1 SWAP2 SUB SWAP1 KECCAK256 PUSH32 0x4AD85A69286191006EA05981AE1848070DBF232E5E00FFDDA4B857C16097F0D7 DUP9 DUP11 PUSH1 0x40 MLOAD PUSH2 0xCE1 SWAP3 SWAP2 SWAP1 PUSH2 0x2624 JUMP JUMPDEST PUSH1 0x40 MLOAD DUP1 SWAP2 SUB SWAP1 LOG2 PUSH1 0x1 SWAP3 POP POP POP SWAP10 SWAP9 POP POP POP POP POP POP POP POP POP JUMP JUMPDEST PUSH1 0x3 SLOAD DUP2 JUMP JUMPDEST PUSH2 0xD0A PUSH2 0x1A88 JUMP JUMPDEST PUSH1 0x4 DUP3 PUSH1 0x40 MLOAD PUSH2 0xD1A SWAP2 SWAP1 PUSH2 0x23DD JUMP JUMPDEST SWAP1 DUP2 MSTORE PUSH1 0x20 ADD PUSH1 0x40 MLOAD DUP1 SWAP2 SUB SWAP1 KECCAK256 PUSH1 0x40 MLOAD DUP1 PUSH2 0x100 ADD PUSH1 0x40 MSTORE SWAP1 DUP2 PUSH1 0x0 DUP3 ADD PUSH1 0x0 SWAP1 SLOAD SWAP1 PUSH2 0x100 EXP SWAP1 DIV PUSH1 0xFF AND ISZERO ISZERO ISZERO ISZERO DUP2 MSTORE PUSH1 0x20 ADD PUSH1 0x1 DUP3 ADD SLOAD DUP2 MSTORE PUSH1 0x20 ADD PUSH1 0x2 DUP3 ADD PUSH1 0x0 SWAP1 SLOAD SWAP1 PUSH2 0x100 EXP SWAP1 DIV PUSH20 0xFFFFFFFFFFFFFFFFFFFFFFFFFFFFFFFFFFFFFFFF AND PUSH20 0xFFFFFFFFFFFFFFFFFFFFFFFFFFFFFFFFFFFFFFFF AND PUSH20 0xFFFFFFFFFFFFFFFFFFFFFFFFFFFFFFFFFFFFFFFF AND DUP2 MSTORE PUSH1 0x20 ADD PUSH1 0x3 DUP3 ADD SLOAD DUP2 MSTORE PUSH1 0x20 ADD PUSH1 0x4 DUP3 ADD SLOAD DUP2 MSTORE PUSH1 0x20 ADD PUSH1 0x5 DUP3 ADD SLOAD DUP2 MSTORE PUSH1 0x20 ADD PUSH1 0x6 DUP3 ADD SLOAD DUP2 MSTORE PUSH1 0x20 ADD PUSH1 0x7 DUP3 ADD PUSH1 0x0 SWAP1 SLOAD SWAP1 PUSH2 0x100 EXP SWAP1 DIV PUSH1 0xFF AND ISZERO ISZERO ISZERO ISZERO DUP2 MSTORE POP POP SWAP1 POP SWAP2 SWAP1 POP JUMP JUMPDEST PUSH1 0x0 PUSH1 0x4 DUP3 PUSH1 0x40 MLOAD PUSH2 0xE0B SWAP2 SWAP1 PUSH2 0x23DD JUMP JUMPDEST SWAP1 DUP2 MSTORE PUSH1 0x20 ADD PUSH1 0x40 MLOAD DUP1 SWAP2 SUB SWAP1 KECCAK256 PUSH1 0x3 ADD SLOAD SWAP1 POP SWAP2 SWAP1 POP JUMP JUMPDEST PUSH1 0x2 PUSH1 0x0 SWAP1 SLOAD SWAP1 PUSH2 0x100 EXP SWAP1 DIV PUSH20 0xFFFFFFFFFFFFFFFFFFFFFFFFFFFFFFFFFFFFFFFF AND DUP2 JUMP JUMPDEST PUSH1 0x1 PUSH1 0x0 SWAP1 SLOAD SWAP1 PUSH2 0x100 EXP SWAP1 DIV PUSH20 0xFFFFFFFFFFFFFFFFFFFFFFFFFFFFFFFFFFFFFFFF AND DUP2 JUMP JUMPDEST PUSH2 0xE78 PUSH2 0x1AE7 JUMP JUMPDEST PUSH1 0x5 PUSH1 0x40 MLOAD DUP1 PUSH1 0x20 ADD PUSH1 0x40 MSTORE SWAP1 DUP2 PUSH1 0x0 DUP3 ADD DUP1 SLOAD DUP1 PUSH1 0x20 MUL PUSH1 0x20 ADD PUSH1 0x40 MLOAD SWAP1 DUP2 ADD PUSH1 0x40 MSTORE DUP1 SWAP3 SWAP2 SWAP1 DUP2 DUP2 MSTORE PUSH1 0x20 ADD PUSH1 0x0 SWAP1 JUMPDEST DUP3 DUP3 LT ISZERO PUSH2 0xF56 JUMPI DUP4 DUP3 SWAP1 PUSH1 0x0 MSTORE PUSH1 0x20 PUSH1 0x0 KECCAK256 ADD DUP1 SLOAD PUSH2 0xEC9 SWAP1 PUSH2 0x267C JUMP JUMPDEST DUP1 PUSH1 0x1F ADD PUSH1 0x20 DUP1 SWAP2 DIV MUL PUSH1 0x20 ADD PUSH1 0x40 MLOAD SWAP1 DUP2 ADD PUSH1 0x40 MSTORE DUP1 SWAP3 SWAP2 SWAP1 DUP2 DUP2 MSTORE PUSH1 0x20 ADD DUP3 DUP1 SLOAD PUSH2 0xEF5 SWAP1 PUSH2 0x267C JUMP JUMPDEST DUP1 ISZERO PUSH2 0xF42 JUMPI DUP1 PUSH1 0x1F LT PUSH2 0xF17 JUMPI PUSH2 0x100 DUP1 DUP4 SLOAD DIV MUL DUP4 MSTORE SWAP2 PUSH1 0x20 ADD SWAP2 PUSH2 0xF42 JUMP JUMPDEST DUP3 ADD SWAP2 SWAP1 PUSH1 0x0 MSTORE PUSH1 0x20 PUSH1 0x0 KECCAK256 SWAP1 JUMPDEST DUP2 SLOAD DUP2 MSTORE SWAP1 PUSH1 0x1 ADD SWAP1 PUSH1 0x20 ADD DUP1 DUP4 GT PUSH2 0xF25 JUMPI DUP3 SWAP1 SUB PUSH1 0x1F AND DUP3 ADD SWAP2 JUMPDEST POP POP POP POP POP DUP2 MSTORE PUSH1 0x20 ADD SWAP1 PUSH1 0x1 ADD SWAP1 PUSH2 0xEAA JUMP JUMPDEST POP POP POP POP DUP2 MSTORE POP POP SWAP1 POP SWAP1 JUMP JUMPDEST PUSH1 0x0 DUP1 PUSH1 0x0 SWAP1 SLOAD SWAP1 PUSH2 0x100 EXP SWAP1 DIV PUSH20 0xFFFFFFFFFFFFFFFFFFFFFFFFFFFFFFFFFFFFFFFF AND PUSH20 0xFFFFFFFFFFFFFFFFFFFFFFFFFFFFFFFFFFFFFFFF AND CALLER PUSH20 0xFFFFFFFFFFFFFFFFFFFFFFFFFFFFFFFFFFFFFFFF AND EQ PUSH2 0xFEB JUMPI PUSH1 0x40 MLOAD PUSH32 0x229E1DBD00000000000000000000000000000000000000000000000000000000 DUP2 MSTORE PUSH1 0x4 ADD PUSH1 0x40 MLOAD DUP1 SWAP2 SUB SWAP1 REVERT JUMPDEST PUSH1 0x0 PUSH1 0x4 DUP7 PUSH1 0x40 MLOAD PUSH2 0xFFD SWAP2 SWAP1 PUSH2 0x23DD JUMP JUMPDEST SWAP1 DUP2 MSTORE PUSH1 0x20 ADD PUSH1 0x40 MLOAD DUP1 SWAP2 SUB SWAP1 KECCAK256 SWAP1 POP DUP1 PUSH1 0x0 ADD PUSH1 0x0 SWAP1 SLOAD SWAP1 PUSH2 0x100 EXP SWAP1 DIV PUSH1 0xFF AND PUSH2 0x1055 JUMPI PUSH1 0x40 MLOAD PUSH32 0xD63D1E4800000000000000000000000000000000000000000000000000000000 DUP2 MSTORE PUSH1 0x4 ADD PUSH1 0x40 MLOAD DUP1 SWAP2 SUB SWAP1 REVERT JUMPDEST DUP1 PUSH1 0x6 ADD SLOAD TIMESTAMP GT ISZERO PUSH2 0x1093 JUMPI PUSH1 0x40 MLOAD PUSH32 0x6F7EAC2600000000000000000000000000000000000000000000000000000000 DUP2 MSTORE PUSH1 0x4 ADD PUSH1 0x40 MLOAD DUP1 SWAP2 SUB SWAP1 REVERT JUMPDEST PUSH1 0x0 DUP1 PUSH20 0xFFFFFFFFFFFFFFFFFFFFFFFFFFFFFFFFFFFFFFFF AND DUP3 PUSH1 0x2 ADD PUSH1 0x0 SWAP1 SLOAD SWAP1 PUSH2 0x100 EXP SWAP1 DIV PUSH20 0xFFFFFFFFFFFFFFFFFFFFFFFFFFFFFFFFFFFFFFFF AND PUSH20 0xFFFFFFFFFFFFFFFFFFFFFFFFFFFFFFFFFFFFFFFF AND EQ SWAP1 POP DUP2 PUSH1 0x7 ADD PUSH1 0x0 SWAP1 SLOAD SWAP1 PUSH2 0x100 EXP SWAP1 DIV PUSH1 0xFF AND ISZERO PUSH2 0x1154 JUMPI PUSH2 0x114E PUSH1 0x0 DUP1 SLOAD SWAP1 PUSH2 0x100 EXP SWAP1 DIV PUSH20 0xFFFFFFFFFFFFFFFFFFFFFFFFFFFFFFFFFFFFFFFF AND PUSH1 0x1 PUSH1 0x0 SWAP1 SLOAD SWAP1 PUSH2 0x100 EXP SWAP1 DIV PUSH20 0xFFFFFFFFFFFFFFFFFFFFFFFFFFFFFFFFFFFFFFFF AND DUP9 PUSH2 0x15A7 JUMP JUMPDEST POP PUSH2 0x11F6 JUMP JUMPDEST DUP1 PUSH2 0x11AE JUMPI PUSH2 0x11A8 PUSH1 0x0 DUP1 SLOAD SWAP1 PUSH2 0x100 EXP SWAP1 DIV PUSH20 0xFFFFFFFFFFFFFFFFFFFFFFFFFFFFFFFFFFFFFFFF AND DUP4 PUSH1 0x2 ADD PUSH1 0x0 SWAP1 SLOAD SWAP1 PUSH2 0x100 EXP SWAP1 DIV PUSH20 0xFFFFFFFFFFFFFFFFFFFFFFFFFFFFFFFFFFFFFFFF AND DUP9 PUSH2 0x15A7 JUMP JUMPDEST POP PUSH2 0x11F5 JUMP JUMPDEST DUP6 CALLVALUE LT ISZERO PUSH2 0x11F1 JUMPI PUSH1 0x40 MLOAD PUSH32 0x8C379A000000000000000000000000000000000000000000000000000000000 DUP2 MSTORE PUSH1 0x4 ADD PUSH2 0x11E8 SWAP1 PUSH2 0x271F JUMP JUMPDEST PUSH1 0x40 MLOAD DUP1 SWAP2 SUB SWAP1 REVERT JUMPDEST CALLVALUE SWAP6 POP JUMPDEST JUMPDEST PUSH1 0x0 PUSH2 0x1209 DUP8 DUP5 PUSH1 0x6 ADD SLOAD TIMESTAMP DUP10 DUP10 PUSH2 0x16F0 JUMP JUMPDEST SWAP1 POP DUP1 DUP4 PUSH1 0x3 ADD SLOAD PUSH2 0x121B SWAP2 SWAP1 PUSH2 0x273F JUMP JUMPDEST DUP4 PUSH1 0x3 ADD DUP2 SWAP1 SSTORE POP DUP7 DUP4 PUSH1 0x1 ADD SLOAD PUSH2 0x1233 SWAP2 SWAP1 PUSH2 0x273F JUMP JUMPDEST DUP4 PUSH1 0x1 ADD DUP2 SWAP1 SSTORE POP DUP3 PUSH1 0x4 DUP10 PUSH1 0x40 MLOAD PUSH2 0x124C SWAP2 SWAP1 PUSH2 0x23DD JUMP JUMPDEST SWAP1 DUP2 MSTORE PUSH1 0x20 ADD PUSH1 0x40 MLOAD DUP1 SWAP2 SUB SWAP1 KECCAK256 PUSH1 0x0 DUP3 ADD PUSH1 0x0 SWAP1 SLOAD SWAP1 PUSH2 0x100 EXP SWAP1 DIV PUSH1 0xFF AND DUP2 PUSH1 0x0 ADD PUSH1 0x0 PUSH2 0x100 EXP DUP2 SLOAD DUP2 PUSH1 0xFF MUL NOT AND SWAP1 DUP4 ISZERO ISZERO MUL OR SWAP1 SSTORE POP PUSH1 0x1 DUP3 ADD SLOAD DUP2 PUSH1 0x1 ADD SSTORE PUSH1 0x2 DUP3 ADD PUSH1 0x0 SWAP1 SLOAD SWAP1 PUSH2 0x100 EXP SWAP1 DIV PUSH20 0xFFFFFFFFFFFFFFFFFFFFFFFFFFFFFFFFFFFFFFFF AND DUP2 PUSH1 0x2 ADD PUSH1 0x0 PUSH2 0x100 EXP DUP2 SLOAD DUP2 PUSH20 0xFFFFFFFFFFFFFFFFFFFFFFFFFFFFFFFFFFFFFFFF MUL NOT AND SWAP1 DUP4 PUSH20 0xFFFFFFFFFFFFFFFFFFFFFFFFFFFFFFFFFFFFFFFF AND MUL OR SWAP1 SSTORE POP PUSH1 0x3 DUP3 ADD SLOAD DUP2 PUSH1 0x3 ADD SSTORE PUSH1 0x4 DUP3 ADD SLOAD DUP2 PUSH1 0x4 ADD SSTORE PUSH1 0x5 DUP3 ADD SLOAD DUP2 PUSH1 0x5 ADD SSTORE PUSH1 0x6 DUP3 ADD SLOAD DUP2 PUSH1 0x6 ADD SSTORE PUSH1 0x7 DUP3 ADD PUSH1 0x0 SWAP1 SLOAD SWAP1 PUSH2 0x100 EXP SWAP1 DIV PUSH1 0xFF AND DUP2 PUSH1 0x7 ADD PUSH1 0x0 PUSH2 0x100 EXP DUP2 SLOAD DUP2 PUSH1 0xFF MUL NOT AND SWAP1 DUP4 ISZERO ISZERO MUL OR SWAP1 SSTORE POP SWAP1 POP POP DUP8 PUSH1 0x40 MLOAD PUSH2 0x135E SWAP2 SWAP1 PUSH2 0x23DD JUMP JUMPDEST PUSH1 0x40 MLOAD DUP1 SWAP2 SUB SWAP1 KECCAK256 PUSH32 0xF6B98D8E0D83F8B1D1FF03A2FA36ABA2C77CCF20E4FF035C0CF4AA92762E9EEC DUP9 DUP6 PUSH1 0x1 ADD SLOAD DUP7 PUSH1 0x2 ADD PUSH1 0x0 SWAP1 SLOAD SWAP1 PUSH2 0x100 EXP SWAP1 DIV PUSH20 0xFFFFFFFFFFFFFFFFFFFFFFFFFFFFFFFFFFFFFFFF AND PUSH1 0x40 MLOAD PUSH2 0x13C1 SWAP4 SWAP3 SWAP2 SWAP1 PUSH2 0x2773 JUMP JUMPDEST PUSH1 0x40 MLOAD DUP1 SWAP2 SUB SWAP1 LOG2 DUP3 PUSH1 0x3 ADD SLOAD SWAP4 POP POP POP POP SWAP5 SWAP4 POP POP POP POP JUMP JUMPDEST PUSH1 0x0 PUSH1 0x4 DUP3 PUSH1 0x40 MLOAD PUSH2 0x13ED SWAP2 SWAP1 PUSH2 0x23DD JUMP JUMPDEST SWAP1 DUP2 MSTORE PUSH1 0x20 ADD PUSH1 0x40 MLOAD DUP1 SWAP2 SUB SWAP1 KECCAK256 PUSH1 0x2 ADD PUSH1 0x0 SWAP1 SLOAD SWAP1 PUSH2 0x100 EXP SWAP1 DIV PUSH20 0xFFFFFFFFFFFFFFFFFFFFFFFFFFFFFFFFFFFFFFFF AND SWAP1 POP SWAP2 SWAP1 POP JUMP JUMPDEST PUSH1 0x0 DUP1 DUP3 SWAP1 POP DUP1 PUSH20 0xFFFFFFFFFFFFFFFFFFFFFFFFFFFFFFFFFFFFFFFF AND PUSH4 0x95EA7B3 DUP7 DUP7 PUSH1 0x40 MLOAD DUP4 PUSH4 0xFFFFFFFF AND PUSH1 0xE0 SHL DUP2 MSTORE PUSH1 0x4 ADD PUSH2 0x1467 SWAP3 SWAP2 SWAP1 PUSH2 0x27AA JUMP JUMPDEST PUSH1 0x20 PUSH1 0x40 MLOAD DUP1 DUP4 SUB DUP2 PUSH1 0x0 DUP8 GAS CALL ISZERO DUP1 ISZERO PUSH2 0x1486 JUMPI RETURNDATASIZE PUSH1 0x0 DUP1 RETURNDATACOPY RETURNDATASIZE PUSH1 0x0 REVERT JUMPDEST POP POP POP POP PUSH1 0x40 MLOAD RETURNDATASIZE PUSH1 0x1F NOT PUSH1 0x1F DUP3 ADD AND DUP3 ADD DUP1 PUSH1 0x40 MSTORE POP DUP2 ADD SWAP1 PUSH2 0x14AA SWAP2 SWAP1 PUSH2 0x2545 JUMP JUMPDEST SWAP2 POP POP SWAP4 SWAP3 POP POP POP JUMP JUMPDEST PUSH1 0x0 DUP1 DUP5 SWAP1 POP DUP1 PUSH20 0xFFFFFFFFFFFFFFFFFFFFFFFFFFFFFFFFFFFFFFFF AND PUSH4 0xA9059CBB DUP6 DUP6 PUSH1 0x40 MLOAD DUP4 PUSH4 0xFFFFFFFF AND PUSH1 0xE0 SHL DUP2 MSTORE PUSH1 0x4 ADD PUSH2 0x14F5 SWAP3 SWAP2 SWAP1 PUSH2 0x27AA JUMP JUMPDEST PUSH1 0x20 PUSH1 0x40 MLOAD DUP1 DUP4 SUB DUP2 PUSH1 0x0 DUP8 GAS CALL ISZERO DUP1 ISZERO PUSH2 0x1514 JUMPI RETURNDATASIZE PUSH1 0x0 DUP1 RETURNDATACOPY RETURNDATASIZE PUSH1 0x0 REVERT JUMPDEST POP POP POP POP PUSH1 0x40 MLOAD RETURNDATASIZE PUSH1 0x1F NOT PUSH1 0x1F DUP3 ADD AND DUP3 ADD DUP1 PUSH1 0x40 MSTORE POP DUP2 ADD SWAP1 PUSH2 0x1538 SWAP2 SWAP1 PUSH2 0x2545 JUMP JUMPDEST SWAP2 POP DUP4 PUSH20 0xFFFFFFFFFFFFFFFFFFFFFFFFFFFFFFFFFFFFFFFF AND ADDRESS PUSH20 0xFFFFFFFFFFFFFFFFFFFFFFFFFFFFFFFFFFFFFFFF AND PUSH32 0x42856D0378DDE02337BB59AE41747ABC77DED8EBDBBC5CBDD1E53693B7554938 DUP6 PUSH1 0x40 MLOAD PUSH2 0x1597 SWAP2 SWAP1 PUSH2 0x202B JUMP JUMPDEST PUSH1 0x40 MLOAD DUP1 SWAP2 SUB SWAP1 LOG3 POP SWAP4 SWAP3 POP POP POP JUMP JUMPDEST PUSH1 0x0 DUP2 DUP4 PUSH20 0xFFFFFFFFFFFFFFFFFFFFFFFFFFFFFFFFFFFFFFFF AND PUSH4 0xDD62ED3E DUP7 ADDRESS PUSH1 0x40 MLOAD DUP4 PUSH4 0xFFFFFFFF AND PUSH1 0xE0 SHL DUP2 MSTORE PUSH1 0x4 ADD PUSH2 0x15E5 SWAP3 SWAP2 SWAP1 PUSH2 0x27D3 JUMP JUMPDEST PUSH1 0x20 PUSH1 0x40 MLOAD DUP1 DUP4 SUB DUP2 DUP7 GAS STATICCALL ISZERO DUP1 ISZERO PUSH2 0x1602 JUMPI RETURNDATASIZE PUSH1 0x0 DUP1 RETURNDATACOPY RETURNDATASIZE PUSH1 0x0 REVERT JUMPDEST POP POP POP POP PUSH1 0x40 MLOAD RETURNDATASIZE PUSH1 0x1F NOT PUSH1 0x1F DUP3 ADD AND DUP3 ADD DUP1 PUSH1 0x40 MSTORE POP DUP2 ADD SWAP1 PUSH2 0x1626 SWAP2 SWAP1 PUSH2 0x2811 JUMP JUMPDEST LT ISZERO PUSH2 0x1667 JUMPI PUSH1 0x40 MLOAD PUSH32 0x8C379A000000000000000000000000000000000000000000000000000000000 DUP2 MSTORE PUSH1 0x4 ADD PUSH2 0x165E SWAP1 PUSH2 0x288A JUMP JUMPDEST PUSH1 0x40 MLOAD DUP1 SWAP2 SUB SWAP1 REVERT JUMPDEST DUP3 PUSH20 0xFFFFFFFFFFFFFFFFFFFFFFFFFFFFFFFFFFFFFFFF AND PUSH4 0x23B872DD DUP6 ADDRESS DUP6 PUSH1 0x40 MLOAD DUP5 PUSH4 0xFFFFFFFF AND PUSH1 0xE0 SHL DUP2 MSTORE PUSH1 0x4 ADD PUSH2 0x16A4 SWAP4 SWAP3 SWAP2 SWAP1 PUSH2 0x28AA JUMP JUMPDEST PUSH1 0x20 PUSH1 0x40 MLOAD DUP1 DUP4 SUB DUP2 PUSH1 0x0 DUP8 GAS CALL ISZERO DUP1 ISZERO PUSH2 0x16C3 JUMPI RETURNDATASIZE PUSH1 0x0 DUP1 RETURNDATACOPY RETURNDATASIZE PUSH1 0x0 REVERT JUMPDEST POP POP POP POP PUSH1 0x40 MLOAD RETURNDATASIZE PUSH1 0x1F NOT PUSH1 0x1F DUP3 ADD AND DUP3 ADD DUP1 PUSH1 0x40 MSTORE POP DUP2 ADD SWAP1 PUSH2 0x16E7 SWAP2 SWAP1 PUSH2 0x2545 JUMP JUMPDEST SWAP1 POP SWAP4 SWAP3 POP POP POP JUMP JUMPDEST PUSH1 0x0 PUSH2 0x1709 DUP7 DUP6 DUP8 PUSH2 0x1702 SWAP2 SWAP1 PUSH2 0x2423 JUMP JUMPDEST DUP6 DUP6 PUSH2 0x1756 JUMP JUMPDEST SWAP1 POP DUP1 PUSH1 0x3 DUP2 SWAP1 SSTORE POP SWAP6 SWAP5 POP POP POP POP POP JUMP JUMPDEST PUSH1 0x5 PUSH1 0x0 ADD DUP2 SWAP1 DUP1 PUSH1 0x1 DUP2 SLOAD ADD DUP1 DUP3 SSTORE DUP1 SWAP2 POP POP PUSH1 0x1 SWAP1 SUB SWAP1 PUSH1 0x0 MSTORE PUSH1 0x20 PUSH1 0x0 KECCAK256 ADD PUSH1 0x0 SWAP1 SWAP2 SWAP1 SWAP2 SWAP1 SWAP2 POP SWAP1 DUP2 PUSH2 0x1752 SWAP2 SWAP1 PUSH2 0x2A83 JUMP JUMPDEST POP POP JUMP JUMPDEST PUSH1 0x0 DUP1 PUSH2 0x178D PUSH1 0x64 PUSH2 0x177F DUP7 DUP8 PUSH3 0xE4E1C0 PUSH2 0x1771 SWAP2 SWAP1 PUSH2 0x2423 JUMP JUMPDEST PUSH2 0x1823 SWAP1 SWAP2 SWAP1 PUSH4 0xFFFFFFFF AND JUMP JUMPDEST PUSH2 0x1840 SWAP1 SWAP2 SWAP1 PUSH4 0xFFFFFFFF AND JUMP JUMPDEST SWAP1 POP PUSH1 0x0 PUSH2 0x17B3 DUP5 DUP4 PUSH2 0x17A0 SWAP2 SWAP1 PUSH2 0x2457 JUMP JUMPDEST PUSH4 0x5F5E100 PUSH2 0x1823 SWAP1 SWAP2 SWAP1 PUSH4 0xFFFFFFFF AND JUMP JUMPDEST SWAP1 POP PUSH1 0x0 PUSH2 0x17CE PUSH4 0x1E13380 DUP9 PUSH2 0x1823 SWAP1 SWAP2 SWAP1 PUSH4 0xFFFFFFFF AND JUMP JUMPDEST SWAP1 POP PUSH2 0x1816 PUSH2 0x1811 PUSH9 0x3635C9ADC5DEA00000 PUSH1 0x64 PUSH2 0x17EC SWAP2 SWAP1 PUSH2 0x2457 JUMP JUMPDEST DUP4 DUP6 DUP13 PUSH2 0x17F9 SWAP2 SWAP1 PUSH2 0x2457 JUMP JUMPDEST PUSH2 0x1803 SWAP2 SWAP1 PUSH2 0x2457 JUMP JUMPDEST PUSH2 0x1823 SWAP1 SWAP2 SWAP1 PUSH4 0xFFFFFFFF AND JUMP JUMPDEST PUSH2 0x1854 JUMP JUMPDEST SWAP4 POP POP POP POP SWAP5 SWAP4 POP POP POP POP JUMP JUMPDEST PUSH1 0x0 PUSH2 0x1838 DUP4 PUSH8 0xDE0B6B3A7640000 DUP5 PUSH2 0x1876 JUMP JUMPDEST SWAP1 POP SWAP3 SWAP2 POP POP JUMP JUMPDEST PUSH1 0x0 PUSH2 0x184C DUP4 DUP4 PUSH2 0x198B JUMP JUMPDEST SWAP1 POP SWAP3 SWAP2 POP POP JUMP JUMPDEST PUSH1 0x0 PUSH8 0xDE0B6B3A7640000 DUP3 DUP2 PUSH2 0x186E JUMPI PUSH2 0x186D PUSH2 0x2499 JUMP JUMPDEST JUMPDEST DIV SWAP1 POP SWAP2 SWAP1 POP JUMP JUMPDEST PUSH1 0x0 DUP1 PUSH1 0x0 DUP1 NOT DUP6 DUP8 MULMOD DUP6 DUP8 MUL SWAP3 POP DUP3 DUP2 LT DUP4 DUP3 SUB SUB SWAP2 POP POP PUSH1 0x0 DUP2 SUB PUSH2 0x18B1 JUMPI DUP4 DUP3 DUP2 PUSH2 0x18A7 JUMPI PUSH2 0x18A6 PUSH2 0x2499 JUMP JUMPDEST JUMPDEST DIV SWAP3 POP POP POP PUSH2 0x1984 JUMP JUMPDEST DUP4 DUP2 LT PUSH2 0x18F7 JUMPI DUP1 DUP5 PUSH1 0x40 MLOAD PUSH32 0x773CC18C00000000000000000000000000000000000000000000000000000000 DUP2 MSTORE PUSH1 0x4 ADD PUSH2 0x18EE SWAP3 SWAP2 SWAP1 PUSH2 0x2B55 JUMP JUMPDEST PUSH1 0x40 MLOAD DUP1 SWAP2 SUB SWAP1 REVERT JUMPDEST PUSH1 0x0 DUP5 DUP7 DUP9 MULMOD SWAP1 POP DUP3 DUP2 GT DUP3 SUB SWAP2 POP DUP1 DUP4 SUB SWAP3 POP PUSH1 0x0 PUSH1 0x1 DUP7 NOT ADD DUP7 AND SWAP1 POP DUP1 DUP7 DIV SWAP6 POP DUP1 DUP5 DIV SWAP4 POP PUSH1 0x1 DUP2 DUP3 PUSH1 0x0 SUB DIV ADD SWAP1 POP DUP1 DUP4 MUL DUP5 OR SWAP4 POP PUSH1 0x0 PUSH1 0x2 DUP8 PUSH1 0x3 MUL XOR SWAP1 POP DUP1 DUP8 MUL PUSH1 0x2 SUB DUP2 MUL SWAP1 POP DUP1 DUP8 MUL PUSH1 0x2 SUB DUP2 MUL SWAP1 POP DUP1 DUP8 MUL PUSH1 0x2 SUB DUP2 MUL SWAP1 POP DUP1 DUP8 MUL PUSH1 0x2 SUB DUP2 MUL SWAP1 POP DUP1 DUP8 MUL PUSH1 0x2 SUB DUP2 MUL SWAP1 POP DUP1 DUP8 MUL PUSH1 0x2 SUB DUP2 MUL SWAP1 POP DUP1 DUP6 MUL SWAP6 POP POP POP POP POP POP JUMPDEST SWAP4 SWAP3 POP POP POP JUMP JUMPDEST PUSH1 0x0 DUP1 PUSH1 0x0 DUP1 NOT DUP5 DUP7 MULMOD DUP5 DUP7 MUL SWAP3 POP DUP3 DUP2 LT DUP4 DUP3 SUB SUB SWAP2 POP POP PUSH8 0xDE0B6B3A7640000 DUP2 LT PUSH2 0x19F0 JUMPI DUP1 PUSH1 0x40 MLOAD PUSH32 0xD31B340200000000000000000000000000000000000000000000000000000000 DUP2 MSTORE PUSH1 0x4 ADD PUSH2 0x19E7 SWAP2 SWAP1 PUSH2 0x202B JUMP JUMPDEST PUSH1 0x40 MLOAD DUP1 SWAP2 SUB SWAP1 REVERT JUMPDEST PUSH1 0x0 DUP1 PUSH8 0xDE0B6B3A7640000 DUP7 DUP9 MULMOD SWAP2 POP PUSH8 0x6F05B59D3B1FFFF DUP3 GT SWAP1 POP PUSH1 0x0 DUP4 SUB PUSH2 0x1A3C JUMPI DUP1 PUSH8 0xDE0B6B3A7640000 DUP6 DUP2 PUSH2 0x1A2F JUMPI PUSH2 0x1A2E PUSH2 0x2499 JUMP JUMPDEST JUMPDEST DIV ADD SWAP5 POP POP POP POP POP PUSH2 0x1A82 JUMP JUMPDEST DUP1 PUSH32 0xACCB18165BD6FE31AE1CF318DC5B51EEE0E1BA569B88CD74C1773B91FAC10669 PUSH1 0x1 PUSH3 0x40000 DUP1 PUSH1 0x0 SUB DIV ADD DUP7 DUP6 GT DUP7 SUB MUL PUSH3 0x40000 DUP6 DUP9 SUB DIV OR MUL ADD SWAP5 POP POP POP POP POP JUMPDEST SWAP3 SWAP2 POP POP JUMP JUMPDEST PUSH1 0x40 MLOAD DUP1 PUSH2 0x100 ADD PUSH1 0x40 MSTORE DUP1 PUSH1 0x0 ISZERO ISZERO DUP2 MSTORE PUSH1 0x20 ADD PUSH1 0x0 DUP2 MSTORE PUSH1 0x20 ADD PUSH1 0x0 PUSH20 0xFFFFFFFFFFFFFFFFFFFFFFFFFFFFFFFFFFFFFFFF AND DUP2 MSTORE PUSH1 0x20 ADD PUSH1 0x0 DUP2 MSTORE PUSH1 0x20 ADD PUSH1 0x0 DUP2 MSTORE PUSH1 0x20 ADD PUSH1 0x0 DUP2 MSTORE PUSH1 0x20 ADD PUSH1 0x0 DUP2 MSTORE PUSH1 0x20 ADD PUSH1 0x0 ISZERO ISZERO DUP2 MSTORE POP SWAP1 JUMP JUMPDEST PUSH1 0x40 MLOAD DUP1 PUSH1 0x20 ADD PUSH1 0x40 MSTORE DUP1 PUSH1 0x60 DUP2 MSTORE POP SWAP1 JUMP JUMPDEST PUSH1 0x0 PUSH1 0x40 MLOAD SWAP1 POP SWAP1 JUMP JUMPDEST PUSH1 0x0 DUP1 REVERT JUMPDEST PUSH1 0x0 DUP1 REVERT JUMPDEST PUSH1 0x0 DUP1 REVERT JUMPDEST PUSH1 0x0 DUP1 REVERT JUMPDEST PUSH1 0x0 PUSH1 0x1F NOT PUSH1 0x1F DUP4 ADD AND SWAP1 POP SWAP2 SWAP1 POP JUMP JUMPDEST PUSH32 0x4E487B7100000000000000000000000000000000000000000000000000000000 PUSH1 0x0 MSTORE PUSH1 0x41 PUSH1 0x4 MSTORE PUSH1 0x24 PUSH1 0x0 REVERT JUMPDEST PUSH2 0x1B61 DUP3 PUSH2 0x1B18 JUMP JUMPDEST DUP2 ADD DUP2 DUP2 LT PUSH8 0xFFFFFFFFFFFFFFFF DUP3 GT OR ISZERO PUSH2 0x1B80 JUMPI PUSH2 0x1B7F PUSH2 0x1B29 JUMP JUMPDEST JUMPDEST DUP1 PUSH1 0x40 MSTORE POP POP POP JUMP JUMPDEST PUSH1 0x0 PUSH2 0x1B93 PUSH2 0x1AFA JUMP JUMPDEST SWAP1 POP PUSH2 0x1B9F DUP3 DUP3 PUSH2 0x1B58 JUMP JUMPDEST SWAP2 SWAP1 POP JUMP JUMPDEST PUSH1 0x0 PUSH8 0xFFFFFFFFFFFFFFFF DUP3 GT ISZERO PUSH2 0x1BBF JUMPI PUSH2 0x1BBE PUSH2 0x1B29 JUMP JUMPDEST JUMPDEST PUSH2 0x1BC8 DUP3 PUSH2 0x1B18 JUMP JUMPDEST SWAP1 POP PUSH1 0x20 DUP2 ADD SWAP1 POP SWAP2 SWAP1 POP JUMP JUMPDEST DUP3 DUP2 DUP4 CALLDATACOPY PUSH1 0x0 DUP4 DUP4 ADD MSTORE POP POP POP JUMP JUMPDEST PUSH1 0x0 PUSH2 0x1BF7 PUSH2 0x1BF2 DUP5 PUSH2 0x1BA4 JUMP JUMPDEST PUSH2 0x1B89 JUMP JUMPDEST SWAP1 POP DUP3 DUP2 MSTORE PUSH1 0x20 DUP2 ADD DUP5 DUP5 DUP5 ADD GT ISZERO PUSH2 0x1C13 JUMPI PUSH2 0x1C12 PUSH2 0x1B13 JUMP JUMPDEST JUMPDEST PUSH2 0x1C1E DUP5 DUP3 DUP6 PUSH2 0x1BD5 JUMP JUMPDEST POP SWAP4 SWAP3 POP POP POP JUMP JUMPDEST PUSH1 0x0 DUP3 PUSH1 0x1F DUP4 ADD SLT PUSH2 0x1C3B JUMPI PUSH2 0x1C3A PUSH2 0x1B0E JUMP JUMPDEST JUMPDEST DUP2 CALLDATALOAD PUSH2 0x1C4B DUP5 DUP3 PUSH1 0x20 DUP7 ADD PUSH2 0x1BE4 JUMP JUMPDEST SWAP2 POP POP SWAP3 SWAP2 POP POP JUMP JUMPDEST PUSH1 0x0 PUSH1 0x20 DUP3 DUP5 SUB SLT ISZERO PUSH2 0x1C6A JUMPI PUSH2 0x1C69 PUSH2 0x1B04 JUMP JUMPDEST JUMPDEST PUSH1 0x0 DUP3 ADD CALLDATALOAD PUSH8 0xFFFFFFFFFFFFFFFF DUP2 GT ISZERO PUSH2 0x1C88 JUMPI PUSH2 0x1C87 PUSH2 0x1B09 JUMP JUMPDEST JUMPDEST PUSH2 0x1C94 DUP5 DUP3 DUP6 ADD PUSH2 0x1C26 JUMP JUMPDEST SWAP2 POP POP SWAP3 SWAP2 POP POP JUMP JUMPDEST PUSH1 0x0 DUP2 ISZERO ISZERO SWAP1 POP SWAP2 SWAP1 POP JUMP JUMPDEST PUSH2 0x1CB2 DUP2 PUSH2 0x1C9D JUMP JUMPDEST DUP3 MSTORE POP POP JUMP JUMPDEST PUSH1 0x0 DUP2 SWAP1 POP SWAP2 SWAP1 POP JUMP JUMPDEST PUSH2 0x1CCB DUP2 PUSH2 0x1CB8 JUMP JUMPDEST DUP3 MSTORE POP POP JUMP JUMPDEST PUSH1 0x0 PUSH20 0xFFFFFFFFFFFFFFFFFFFFFFFFFFFFFFFFFFFFFFFF DUP3 AND SWAP1 POP SWAP2 SWAP1 POP JUMP JUMPDEST PUSH1 0x0 PUSH2 0x1CFC DUP3 PUSH2 0x1CD1 JUMP JUMPDEST SWAP1 POP SWAP2 SWAP1 POP JUMP JUMPDEST PUSH2 0x1D0C DUP2 PUSH2 0x1CF1 JUMP JUMPDEST DUP3 MSTORE POP POP JUMP JUMPDEST PUSH1 0x0 PUSH2 0x100 DUP3 ADD SWAP1 POP PUSH2 0x1D28 PUSH1 0x0 DUP4 ADD DUP12 PUSH2 0x1CA9 JUMP JUMPDEST PUSH2 0x1D35 PUSH1 0x20 DUP4 ADD DUP11 PUSH2 0x1CC2 JUMP JUMPDEST PUSH2 0x1D42 PUSH1 0x40 DUP4 ADD DUP10 PUSH2 0x1D03 JUMP JUMPDEST PUSH2 0x1D4F PUSH1 0x60 DUP4 ADD DUP9 PUSH2 0x1CC2 JUMP JUMPDEST PUSH2 0x1D5C PUSH1 0x80 DUP4 ADD DUP8 PUSH2 0x1CC2 JUMP JUMPDEST PUSH2 0x1D69 PUSH1 0xA0 DUP4 ADD DUP7 PUSH2 0x1CC2 JUMP JUMPDEST PUSH2 0x1D76 PUSH1 0xC0 DUP4 ADD DUP6 PUSH2 0x1CC2 JUMP JUMPDEST PUSH2 0x1D83 PUSH1 0xE0 DUP4 ADD DUP5 PUSH2 0x1CA9 JUMP JUMPDEST SWAP10 SWAP9 POP POP POP POP POP POP POP POP POP JUMP JUMPDEST PUSH1 0x0 PUSH1 0x20 DUP3 ADD SWAP1 POP PUSH2 0x1DA5 PUSH1 0x0 DUP4 ADD DUP5 PUSH2 0x1CA9 JUMP JUMPDEST SWAP3 SWAP2 POP POP JUMP JUMPDEST PUSH1 0x0 PUSH2 0x1DB6 DUP3 PUSH2 0x1CD1 JUMP JUMPDEST SWAP1 POP SWAP2 SWAP1 POP JUMP JUMPDEST PUSH2 0x1DC6 DUP2 PUSH2 0x1DAB JUMP JUMPDEST DUP3 MSTORE POP POP JUMP JUMPDEST PUSH1 0x0 PUSH1 0x20 DUP3 ADD SWAP1 POP PUSH2 0x1DE1 PUSH1 0x0 DUP4 ADD DUP5 PUSH2 0x1DBD JUMP JUMPDEST SWAP3 SWAP2 POP POP JUMP JUMPDEST PUSH1 0x0 DUP2 MLOAD SWAP1 POP SWAP2 SWAP1 POP JUMP JUMPDEST PUSH1 0x0 DUP3 DUP3 MSTORE PUSH1 0x20 DUP3 ADD SWAP1 POP SWAP3 SWAP2 POP POP JUMP JUMPDEST PUSH1 0x0 JUMPDEST DUP4 DUP2 LT ISZERO PUSH2 0x1E21 JUMPI DUP1 DUP3 ADD MLOAD DUP2 DUP5 ADD MSTORE PUSH1 0x20 DUP2 ADD SWAP1 POP PUSH2 0x1E06 JUMP JUMPDEST PUSH1 0x0 DUP5 DUP5 ADD MSTORE POP POP POP POP JUMP JUMPDEST PUSH1 0x0 PUSH2 0x1E38 DUP3 PUSH2 0x1DE7 JUMP JUMPDEST PUSH2 0x1E42 DUP2 DUP6 PUSH2 0x1DF2 JUMP JUMPDEST SWAP4 POP PUSH2 0x1E52 DUP2 DUP6 PUSH1 0x20 DUP7 ADD PUSH2 0x1E03 JUMP JUMPDEST PUSH2 0x1E5B DUP2 PUSH2 0x1B18 JUMP JUMPDEST DUP5 ADD SWAP2 POP POP SWAP3 SWAP2 POP POP JUMP JUMPDEST PUSH1 0x0 PUSH1 0x20 DUP3 ADD SWAP1 POP DUP2 DUP2 SUB PUSH1 0x0 DUP4 ADD MSTORE PUSH2 0x1E80 DUP2 DUP5 PUSH2 0x1E2D JUMP JUMPDEST SWAP1 POP SWAP3 SWAP2 POP POP JUMP JUMPDEST PUSH2 0x1E91 DUP2 PUSH2 0x1CB8 JUMP JUMPDEST DUP2 EQ PUSH2 0x1E9C JUMPI PUSH1 0x0 DUP1 REVERT JUMPDEST POP JUMP JUMPDEST PUSH1 0x0 DUP2 CALLDATALOAD SWAP1 POP PUSH2 0x1EAE DUP2 PUSH2 0x1E88 JUMP JUMPDEST SWAP3 SWAP2 POP POP JUMP JUMPDEST PUSH1 0x0 PUSH1 0xFF DUP3 AND SWAP1 POP SWAP2 SWAP1 POP JUMP JUMPDEST PUSH2 0x1ECA DUP2 PUSH2 0x1EB4 JUMP JUMPDEST DUP2 EQ PUSH2 0x1ED5 JUMPI PUSH1 0x0 DUP1 REVERT JUMPDEST POP JUMP JUMPDEST PUSH1 0x0 DUP2 CALLDATALOAD SWAP1 POP PUSH2 0x1EE7 DUP2 PUSH2 0x1EC1 JUMP JUMPDEST SWAP3 SWAP2 POP POP JUMP JUMPDEST PUSH2 0x1EF6 DUP2 PUSH2 0x1CF1 JUMP JUMPDEST DUP2 EQ PUSH2 0x1F01 JUMPI PUSH1 0x0 DUP1 REVERT JUMPDEST POP JUMP JUMPDEST PUSH1 0x0 DUP2 CALLDATALOAD SWAP1 POP PUSH2 0x1F13 DUP2 PUSH2 0x1EED JUMP JUMPDEST SWAP3 SWAP2 POP POP JUMP JUMPDEST PUSH2 0x1F22 DUP2 PUSH2 0x1C9D JUMP JUMPDEST DUP2 EQ PUSH2 0x1F2D JUMPI PUSH1 0x0 DUP1 REVERT JUMPDEST POP JUMP JUMPDEST PUSH1 0x0 DUP2 CALLDATALOAD SWAP1 POP PUSH2 0x1F3F DUP2 PUSH2 0x1F19 JUMP JUMPDEST SWAP3 SWAP2 POP POP JUMP JUMPDEST PUSH1 0x0 DUP1 PUSH1 0x0 DUP1 PUSH1 0x0 DUP1 PUSH1 0x0 DUP1 PUSH1 0x0 PUSH2 0x120 DUP11 DUP13 SUB SLT ISZERO PUSH2 0x1F68 JUMPI PUSH2 0x1F67 PUSH2 0x1B04 JUMP JUMPDEST JUMPDEST PUSH1 0x0 DUP11 ADD CALLDATALOAD PUSH8 0xFFFFFFFFFFFFFFFF DUP2 GT ISZERO PUSH2 0x1F86 JUMPI PUSH2 0x1F85 PUSH2 0x1B09 JUMP JUMPDEST JUMPDEST PUSH2 0x1F92 DUP13 DUP3 DUP14 ADD PUSH2 0x1C26 JUMP JUMPDEST SWAP10 POP POP PUSH1 0x20 PUSH2 0x1FA3 DUP13 DUP3 DUP14 ADD PUSH2 0x1E9F JUMP JUMPDEST SWAP9 POP POP PUSH1 0x40 PUSH2 0x1FB4 DUP13 DUP3 DUP14 ADD PUSH2 0x1E9F JUMP JUMPDEST SWAP8 POP POP PUSH1 0x60 PUSH2 0x1FC5 DUP13 DUP3 DUP14 ADD PUSH2 0x1ED8 JUMP JUMPDEST SWAP7 POP POP PUSH1 0x80 PUSH2 0x1FD6 DUP13 DUP3 DUP14 ADD PUSH2 0x1F04 JUMP JUMPDEST SWAP6 POP POP PUSH1 0xA0 PUSH2 0x1FE7 DUP13 DUP3 DUP14 ADD PUSH2 0x1E9F JUMP JUMPDEST SWAP5 POP POP PUSH1 0xC0 PUSH2 0x1FF8 DUP13 DUP3 DUP14 ADD PUSH2 0x1F30 JUMP JUMPDEST SWAP4 POP POP PUSH1 0xE0 PUSH2 0x2009 DUP13 DUP3 DUP14 ADD PUSH2 0x1E9F JUMP JUMPDEST SWAP3 POP POP PUSH2 0x100 PUSH2 0x201B DUP13 DUP3 DUP14 ADD PUSH2 0x1E9F JUMP JUMPDEST SWAP2 POP POP SWAP3 SWAP6 SWAP9 POP SWAP3 SWAP6 SWAP9 POP SWAP3 SWAP6 SWAP9 JUMP JUMPDEST PUSH1 0x0 PUSH1 0x20 DUP3 ADD SWAP1 POP PUSH2 0x2040 PUSH1 0x0 DUP4 ADD DUP5 PUSH2 0x1CC2 JUMP JUMPDEST SWAP3 SWAP2 POP POP JUMP JUMPDEST PUSH2 0x204F DUP2 PUSH2 0x1C9D JUMP JUMPDEST DUP3 MSTORE POP POP JUMP JUMPDEST PUSH2 0x205E DUP2 PUSH2 0x1CB8 JUMP JUMPDEST DUP3 MSTORE POP POP JUMP JUMPDEST PUSH2 0x206D DUP2 PUSH2 0x1CF1 JUMP JUMPDEST DUP3 MSTORE POP POP JUMP JUMPDEST PUSH2 0x100 DUP3 ADD PUSH1 0x0 DUP3 ADD MLOAD PUSH2 0x208A PUSH1 0x0 DUP6 ADD DUP3 PUSH2 0x2046 JUMP JUMPDEST POP PUSH1 0x20 DUP3 ADD MLOAD PUSH2 0x209D PUSH1 0x20 DUP6 ADD DUP3 PUSH2 0x2055 JUMP JUMPDEST POP PUSH1 0x40 DUP3 ADD MLOAD PUSH2 0x20B0 PUSH1 0x40 DUP6 ADD DUP3 PUSH2 0x2064 JUMP JUMPDEST POP PUSH1 0x60 DUP3 ADD MLOAD PUSH2 0x20C3 PUSH1 0x60 DUP6 ADD DUP3 PUSH2 0x2055 JUMP JUMPDEST POP PUSH1 0x80 DUP3 ADD MLOAD PUSH2 0x20D6 PUSH1 0x80 DUP6 ADD DUP3 PUSH2 0x2055 JUMP JUMPDEST POP PUSH1 0xA0 DUP3 ADD MLOAD PUSH2 0x20E9 PUSH1 0xA0 DUP6 ADD DUP3 PUSH2 0x2055 JUMP JUMPDEST POP PUSH1 0xC0 DUP3 ADD MLOAD PUSH2 0x20FC PUSH1 0xC0 DUP6 ADD DUP3 PUSH2 0x2055 JUMP JUMPDEST POP PUSH1 0xE0 DUP3 ADD MLOAD PUSH2 0x210F PUSH1 0xE0 DUP6 ADD DUP3 PUSH2 0x2046 JUMP JUMPDEST POP POP POP POP JUMP JUMPDEST PUSH1 0x0 PUSH2 0x100 DUP3 ADD SWAP1 POP PUSH2 0x212B PUSH1 0x0 DUP4 ADD DUP5 PUSH2 0x2073 JUMP JUMPDEST SWAP3 SWAP2 POP POP JUMP JUMPDEST PUSH1 0x0 PUSH1 0x20 DUP3 ADD SWAP1 POP PUSH2 0x2146 PUSH1 0x0 DUP4 ADD DUP5 PUSH2 0x1D03 JUMP JUMPDEST SWAP3 SWAP2 POP POP JUMP JUMPDEST PUSH1 0x0 DUP2 SWAP1 POP SWAP2 SWAP1 POP JUMP JUMPDEST PUSH1 0x0 PUSH2 0x2171 PUSH2 0x216C PUSH2 0x2167 DUP5 PUSH2 0x1CD1 JUMP JUMPDEST PUSH2 0x214C JUMP JUMPDEST PUSH2 0x1CD1 JUMP JUMPDEST SWAP1 POP SWAP2 SWAP1 POP JUMP JUMPDEST PUSH1 0x0 PUSH2 0x2183 DUP3 PUSH2 0x2156 JUMP JUMPDEST SWAP1 POP SWAP2 SWAP1 POP JUMP JUMPDEST PUSH1 0x0 PUSH2 0x2195 DUP3 PUSH2 0x2178 JUMP JUMPDEST SWAP1 POP SWAP2 SWAP1 POP JUMP JUMPDEST PUSH2 0x21A5 DUP2 PUSH2 0x218A JUMP JUMPDEST DUP3 MSTORE POP POP JUMP JUMPDEST PUSH1 0x0 PUSH1 0x20 DUP3 ADD SWAP1 POP PUSH2 0x21C0 PUSH1 0x0 DUP4 ADD DUP5 PUSH2 0x219C JUMP JUMPDEST SWAP3 SWAP2 POP POP JUMP JUMPDEST PUSH1 0x0 DUP2 MLOAD SWAP1 POP SWAP2 SWAP1 POP JUMP JUMPDEST PUSH1 0x0 DUP3 DUP3 MSTORE PUSH1 0x20 DUP3 ADD SWAP1 POP SWAP3 SWAP2 POP POP JUMP JUMPDEST PUSH1 0x0 DUP2 SWAP1 POP PUSH1 0x20 DUP3 ADD SWAP1 POP SWAP2 SWAP1 POP JUMP JUMPDEST PUSH1 0x0 DUP3 DUP3 MSTORE PUSH1 0x20 DUP3 ADD SWAP1 POP SWAP3 SWAP2 POP POP JUMP JUMPDEST PUSH1 0x0 PUSH2 0x220E DUP3 PUSH2 0x1DE7 JUMP JUMPDEST PUSH2 0x2218 DUP2 DUP6 PUSH2 0x21F2 JUMP JUMPDEST SWAP4 POP PUSH2 0x2228 DUP2 DUP6 PUSH1 0x20 DUP7 ADD PUSH2 0x1E03 JUMP JUMPDEST PUSH2 0x2231 DUP2 PUSH2 0x1B18 JUMP JUMPDEST DUP5 ADD SWAP2 POP POP SWAP3 SWAP2 POP POP JUMP JUMPDEST PUSH1 0x0 PUSH2 0x2248 DUP4 DUP4 PUSH2 0x2203 JUMP JUMPDEST SWAP1 POP SWAP3 SWAP2 POP POP JUMP JUMPDEST PUSH1 0x0 PUSH1 0x20 DUP3 ADD SWAP1 POP SWAP2 SWAP1 POP JUMP JUMPDEST PUSH1 0x0 PUSH2 0x2268 DUP3 PUSH2 0x21C6 JUMP JUMPDEST PUSH2 0x2272 DUP2 DUP6 PUSH2 0x21D1 JUMP JUMPDEST SWAP4 POP DUP4 PUSH1 0x20 DUP3 MUL DUP6 ADD PUSH2 0x2284 DUP6 PUSH2 0x21E2 JUMP JUMPDEST DUP1 PUSH1 0x0 JUMPDEST DUP6 DUP2 LT ISZERO PUSH2 0x22C0 JUMPI DUP5 DUP5 SUB DUP10 MSTORE DUP2 MLOAD PUSH2 0x22A1 DUP6 DUP3 PUSH2 0x223C JUMP JUMPDEST SWAP5 POP PUSH2 0x22AC DUP4 PUSH2 0x2250 JUMP JUMPDEST SWAP3 POP PUSH1 0x20 DUP11 ADD SWAP10 POP POP PUSH1 0x1 DUP2 ADD SWAP1 POP PUSH2 0x2288 JUMP JUMPDEST POP DUP3 SWAP8 POP DUP8 SWAP6 POP POP POP POP POP POP SWAP3 SWAP2 POP POP JUMP JUMPDEST PUSH1 0x0 PUSH1 0x20 DUP4 ADD PUSH1 0x0 DUP4 ADD MLOAD DUP5 DUP3 SUB PUSH1 0x0 DUP7 ADD MSTORE PUSH2 0x22EF DUP3 DUP3 PUSH2 0x225D JUMP JUMPDEST SWAP2 POP POP DUP1 SWAP2 POP POP SWAP3 SWAP2 POP POP JUMP JUMPDEST PUSH1 0x0 PUSH1 0x20 DUP3 ADD SWAP1 POP DUP2 DUP2 SUB PUSH1 0x0 DUP4 ADD MSTORE PUSH2 0x2316 DUP2 DUP5 PUSH2 0x22D2 JUMP JUMPDEST SWAP1 POP SWAP3 SWAP2 POP POP JUMP JUMPDEST PUSH1 0x0 DUP1 PUSH1 0x0 DUP1 PUSH1 0x80 DUP6 DUP8 SUB SLT ISZERO PUSH2 0x2338 JUMPI PUSH2 0x2337 PUSH2 0x1B04 JUMP JUMPDEST JUMPDEST PUSH1 0x0 DUP6 ADD CALLDATALOAD PUSH8 0xFFFFFFFFFFFFFFFF DUP2 GT ISZERO PUSH2 0x2356 JUMPI PUSH2 0x2355 PUSH2 0x1B09 JUMP JUMPDEST JUMPDEST PUSH2 0x2362 DUP8 DUP3 DUP9 ADD PUSH2 0x1C26 JUMP JUMPDEST SWAP5 POP POP PUSH1 0x20 PUSH2 0x2373 DUP8 DUP3 DUP9 ADD PUSH2 0x1E9F JUMP JUMPDEST SWAP4 POP POP PUSH1 0x40 PUSH2 0x2384 DUP8 DUP3 DUP9 ADD PUSH2 0x1E9F JUMP JUMPDEST SWAP3 POP POP PUSH1 0x60 PUSH2 0x2395 DUP8 DUP3 DUP9 ADD PUSH2 0x1E9F JUMP JUMPDEST SWAP2 POP POP SWAP3 SWAP6 SWAP2 SWAP5 POP SWAP3 POP JUMP JUMPDEST PUSH1 0x0 DUP2 SWAP1 POP SWAP3 SWAP2 POP POP JUMP JUMPDEST PUSH1 0x0 PUSH2 0x23B7 DUP3 PUSH2 0x1DE7 JUMP JUMPDEST PUSH2 0x23C1 DUP2 DUP6 PUSH2 0x23A1 JUMP JUMPDEST SWAP4 POP PUSH2 0x23D1 DUP2 DUP6 PUSH1 0x20 DUP7 ADD PUSH2 0x1E03 JUMP JUMPDEST DUP1 DUP5 ADD SWAP2 POP POP SWAP3 SWAP2 POP POP JUMP JUMPDEST PUSH1 0x0 PUSH2 0x23E9 DUP3 DUP5 PUSH2 0x23AC JUMP JUMPDEST SWAP2 POP DUP2 SWAP1 POP SWAP3 SWAP2 POP POP JUMP JUMPDEST PUSH32 0x4E487B7100000000000000000000000000000000000000000000000000000000 PUSH1 0x0 MSTORE PUSH1 0x11 PUSH1 0x4 MSTORE PUSH1 0x24 PUSH1 0x0 REVERT JUMPDEST PUSH1 0x0 PUSH2 0x242E DUP3 PUSH2 0x1CB8 JUMP JUMPDEST SWAP2 POP PUSH2 0x2439 DUP4 PUSH2 0x1CB8 JUMP JUMPDEST SWAP3 POP DUP3 DUP3 SUB SWAP1 POP DUP2 DUP2 GT ISZERO PUSH2 0x2451 JUMPI PUSH2 0x2450 PUSH2 0x23F4 JUMP JUMPDEST JUMPDEST SWAP3 SWAP2 POP POP JUMP JUMPDEST PUSH1 0x0 PUSH2 0x2462 DUP3 PUSH2 0x1CB8 JUMP JUMPDEST SWAP2 POP PUSH2 0x246D DUP4 PUSH2 0x1CB8 JUMP JUMPDEST SWAP3 POP DUP3 DUP3 MUL PUSH2 0x247B DUP2 PUSH2 0x1CB8 JUMP JUMPDEST SWAP2 POP DUP3 DUP3 DIV DUP5 EQ DUP4 ISZERO OR PUSH2 0x2492 JUMPI PUSH2 0x2491 PUSH2 0x23F4 JUMP JUMPDEST JUMPDEST POP SWAP3 SWAP2 POP POP JUMP JUMPDEST PUSH32 0x4E487B7100000000000000000000000000000000000000000000000000000000 PUSH1 0x0 MSTORE PUSH1 0x12 PUSH1 0x4 MSTORE PUSH1 0x24 PUSH1 0x0 REVERT JUMPDEST PUSH1 0x0 PUSH2 0x24D3 DUP3 PUSH2 0x1CB8 JUMP JUMPDEST SWAP2 POP PUSH2 0x24DE DUP4 PUSH2 0x1CB8 JUMP JUMPDEST SWAP3 POP DUP3 PUSH2 0x24EE JUMPI PUSH2 0x24ED PUSH2 0x2499 JUMP JUMPDEST JUMPDEST DUP3 DUP3 DIV SWAP1 POP SWAP3 SWAP2 POP POP JUMP JUMPDEST PUSH1 0x0 PUSH1 0x60 DUP3 ADD SWAP1 POP PUSH2 0x250E PUSH1 0x0 DUP4 ADD DUP7 PUSH2 0x1D03 JUMP JUMPDEST PUSH2 0x251B PUSH1 0x20 DUP4 ADD DUP6 PUSH2 0x1CC2 JUMP JUMPDEST PUSH2 0x2528 PUSH1 0x40 DUP4 ADD DUP5 PUSH2 0x1D03 JUMP JUMPDEST SWAP5 SWAP4 POP POP POP POP JUMP JUMPDEST PUSH1 0x0 DUP2 MLOAD SWAP1 POP PUSH2 0x253F DUP2 PUSH2 0x1F19 JUMP JUMPDEST SWAP3 SWAP2 POP POP JUMP JUMPDEST PUSH1 0x0 PUSH1 0x20 DUP3 DUP5 SUB SLT ISZERO PUSH2 0x255B JUMPI PUSH2 0x255A PUSH2 0x1B04 JUMP JUMPDEST JUMPDEST PUSH1 0x0 PUSH2 0x2569 DUP5 DUP3 DUP6 ADD PUSH2 0x2530 JUMP JUMPDEST SWAP2 POP POP SWAP3 SWAP2 POP POP JUMP JUMPDEST PUSH1 0x0 DUP2 SWAP1 POP SWAP3 SWAP2 POP POP JUMP JUMPDEST POP JUMP JUMPDEST PUSH1 0x0 PUSH2 0x258D PUSH1 0x0 DUP4 PUSH2 0x2572 JUMP JUMPDEST SWAP2 POP PUSH2 0x2598 DUP3 PUSH2 0x257D JUMP JUMPDEST PUSH1 0x0 DUP3 ADD SWAP1 POP SWAP2 SWAP1 POP JUMP JUMPDEST PUSH1 0x0 PUSH2 0x25AE DUP3 PUSH2 0x2580 JUMP JUMPDEST SWAP2 POP DUP2 SWAP1 POP SWAP2 SWAP1 POP JUMP JUMPDEST PUSH32 0x436F756C646E27742073656E642066756E647300000000000000000000000000 PUSH1 0x0 DUP3 ADD MSTORE POP JUMP JUMPDEST PUSH1 0x0 PUSH2 0x25EE PUSH1 0x13 DUP4 PUSH2 0x1DF2 JUMP JUMPDEST SWAP2 POP PUSH2 0x25F9 DUP3 PUSH2 0x25B8 JUMP JUMPDEST PUSH1 0x20 DUP3 ADD SWAP1 POP SWAP2 SWAP1 POP JUMP JUMPDEST PUSH1 0x0 PUSH1 0x20 DUP3 ADD SWAP1 POP DUP2 DUP2 SUB PUSH1 0x0 DUP4 ADD MSTORE PUSH2 0x261D DUP2 PUSH2 0x25E1 JUMP JUMPDEST SWAP1 POP SWAP2 SWAP1 POP JUMP JUMPDEST PUSH1 0x0 PUSH1 0x40 DUP3 ADD SWAP1 POP PUSH2 0x2639 PUSH1 0x0 DUP4 ADD DUP6 PUSH2 0x1CC2 JUMP JUMPDEST PUSH2 0x2646 PUSH1 0x20 DUP4 ADD DUP5 PUSH2 0x1D03 JUMP JUMPDEST SWAP4 SWAP3 POP POP POP JUMP JUMPDEST PUSH32 0x4E487B7100000000000000000000000000000000000000000000000000000000 PUSH1 0x0 MSTORE PUSH1 0x22 PUSH1 0x4 MSTORE PUSH1 0x24 PUSH1 0x0 REVERT JUMPDEST PUSH1 0x0 PUSH1 0x2 DUP3 DIV SWAP1 POP PUSH1 0x1 DUP3 AND DUP1 PUSH2 0x2694 JUMPI PUSH1 0x7F DUP3 AND SWAP2 POP JUMPDEST PUSH1 0x20 DUP3 LT DUP2 SUB PUSH2 0x26A7 JUMPI PUSH2 0x26A6 PUSH2 0x264D JUMP JUMPDEST JUMPDEST POP SWAP2 SWAP1 POP JUMP JUMPDEST PUSH32 0x496E76616C696420736176696E6720696E6372656D656E742076616C75652073 PUSH1 0x0 DUP3 ADD MSTORE PUSH32 0x656E740000000000000000000000000000000000000000000000000000000000 PUSH1 0x20 DUP3 ADD MSTORE POP JUMP JUMPDEST PUSH1 0x0 PUSH2 0x2709 PUSH1 0x23 DUP4 PUSH2 0x1DF2 JUMP JUMPDEST SWAP2 POP PUSH2 0x2714 DUP3 PUSH2 0x26AD JUMP JUMPDEST PUSH1 0x40 DUP3 ADD SWAP1 POP SWAP2 SWAP1 POP JUMP JUMPDEST PUSH1 0x0 PUSH1 0x20 DUP3 ADD SWAP1 POP DUP2 DUP2 SUB PUSH1 0x0 DUP4 ADD MSTORE PUSH2 0x2738 DUP2 PUSH2 0x26FC JUMP JUMPDEST SWAP1 POP SWAP2 SWAP1 POP JUMP JUMPDEST PUSH1 0x0 PUSH2 0x274A DUP3 PUSH2 0x1CB8 JUMP JUMPDEST SWAP2 POP PUSH2 0x2755 DUP4 PUSH2 0x1CB8 JUMP JUMPDEST SWAP3 POP DUP3 DUP3 ADD SWAP1 POP DUP1 DUP3 GT ISZERO PUSH2 0x276D JUMPI PUSH2 0x276C PUSH2 0x23F4 JUMP JUMPDEST JUMPDEST SWAP3 SWAP2 POP POP JUMP JUMPDEST PUSH1 0x0 PUSH1 0x60 DUP3 ADD SWAP1 POP PUSH2 0x2788 PUSH1 0x0 DUP4 ADD DUP7 PUSH2 0x1CC2 JUMP JUMPDEST PUSH2 0x2795 PUSH1 0x20 DUP4 ADD DUP6 PUSH2 0x1CC2 JUMP JUMPDEST PUSH2 0x27A2 PUSH1 0x40 DUP4 ADD DUP5 PUSH2 0x1D03 JUMP JUMPDEST SWAP5 SWAP4 POP POP POP POP JUMP JUMPDEST PUSH1 0x0 PUSH1 0x40 DUP3 ADD SWAP1 POP PUSH2 0x27BF PUSH1 0x0 DUP4 ADD DUP6 PUSH2 0x1D03 JUMP JUMPDEST PUSH2 0x27CC PUSH1 0x20 DUP4 ADD DUP5 PUSH2 0x1CC2 JUMP JUMPDEST SWAP4 SWAP3 POP POP POP JUMP JUMPDEST PUSH1 0x0 PUSH1 0x40 DUP3 ADD SWAP1 POP PUSH2 0x27E8 PUSH1 0x0 DUP4 ADD DUP6 PUSH2 0x1D03 JUMP JUMPDEST PUSH2 0x27F5 PUSH1 0x20 DUP4 ADD DUP5 PUSH2 0x1D03 JUMP JUMPDEST SWAP4 SWAP3 POP POP POP JUMP JUMPDEST PUSH1 0x0 DUP2 MLOAD SWAP1 POP PUSH2 0x280B DUP2 PUSH2 0x1E88 JUMP JUMPDEST SWAP3 SWAP2 POP POP JUMP JUMPDEST PUSH1 0x0 PUSH1 0x20 DUP3 DUP5 SUB SLT ISZERO PUSH2 0x2827 JUMPI PUSH2 0x2826 PUSH2 0x1B04 JUMP JUMPDEST JUMPDEST PUSH1 0x0 PUSH2 0x2835 DUP5 DUP3 DUP6 ADD PUSH2 0x27FC JUMP JUMPDEST SWAP2 POP POP SWAP3 SWAP2 POP POP JUMP JUMPDEST PUSH32 0x546F6B656E20636F756C64206E6F742062652077697468647261776E00000000 PUSH1 0x0 DUP3 ADD MSTORE POP JUMP JUMPDEST PUSH1 0x0 PUSH2 0x2874 PUSH1 0x1C DUP4 PUSH2 0x1DF2 JUMP JUMPDEST SWAP2 POP PUSH2 0x287F DUP3 PUSH2 0x283E JUMP JUMPDEST PUSH1 0x20 DUP3 ADD SWAP1 POP SWAP2 SWAP1 POP JUMP JUMPDEST PUSH1 0x0 PUSH1 0x20 DUP3 ADD SWAP1 POP DUP2 DUP2 SUB PUSH1 0x0 DUP4 ADD MSTORE PUSH2 0x28A3 DUP2 PUSH2 0x2867 JUMP JUMPDEST SWAP1 POP SWAP2 SWAP1 POP JUMP JUMPDEST PUSH1 0x0 PUSH1 0x60 DUP3 ADD SWAP1 POP PUSH2 0x28BF PUSH1 0x0 DUP4 ADD DUP7 PUSH2 0x1D03 JUMP JUMPDEST PUSH2 0x28CC PUSH1 0x20 DUP4 ADD DUP6 PUSH2 0x1D03 JUMP JUMPDEST PUSH2 0x28D9 PUSH1 0x40 DUP4 ADD DUP5 PUSH2 0x1CC2 JUMP JUMPDEST SWAP5 SWAP4 POP POP POP POP JUMP JUMPDEST PUSH1 0x0 DUP2 SWAP1 POP DUP2 PUSH1 0x0 MSTORE PUSH1 0x20 PUSH1 0x0 KECCAK256 SWAP1 POP SWAP2 SWAP1 POP JUMP JUMPDEST PUSH1 0x0 PUSH1 0x20 PUSH1 0x1F DUP4 ADD DIV SWAP1 POP SWAP2 SWAP1 POP JUMP JUMPDEST PUSH1 0x0 DUP3 DUP3 SHL SWAP1 POP SWAP3 SWAP2 POP POP JUMP JUMPDEST PUSH1 0x0 PUSH1 0x8 DUP4 MUL PUSH2 0x2943 PUSH32 0xFFFFFFFFFFFFFFFFFFFFFFFFFFFFFFFFFFFFFFFFFFFFFFFFFFFFFFFFFFFFFFFF DUP3 PUSH2 0x2906 JUMP JUMPDEST PUSH2 0x294D DUP7 DUP4 PUSH2 0x2906 JUMP JUMPDEST SWAP6 POP DUP1 NOT DUP5 AND SWAP4 POP DUP1 DUP7 AND DUP5 OR SWAP3 POP POP POP SWAP4 SWAP3 POP POP POP JUMP JUMPDEST PUSH1 0x0 PUSH2 0x2980 PUSH2 0x297B PUSH2 0x2976 DUP5 PUSH2 0x1CB8 JUMP JUMPDEST PUSH2 0x214C JUMP JUMPDEST PUSH2 0x1CB8 JUMP JUMPDEST SWAP1 POP SWAP2 SWAP1 POP JUMP JUMPDEST PUSH1 0x0 DUP2 SWAP1 POP SWAP2 SWAP1 POP JUMP JUMPDEST PUSH2 0x299A DUP4 PUSH2 0x2965 JUMP JUMPDEST PUSH2 0x29AE PUSH2 0x29A6 DUP3 PUSH2 0x2987 JUMP JUMPDEST DUP5 DUP5 SLOAD PUSH2 0x2913 JUMP JUMPDEST DUP3 SSTORE POP POP POP POP JUMP JUMPDEST PUSH1 0x0 SWAP1 JUMP JUMPDEST PUSH2 0x29C3 PUSH2 0x29B6 JUMP JUMPDEST PUSH2 0x29CE DUP2 DUP5 DUP5 PUSH2 0x2991 JUMP JUMPDEST POP POP POP JUMP JUMPDEST JUMPDEST DUP2 DUP2 LT ISZERO PUSH2 0x29F2 JUMPI PUSH2 0x29E7 PUSH1 0x0 DUP3 PUSH2 0x29BB JUMP JUMPDEST PUSH1 0x1 DUP2 ADD SWAP1 POP PUSH2 0x29D4 JUMP JUMPDEST POP POP JUMP JUMPDEST PUSH1 0x1F DUP3 GT ISZERO PUSH2 0x2A37 JUMPI PUSH2 0x2A08 DUP2 PUSH2 0x28E1 JUMP JUMPDEST PUSH2 0x2A11 DUP5 PUSH2 0x28F6 JUMP JUMPDEST DUP2 ADD PUSH1 0x20 DUP6 LT ISZERO PUSH2 0x2A20 JUMPI DUP2 SWAP1 POP JUMPDEST PUSH2 0x2A34 PUSH2 0x2A2C DUP6 PUSH2 0x28F6 JUMP JUMPDEST DUP4 ADD DUP3 PUSH2 0x29D3 JUMP JUMPDEST POP POP JUMPDEST POP POP POP JUMP JUMPDEST PUSH1 0x0 DUP3 DUP3 SHR SWAP1 POP SWAP3 SWAP2 POP POP JUMP JUMPDEST PUSH1 0x0 PUSH2 0x2A5A PUSH1 0x0 NOT DUP5 PUSH1 0x8 MUL PUSH2 0x2A3C JUMP JUMPDEST NOT DUP1 DUP4 AND SWAP2 POP POP SWAP3 SWAP2 POP POP JUMP JUMPDEST PUSH1 0x0 PUSH2 0x2A73 DUP4 DUP4 PUSH2 0x2A49 JUMP JUMPDEST SWAP2 POP DUP3 PUSH1 0x2 MUL DUP3 OR SWAP1 POP SWAP3 SWAP2 POP POP JUMP JUMPDEST PUSH2 0x2A8C DUP3 PUSH2 0x1DE7 JUMP JUMPDEST PUSH8 0xFFFFFFFFFFFFFFFF DUP2 GT ISZERO PUSH2 0x2AA5 JUMPI PUSH2 0x2AA4 PUSH2 0x1B29 JUMP JUMPDEST JUMPDEST PUSH2 0x2AAF DUP3 SLOAD PUSH2 0x267C JUMP JUMPDEST PUSH2 0x2ABA DUP3 DUP3 DUP6 PUSH2 0x29F6 JUMP JUMPDEST PUSH1 0x0 PUSH1 0x20 SWAP1 POP PUSH1 0x1F DUP4 GT PUSH1 0x1 DUP2 EQ PUSH2 0x2AED JUMPI PUSH1 0x0 DUP5 ISZERO PUSH2 0x2ADB JUMPI DUP3 DUP8 ADD MLOAD SWAP1 POP JUMPDEST PUSH2 0x2AE5 DUP6 DUP3 PUSH2 0x2A67 JUMP JUMPDEST DUP7 SSTORE POP PUSH2 0x2B4D JUMP JUMPDEST PUSH1 0x1F NOT DUP5 AND PUSH2 0x2AFB DUP7 PUSH2 0x28E1 JUMP JUMPDEST PUSH1 0x0 JUMPDEST DUP3 DUP2 LT ISZERO PUSH2 0x2B23 JUMPI DUP5 DUP10 ADD MLOAD DUP3 SSTORE PUSH1 0x1 DUP3 ADD SWAP2 POP PUSH1 0x20 DUP6 ADD SWAP5 POP PUSH1 0x20 DUP2 ADD SWAP1 POP PUSH2 0x2AFE JUMP JUMPDEST DUP7 DUP4 LT ISZERO PUSH2 0x2B40 JUMPI DUP5 DUP10 ADD MLOAD PUSH2 0x2B3C PUSH1 0x1F DUP10 AND DUP3 PUSH2 0x2A49 JUMP JUMPDEST DUP4 SSTORE POP JUMPDEST PUSH1 0x1 PUSH1 0x2 DUP9 MUL ADD DUP9 SSTORE POP POP POP JUMPDEST POP POP POP POP POP POP JUMP JUMPDEST PUSH1 0x0 PUSH1 0x40 DUP3 ADD SWAP1 POP PUSH2 0x2B6A PUSH1 0x0 DUP4 ADD DUP6 PUSH2 0x1CC2 JUMP JUMPDEST PUSH2 0x2B77 PUSH1 0x20 DUP4 ADD DUP5 PUSH2 0x1CC2 JUMP JUMPDEST SWAP4 SWAP3 POP POP POP JUMP INVALID LOG2 PUSH5 0x6970667358 0x22 SLT KECCAK256 SWAP6 ADD 0xDE 0xF GASPRICE 0x5C JUMPDEST PUSH16 0xC92856D3315D5C6876D4BDB6B7F1DFD7 RETURNDATASIZE 0xDE SWAP8 0xAA 0xDA 0xB3 GT 0xD1 PUSH5 0x736F6C6343 STOP ADDMOD OR STOP CALLER LOG2 PUSH5 0x6970667358 0x22 SLT KECCAK256 PUSH1 0x82 DUP9 COINBASE 0xC5 MOD 0x1F BLOCKHASH SWAP4 PUSH10 0xAAE5A0C607BC4E020A5D SWAP8 0x23 MUL 0xB3 0x4E 0xF 0x21 CALLDATACOPY PC SELFDESTRUCT ISZERO 0xE0 PUSH5 0x736F6C6343 STOP ADDMOD OR STOP CALLER "},"methodIdentifiers":{"ChildContractGasFee()":"bf66bfc7","JoinLimitFee()":"84762b0b","SavingFee()":"fed0b925","createSaving(string,uint256,uint8,bool,address,uint256)":"6405350a","csToken()":"e04605fd","currentTotalValueLocked()":"02500739","currentVaultState()":"4c3fa304","dripFountain()":"d5633e96","editFees(uint256,uint256)":"174fbaee","editInternalData(uint256,uint256,address)":"7679489c","editStableCoin(address)":"9986e0e9","fountain()":"f24053b3","getUserChildContractAddress()":"ea413672","incrementSaving(string,address,uint256)":"1fdc181f","joinBitsave()":"16f94d5d","masterAddress()":"d365a08e","rewardPool()":"66666aa9","sendAsOriginalToken(address,uint256,address)":"de35c372","stableCoin()":"992642e5","userCount()":"07973ccf","withdrawSaving(string)":"372f9101"}}}}}