{
  "_format": "hh-sol-artifact-1",
  "contractName": "ChildBitsave",
  "sourceName": "contracts/childContract.sol",
  "abi": [
    {
      "inputs": [
        {
          "internalType": "address",
          "name": "_ownerAddress",
          "type": "address"
        },
        {
          "internalType": "address",
          "name": "_stableCoin",
          "type": "address"
        }
      ],
      "stateMutability": "payable",
      "type": "constructor"
    },
    {
      "inputs": [],
      "name": "CallNotFromBitsave",
      "type": "error"
    },
    {
      "inputs": [],
      "name": "InvalidSaving",
      "type": "error"
    },
    {
      "inputs": [],
      "name": "InvalidTime",
      "type": "error"
    },
    {
      "inputs": [
        {
          "internalType": "uint256",
          "name": "prod1",
          "type": "uint256"
        }
      ],
      "name": "PRBMath__MulDivFixedPointOverflow",
      "type": "error"
    },
    {
      "inputs": [
        {
          "internalType": "uint256",
          "name": "prod1",
          "type": "uint256"
        },
        {
          "internalType": "uint256",
          "name": "denominator",
          "type": "uint256"
        }
      ],
      "name": "PRBMath__MulDivOverflow",
      "type": "error"
    },
    {
      "anonymous": false,
      "inputs": [
        {
          "indexed": true,
          "internalType": "string",
          "name": "nameOfSaving",
          "type": "string"
        },
        {
          "indexed": false,
          "internalType": "uint256",
          "name": "amount",
          "type": "uint256"
        },
        {
          "indexed": false,
          "internalType": "address",
          "name": "token",
          "type": "address"
        }
      ],
      "name": "SavingCreated",
      "type": "event"
    },
    {
      "anonymous": false,
      "inputs": [
        {
          "indexed": true,
          "internalType": "string",
          "name": "nameOfSaving",
          "type": "string"
        },
        {
          "indexed": false,
          "internalType": "uint256",
          "name": "amountAdded",
          "type": "uint256"
        },
        {
          "indexed": false,
          "internalType": "uint256",
          "name": "totalAmountNow",
          "type": "uint256"
        },
        {
          "indexed": false,
          "internalType": "address",
          "name": "token",
          "type": "address"
        }
      ],
      "name": "SavingIncremented",
      "type": "event"
    },
    {
      "anonymous": false,
      "inputs": [
        {
          "indexed": true,
          "internalType": "string",
          "name": "nameOfSaving",
          "type": "string"
        }
      ],
      "name": "SavingWithdrawn",
      "type": "event"
    },
    {
      "anonymous": false,
      "inputs": [
        {
          "indexed": true,
          "internalType": "address",
          "name": "from",
          "type": "address"
        },
        {
          "indexed": true,
          "internalType": "address",
          "name": "to",
          "type": "address"
        },
        {
          "indexed": false,
          "internalType": "uint256",
          "name": "amount",
          "type": "uint256"
        }
      ],
      "name": "TokenWithdrawal",
      "type": "event"
    },
    {
      "inputs": [],
      "name": "bitsaveAddress",
      "outputs": [
        {
          "internalType": "address payable",
          "name": "",
          "type": "address"
        }
      ],
      "stateMutability": "view",
      "type": "function"
    },
    {
      "inputs": [
        {
          "internalType": "string",
          "name": "name",
          "type": "string"
        },
        {
          "internalType": "uint256",
          "name": "maturityTime",
          "type": "uint256"
        },
        {
          "internalType": "uint256",
          "name": "startTime",
          "type": "uint256"
        },
        {
          "internalType": "uint8",
          "name": "penaltyPercentage",
          "type": "uint8"
        },
        {
          "internalType": "address",
          "name": "tokenId",
          "type": "address"
        },
        {
          "internalType": "uint256",
          "name": "amountToRetrieve",
          "type": "uint256"
        },
        {
          "internalType": "bool",
          "name": "isSafeMode",
          "type": "bool"
        },
        {
          "internalType": "uint256",
          "name": "currentVaultState",
          "type": "uint256"
        },
        {
          "internalType": "uint256",
          "name": "currentTotalValueLocked",
          "type": "uint256"
        }
      ],
      "name": "createSaving",
      "outputs": [
        {
          "internalType": "uint256",
          "name": "",
          "type": "uint256"
        }
      ],
      "stateMutability": "payable",
      "type": "function"
    },
    {
      "inputs": [
        {
          "internalType": "string",
          "name": "nameOfSaving",
          "type": "string"
        }
      ],
      "name": "getSaving",
      "outputs": [
        {
          "components": [
            {
              "internalType": "bool",
              "name": "isValid",
              "type": "bool"
            },
            {
              "internalType": "uint256",
              "name": "amount",
              "type": "uint256"
            },
            {
              "internalType": "address",
              "name": "tokenId",
              "type": "address"
            },
            {
              "internalType": "uint256",
              "name": "interestAccumulated",
              "type": "uint256"
            },
            {
              "internalType": "uint256",
              "name": "startTime",
              "type": "uint256"
            },
            {
              "internalType": "uint256",
              "name": "penaltyPercentage",
              "type": "uint256"
            },
            {
              "internalType": "uint256",
              "name": "maturityTime",
              "type": "uint256"
            },
            {
              "internalType": "bool",
              "name": "isSafeMode",
              "type": "bool"
            }
          ],
          "internalType": "struct ChildBitsave.SavingDataStruct",
          "name": "",
          "type": "tuple"
        }
      ],
      "stateMutability": "view",
      "type": "function"
    },
    {
      "inputs": [
        {
          "internalType": "string",
          "name": "nameOfSaving",
          "type": "string"
        }
      ],
      "name": "getSavingInterest",
      "outputs": [
        {
          "internalType": "uint256",
          "name": "",
          "type": "uint256"
        }
      ],
      "stateMutability": "view",
      "type": "function"
    },
    {
      "inputs": [
        {
          "internalType": "string",
          "name": "nameOfSaving",
          "type": "string"
        }
      ],
      "name": "getSavingMode",
      "outputs": [
        {
          "internalType": "bool",
          "name": "",
          "type": "bool"
        }
      ],
      "stateMutability": "view",
      "type": "function"
    },
    {
      "inputs": [
        {
          "internalType": "string",
          "name": "nameOfSaving",
          "type": "string"
        }
      ],
      "name": "getSavingTokenId",
      "outputs": [
        {
          "internalType": "address",
          "name": "",
          "type": "address"
        }
      ],
      "stateMutability": "view",
      "type": "function"
    },
    {
      "inputs": [],
      "name": "getSavingsNames",
      "outputs": [
        {
          "components": [
            {
              "internalType": "string[]",
              "name": "savingsNames",
              "type": "string[]"
            }
          ],
          "internalType": "struct ChildBitsave.SavingsNamesObj",
          "name": "",
          "type": "tuple"
        }
      ],
      "stateMutability": "view",
      "type": "function"
    },
    {
      "inputs": [
        {
          "internalType": "string",
          "name": "name",
          "type": "string"
        },
        {
          "internalType": "uint256",
          "name": "savingPlusAmount",
          "type": "uint256"
        },
        {
          "internalType": "uint256",
          "name": "currentVaultState",
          "type": "uint256"
        },
        {
          "internalType": "uint256",
          "name": "currentTotalValueLocked",
          "type": "uint256"
        }
      ],
      "name": "incrementSaving",
      "outputs": [
        {
          "internalType": "uint256",
          "name": "",
          "type": "uint256"
        }
      ],
      "stateMutability": "payable",
      "type": "function"
    },
    {
      "inputs": [],
      "name": "ownerAddress",
      "outputs": [
        {
          "internalType": "address",
          "name": "",
          "type": "address"
        }
      ],
      "stateMutability": "view",
      "type": "function"
    },
    {
      "inputs": [
        {
          "internalType": "string",
          "name": "",
          "type": "string"
        }
      ],
      "name": "savings",
      "outputs": [
        {
          "internalType": "bool",
          "name": "isValid",
          "type": "bool"
        },
        {
          "internalType": "uint256",
          "name": "amount",
          "type": "uint256"
        },
        {
          "internalType": "address",
          "name": "tokenId",
          "type": "address"
        },
        {
          "internalType": "uint256",
          "name": "interestAccumulated",
          "type": "uint256"
        },
        {
          "internalType": "uint256",
          "name": "startTime",
          "type": "uint256"
        },
        {
          "internalType": "uint256",
          "name": "penaltyPercentage",
          "type": "uint256"
        },
        {
          "internalType": "uint256",
          "name": "maturityTime",
          "type": "uint256"
        },
        {
          "internalType": "bool",
          "name": "isSafeMode",
          "type": "bool"
        }
      ],
      "stateMutability": "view",
      "type": "function"
    },
    {
      "inputs": [],
      "name": "stableCoin",
      "outputs": [
        {
          "internalType": "contract IERC20",
          "name": "",
          "type": "address"
        }
      ],
      "stateMutability": "view",
      "type": "function"
    },
    {
      "inputs": [],
      "name": "totalPoints",
      "outputs": [
        {
          "internalType": "uint256",
          "name": "",
          "type": "uint256"
        }
      ],
      "stateMutability": "view",
      "type": "function"
    },
    {
      "inputs": [
        {
          "internalType": "string",
          "name": "name",
          "type": "string"
        }
      ],
      "name": "withdrawSaving",
      "outputs": [
        {
          "internalType": "string",
          "name": "",
          "type": "string"
        }
      ],
      "stateMutability": "payable",
      "type": "function"
    }
  ],
  "bytecode": "0x608060405260405162002d7038038062002d70833981810160405281019062000029919062000165565b336000806101000a81548173ffffffffffffffffffffffffffffffffffffffff021916908373ffffffffffffffffffffffffffffffffffffffff16021790555081600260006101000a81548173ffffffffffffffffffffffffffffffffffffffff021916908373ffffffffffffffffffffffffffffffffffffffff16021790555080600160006101000a81548173ffffffffffffffffffffffffffffffffffffffff021916908373ffffffffffffffffffffffffffffffffffffffff16021790555060006003819055505050620001ac565b600080fd5b600073ffffffffffffffffffffffffffffffffffffffff82169050919050565b60006200012d8262000100565b9050919050565b6200013f8162000120565b81146200014b57600080fd5b50565b6000815190506200015f8162000134565b92915050565b600080604083850312156200017f576200017e620000fb565b5b60006200018f858286016200014e565b9250506020620001a2858286016200014e565b9150509250929050565b612bb480620001bc6000396000f3fe6080604052600436106100c25760003560e01c8063585dbffe1161007f578063992642e511610059578063992642e5146102a3578063d1ece790146102ce578063dc2379b9146102f9578063e18f5f6514610329576100c2565b8063585dbffe146101fe57806384febb691461023b5780638f84aa0914610278576100c2565b806313203929146100c75780631bb862a51461010b5780632ae3c90f14610148578063372f910114610173578063436d4a6d146101a3578063567142be146101d3575b600080fd5b3480156100d357600080fd5b506100ee60048036038101906100e99190611c54565b610366565b604051610102989796959493929190611d12565b60405180910390f35b34801561011757600080fd5b50610132600480360381019061012d9190611c54565b6103fe565b60405161013f9190611d90565b60405180910390f35b34801561015457600080fd5b5061015d610436565b60405161016a9190611dcc565b60405180910390f35b61018d60048036038101906101889190611c54565b61045a565b60405161019a9190611e66565b60405180910390f35b6101bd60048036038101906101b89190611f45565b610924565b6040516101ca919061202b565b60405180910390f35b3480156101df57600080fd5b506101e8610cfc565b6040516101f5919061202b565b60405180910390f35b34801561020a57600080fd5b5061022560048036038101906102209190611c54565b610d02565b6040516102329190612115565b60405180910390f35b34801561024757600080fd5b50610262600480360381019061025d9190611c54565b610df9565b60405161026f919061202b565b60405180910390f35b34801561028457600080fd5b5061028d610e24565b60405161029a9190612131565b60405180910390f35b3480156102af57600080fd5b506102b8610e4a565b6040516102c591906121ab565b60405180910390f35b3480156102da57600080fd5b506102e3610e70565b6040516102f091906122fc565b60405180910390f35b610313600480360381019061030e919061231e565b610f63565b604051610320919061202b565b60405180910390f35b34801561033557600080fd5b50610350600480360381019061034b9190611c54565b6113db565b60405161035d9190612131565b60405180910390f35b6004818051602081018201805184825260208301602085012081835280955050505050506000915090508060000160009054906101000a900460ff16908060010154908060020160009054906101000a900473ffffffffffffffffffffffffffffffffffffffff16908060030154908060040154908060050154908060060154908060070160009054906101000a900460ff16905088565b600060048260405161041091906123dd565b908152602001604051809103902060070160009054906101000a900460ff169050919050565b60008054906101000a900473ffffffffffffffffffffffffffffffffffffffff1681565b606060008054906101000a900473ffffffffffffffffffffffffffffffffffffffff1673ffffffffffffffffffffffffffffffffffffffff163373ffffffffffffffffffffffffffffffffffffffff16146104e1576040517f229e1dbd00000000000000000000000000000000000000000000000000000000815260040160405180910390fd5b60006004836040516104f391906123dd565b908152602001604051809103902090508060000160009054906101000a900460ff1661054b576040517fd63d1e4800000000000000000000000000000000000000000000000000000000815260040160405180910390fd5b60008160010154905060008060009054906101000a900473ffffffffffffffffffffffffffffffffffffffff16905082600601544210156105b9576064836005015460646105999190612423565b84600101546105a89190612457565b6105b291906124c8565b91506105ba565b5b60008360020160009054906101000a900473ffffffffffffffffffffffffffffffffffffffff16905060008460070160009054906101000a900460ff16156106f35761064960008054906101000a900473ffffffffffffffffffffffffffffffffffffffff1685600160009054906101000a900473ffffffffffffffffffffffffffffffffffffffff16611426565b508273ffffffffffffffffffffffffffffffffffffffff1663de35c3728386600260009054906101000a900473ffffffffffffffffffffffffffffffffffffffff166040518463ffffffff1660e01b81526004016106a9939291906124f9565b6020604051808303816000875af11580156106c8573d6000803e3d6000fd5b505050506040513d601f19601f820116820180604052508101906106ec9190612545565b9050610856565b600073ffffffffffffffffffffffffffffffffffffffff168273ffffffffffffffffffffffffffffffffffffffff160361080157600080600260009054906101000a900473ffffffffffffffffffffffffffffffffffffffff1673ffffffffffffffffffffffffffffffffffffffff1686604051610770906125a3565b60006040518083038185875af1925050503d80600081146107ad576040519150601f19603f3d011682016040523d82523d6000602084013e6107b2565b606091505b5091509150816107f7576040517f08c379a00000000000000000000000000000000000000000000000000000000081526004016107ee90612604565b60405180910390fd5b8192505050610855565b6108528560020160009054906101000a900473ffffffffffffffffffffffffffffffffffffffff16600260009054906101000a900473ffffffffffffffffffffffffffffffffffffffff16866114b4565b90505b5b801561091a57600060048860405161086e91906123dd565b908152602001604051809103902060000160006101000a81548160ff021916908315150217905550866040516108a491906123dd565b60405180910390207f5b059b7fe1fea38d4de595079621498a365a8f1fa13e49af9f1e4b7197ab049a60405160405180910390a26040518060400160405280601e81526020017f736176696e67732077697468647261776e207375636365737366756c6c7900008152509550505050505061091f565b600080fd5b919050565b60008060009054906101000a900473ffffffffffffffffffffffffffffffffffffffff1673ffffffffffffffffffffffffffffffffffffffff163373ffffffffffffffffffffffffffffffffffffffff16146109ac576040517f229e1dbd00000000000000000000000000000000000000000000000000000000815260040160405180910390fd5b60048a6040516109bc91906123dd565b908152602001604051809103902060000160009054906101000a900460ff1615610a12576040517fd63d1e4800000000000000000000000000000000000000000000000000000000815260040160405180910390fd5b87891015610a4c576040517f6f7eac2600000000000000000000000000000000000000000000000000000000815260040160405180910390fd5b42891015610a86576040517f6f7eac2600000000000000000000000000000000000000000000000000000000815260040160405180910390fd5b60008590508415610ae457610ade60008054906101000a900473ffffffffffffffffffffffffffffffffffffffff16600160009054906101000a900473ffffffffffffffffffffffffffffffffffffffff16886115a7565b50610b4e565b600073ffffffffffffffffffffffffffffffffffffffff168773ffffffffffffffffffffffffffffffffffffffff1614610b4957610b4360008054906101000a900473ffffffffffffffffffffffffffffffffffffffff1688886115a7565b50610b4d565b3490505b5b6000610b5d828c8c88886116f0565b90506040518061010001604052806001151581526020018381526020018973ffffffffffffffffffffffffffffffffffffffff1681526020018281526020018b81526020018a60ff1681526020018c815260200187151581525060048d604051610bc791906123dd565b908152602001604051809103902060008201518160000160006101000a81548160ff0219169083151502179055506020820151816001015560408201518160020160006101000a81548173ffffffffffffffffffffffffffffffffffffffff021916908373ffffffffffffffffffffffffffffffffffffffff160217905550606082015181600301556080820151816004015560a0820151816005015560c0820151816006015560e08201518160070160006101000a81548160ff021916908315150217905550905050610c9a8c61171b565b8b604051610ca891906123dd565b60405180910390207f4ad85a69286191006ea05981ae1848070dbf232e5e00ffdda4b857c16097f0d7888a604051610ce1929190612624565b60405180910390a26001925050509998505050505050505050565b60035481565b610d0a611a88565b600482604051610d1a91906123dd565b9081526020016040518091039020604051806101000160405290816000820160009054906101000a900460ff16151515158152602001600182015481526020016002820160009054906101000a900473ffffffffffffffffffffffffffffffffffffffff1673ffffffffffffffffffffffffffffffffffffffff1673ffffffffffffffffffffffffffffffffffffffff168152602001600382015481526020016004820154815260200160058201548152602001600682015481526020016007820160009054906101000a900460ff1615151515815250509050919050565b6000600482604051610e0b91906123dd565b9081526020016040518091039020600301549050919050565b600260009054906101000a900473ffffffffffffffffffffffffffffffffffffffff1681565b600160009054906101000a900473ffffffffffffffffffffffffffffffffffffffff1681565b610e78611ae7565b600560405180602001604052908160008201805480602002602001604051908101604052809291908181526020016000905b82821015610f56578382906000526020600020018054610ec99061267c565b80601f0160208091040260200160405190810160405280929190818152602001828054610ef59061267c565b8015610f425780601f10610f1757610100808354040283529160200191610f42565b820191906000526020600020905b815481529060010190602001808311610f2557829003601f168201915b505050505081526020019060010190610eaa565b5050505081525050905090565b60008060009054906101000a900473ffffffffffffffffffffffffffffffffffffffff1673ffffffffffffffffffffffffffffffffffffffff163373ffffffffffffffffffffffffffffffffffffffff1614610feb576040517f229e1dbd00000000000000000000000000000000000000000000000000000000815260040160405180910390fd5b6000600486604051610ffd91906123dd565b908152602001604051809103902090508060000160009054906101000a900460ff16611055576040517fd63d1e4800000000000000000000000000000000000000000000000000000000815260040160405180910390fd5b8060060154421115611093576040517f6f7eac2600000000000000000000000000000000000000000000000000000000815260040160405180910390fd5b60008073ffffffffffffffffffffffffffffffffffffffff168260020160009054906101000a900473ffffffffffffffffffffffffffffffffffffffff1673ffffffffffffffffffffffffffffffffffffffff161490508160070160009054906101000a900460ff16156111545761114e60008054906101000a900473ffffffffffffffffffffffffffffffffffffffff16600160009054906101000a900473ffffffffffffffffffffffffffffffffffffffff16886115a7565b506111f6565b806111ae576111a860008054906101000a900473ffffffffffffffffffffffffffffffffffffffff168360020160009054906101000a900473ffffffffffffffffffffffffffffffffffffffff16886115a7565b506111f5565b853410156111f1576040517f08c379a00000000000000000000000000000000000000000000000000000000081526004016111e89061271f565b60405180910390fd5b3495505b5b60006112098784600601544289896116f0565b905080836003015461121b919061273f565b8360030181905550868360010154611233919061273f565b83600101819055508260048960405161124c91906123dd565b90815260200160405180910390206000820160009054906101000a900460ff168160000160006101000a81548160ff021916908315150217905550600182015481600101556002820160009054906101000a900473ffffffffffffffffffffffffffffffffffffffff168160020160006101000a81548173ffffffffffffffffffffffffffffffffffffffff021916908373ffffffffffffffffffffffffffffffffffffffff160217905550600382015481600301556004820154816004015560058201548160050155600682015481600601556007820160009054906101000a900460ff168160070160006101000a81548160ff0219169083151502179055509050508760405161135e91906123dd565b60405180910390207ff6b98d8e0d83f8b1d1ff03a2fa36aba2c77ccf20e4ff035c0cf4aa92762e9eec8885600101548660020160009054906101000a900473ffffffffffffffffffffffffffffffffffffffff166040516113c193929190612773565b60405180910390a282600301549350505050949350505050565b60006004826040516113ed91906123dd565b908152602001604051809103902060020160009054906101000a900473ffffffffffffffffffffffffffffffffffffffff169050919050565b6000808290508073ffffffffffffffffffffffffffffffffffffffff1663095ea7b386866040518363ffffffff1660e01b81526004016114679291906127aa565b6020604051808303816000875af1158015611486573d6000803e3d6000fd5b505050506040513d601f19601f820116820180604052508101906114aa9190612545565b9150509392505050565b6000808490508073ffffffffffffffffffffffffffffffffffffffff1663a9059cbb85856040518363ffffffff1660e01b81526004016114f59291906127aa565b6020604051808303816000875af1158015611514573d6000803e3d6000fd5b505050506040513d601f19601f820116820180604052508101906115389190612545565b91508373ffffffffffffffffffffffffffffffffffffffff163073ffffffffffffffffffffffffffffffffffffffff167f42856d0378dde02337bb59ae41747abc77ded8ebdbbc5cbdd1e53693b755493885604051611597919061202b565b60405180910390a3509392505050565b6000818373ffffffffffffffffffffffffffffffffffffffff1663dd62ed3e86306040518363ffffffff1660e01b81526004016115e59291906127d3565b602060405180830381865afa158015611602573d6000803e3d6000fd5b505050506040513d601f19601f820116820180604052508101906116269190612811565b1015611667576040517f08c379a000000000000000000000000000000000000000000000000000000000815260040161165e9061288a565b60405180910390fd5b8273ffffffffffffffffffffffffffffffffffffffff166323b872dd8530856040518463ffffffff1660e01b81526004016116a4939291906128aa565b6020604051808303816000875af11580156116c3573d6000803e3d6000fd5b505050506040513d601f19601f820116820180604052508101906116e79190612545565b90509392505050565b60006117098685876117029190612423565b8585611756565b90508060038190555095945050505050565b6005600001819080600181540180825580915050600190039060005260206000200160009091909190915090816117529190612a83565b5050565b60008061178d606461177f868762e4e1c06117719190612423565b61182390919063ffffffff16565b61184090919063ffffffff16565b905060006117b384836117a09190612457565b6305f5e10061182390919063ffffffff16565b905060006117ce6301e133808861182390919063ffffffff16565b9050611816611811683635c9adc5dea0000060646117ec9190612457565b83858c6117f99190612457565b6118039190612457565b61182390919063ffffffff16565b611854565b9350505050949350505050565b600061183883670de0b6b3a764000084611876565b905092915050565b600061184c838361198b565b905092915050565b6000670de0b6b3a7640000828161186e5761186d612499565b5b049050919050565b60008060008019858709858702925082811083820303915050600081036118b1578382816118a7576118a6612499565b5b0492505050611984565b8381106118f75780846040517f773cc18c0000000000000000000000000000000000000000000000000000000081526004016118ee929190612b55565b60405180910390fd5b60008486880990508281118203915080830392506000600186190186169050808604955080840493506001818260000304019050808302841793506000600287600302189050808702600203810290508087026002038102905080870260020381029050808702600203810290508087026002038102905080870260020381029050808502955050505050505b9392505050565b60008060008019848609848602925082811083820303915050670de0b6b3a764000081106119f057806040517fd31b34020000000000000000000000000000000000000000000000000000000081526004016119e7919061202b565b60405180910390fd5b600080670de0b6b3a764000086880991506706f05b59d3b1ffff8211905060008303611a3c5780670de0b6b3a76400008581611a2f57611a2e612499565b5b0401945050505050611a82565b807faccb18165bd6fe31ae1cf318dc5b51eee0e1ba569b88cd74c1773b91fac1066960016204000080600003040186851186030262040000858803041702019450505050505b92915050565b60405180610100016040528060001515815260200160008152602001600073ffffffffffffffffffffffffffffffffffffffff168152602001600081526020016000815260200160008152602001600081526020016000151581525090565b6040518060200160405280606081525090565b6000604051905090565b600080fd5b600080fd5b600080fd5b600080fd5b6000601f19601f8301169050919050565b7f4e487b7100000000000000000000000000000000000000000000000000000000600052604160045260246000fd5b611b6182611b18565b810181811067ffffffffffffffff82111715611b8057611b7f611b29565b5b80604052505050565b6000611b93611afa565b9050611b9f8282611b58565b919050565b600067ffffffffffffffff821115611bbf57611bbe611b29565b5b611bc882611b18565b9050602081019050919050565b82818337600083830152505050565b6000611bf7611bf284611ba4565b611b89565b905082815260208101848484011115611c1357611c12611b13565b5b611c1e848285611bd5565b509392505050565b600082601f830112611c3b57611c3a611b0e565b5b8135611c4b848260208601611be4565b91505092915050565b600060208284031215611c6a57611c69611b04565b5b600082013567ffffffffffffffff811115611c8857611c87611b09565b5b611c9484828501611c26565b91505092915050565b60008115159050919050565b611cb281611c9d565b82525050565b6000819050919050565b611ccb81611cb8565b82525050565b600073ffffffffffffffffffffffffffffffffffffffff82169050919050565b6000611cfc82611cd1565b9050919050565b611d0c81611cf1565b82525050565b600061010082019050611d28600083018b611ca9565b611d35602083018a611cc2565b611d426040830189611d03565b611d4f6060830188611cc2565b611d5c6080830187611cc2565b611d6960a0830186611cc2565b611d7660c0830185611cc2565b611d8360e0830184611ca9565b9998505050505050505050565b6000602082019050611da56000830184611ca9565b92915050565b6000611db682611cd1565b9050919050565b611dc681611dab565b82525050565b6000602082019050611de16000830184611dbd565b92915050565b600081519050919050565b600082825260208201905092915050565b60005b83811015611e21578082015181840152602081019050611e06565b60008484015250505050565b6000611e3882611de7565b611e428185611df2565b9350611e52818560208601611e03565b611e5b81611b18565b840191505092915050565b60006020820190508181036000830152611e808184611e2d565b905092915050565b611e9181611cb8565b8114611e9c57600080fd5b50565b600081359050611eae81611e88565b92915050565b600060ff82169050919050565b611eca81611eb4565b8114611ed557600080fd5b50565b600081359050611ee781611ec1565b92915050565b611ef681611cf1565b8114611f0157600080fd5b50565b600081359050611f1381611eed565b92915050565b611f2281611c9d565b8114611f2d57600080fd5b50565b600081359050611f3f81611f19565b92915050565b60008060008060008060008060006101208a8c031215611f6857611f67611b04565b5b60008a013567ffffffffffffffff811115611f8657611f85611b09565b5b611f928c828d01611c26565b9950506020611fa38c828d01611e9f565b9850506040611fb48c828d01611e9f565b9750506060611fc58c828d01611ed8565b9650506080611fd68c828d01611f04565b95505060a0611fe78c828d01611e9f565b94505060c0611ff88c828d01611f30565b93505060e06120098c828d01611e9f565b92505061010061201b8c828d01611e9f565b9150509295985092959850929598565b60006020820190506120406000830184611cc2565b92915050565b61204f81611c9d565b82525050565b61205e81611cb8565b82525050565b61206d81611cf1565b82525050565b6101008201600082015161208a6000850182612046565b50602082015161209d6020850182612055565b5060408201516120b06040850182612064565b5060608201516120c36060850182612055565b5060808201516120d66080850182612055565b5060a08201516120e960a0850182612055565b5060c08201516120fc60c0850182612055565b5060e082015161210f60e0850182612046565b50505050565b60006101008201905061212b6000830184612073565b92915050565b60006020820190506121466000830184611d03565b92915050565b6000819050919050565b600061217161216c61216784611cd1565b61214c565b611cd1565b9050919050565b600061218382612156565b9050919050565b600061219582612178565b9050919050565b6121a58161218a565b82525050565b60006020820190506121c0600083018461219c565b92915050565b600081519050919050565b600082825260208201905092915050565b6000819050602082019050919050565b600082825260208201905092915050565b600061220e82611de7565b61221881856121f2565b9350612228818560208601611e03565b61223181611b18565b840191505092915050565b60006122488383612203565b905092915050565b6000602082019050919050565b6000612268826121c6565b61227281856121d1565b935083602082028501612284856121e2565b8060005b858110156122c057848403895281516122a1858261223c565b94506122ac83612250565b925060208a01995050600181019050612288565b50829750879550505050505092915050565b600060208301600083015184820360008601526122ef828261225d565b9150508091505092915050565b6000602082019050818103600083015261231681846122d2565b905092915050565b6000806000806080858703121561233857612337611b04565b5b600085013567ffffffffffffffff81111561235657612355611b09565b5b61236287828801611c26565b945050602061237387828801611e9f565b935050604061238487828801611e9f565b925050606061239587828801611e9f565b91505092959194509250565b600081905092915050565b60006123b782611de7565b6123c181856123a1565b93506123d1818560208601611e03565b80840191505092915050565b60006123e982846123ac565b915081905092915050565b7f4e487b7100000000000000000000000000000000000000000000000000000000600052601160045260246000fd5b600061242e82611cb8565b915061243983611cb8565b9250828203905081811115612451576124506123f4565b5b92915050565b600061246282611cb8565b915061246d83611cb8565b925082820261247b81611cb8565b91508282048414831517612492576124916123f4565b5b5092915050565b7f4e487b7100000000000000000000000000000000000000000000000000000000600052601260045260246000fd5b60006124d382611cb8565b91506124de83611cb8565b9250826124ee576124ed612499565b5b828204905092915050565b600060608201905061250e6000830186611d03565b61251b6020830185611cc2565b6125286040830184611d03565b949350505050565b60008151905061253f81611f19565b92915050565b60006020828403121561255b5761255a611b04565b5b600061256984828501612530565b91505092915050565b600081905092915050565b50565b600061258d600083612572565b91506125988261257d565b600082019050919050565b60006125ae82612580565b9150819050919050565b7f436f756c646e27742073656e642066756e647300000000000000000000000000600082015250565b60006125ee601383611df2565b91506125f9826125b8565b602082019050919050565b6000602082019050818103600083015261261d816125e1565b9050919050565b60006040820190506126396000830185611cc2565b6126466020830184611d03565b9392505050565b7f4e487b7100000000000000000000000000000000000000000000000000000000600052602260045260246000fd5b6000600282049050600182168061269457607f821691505b6020821081036126a7576126a661264d565b5b50919050565b7f496e76616c696420736176696e6720696e6372656d656e742076616c7565207360008201527f656e740000000000000000000000000000000000000000000000000000000000602082015250565b6000612709602383611df2565b9150612714826126ad565b604082019050919050565b60006020820190508181036000830152612738816126fc565b9050919050565b600061274a82611cb8565b915061275583611cb8565b925082820190508082111561276d5761276c6123f4565b5b92915050565b60006060820190506127886000830186611cc2565b6127956020830185611cc2565b6127a26040830184611d03565b949350505050565b60006040820190506127bf6000830185611d03565b6127cc6020830184611cc2565b9392505050565b60006040820190506127e86000830185611d03565b6127f56020830184611d03565b9392505050565b60008151905061280b81611e88565b92915050565b60006020828403121561282757612826611b04565b5b6000612835848285016127fc565b91505092915050565b7f546f6b656e20636f756c64206e6f742062652077697468647261776e00000000600082015250565b6000612874601c83611df2565b915061287f8261283e565b602082019050919050565b600060208201905081810360008301526128a381612867565b9050919050565b60006060820190506128bf6000830186611d03565b6128cc6020830185611d03565b6128d96040830184611cc2565b949350505050565b60008190508160005260206000209050919050565b60006020601f8301049050919050565b600082821b905092915050565b6000600883026129437fffffffffffffffffffffffffffffffffffffffffffffffffffffffffffffffff82612906565b61294d8683612906565b95508019841693508086168417925050509392505050565b600061298061297b61297684611cb8565b61214c565b611cb8565b9050919050565b6000819050919050565b61299a83612965565b6129ae6129a682612987565b848454612913565b825550505050565b600090565b6129c36129b6565b6129ce818484612991565b505050565b5b818110156129f2576129e76000826129bb565b6001810190506129d4565b5050565b601f821115612a3757612a08816128e1565b612a11846128f6565b81016020851015612a20578190505b612a34612a2c856128f6565b8301826129d3565b50505b505050565b600082821c905092915050565b6000612a5a60001984600802612a3c565b1980831691505092915050565b6000612a738383612a49565b9150826002028217905092915050565b612a8c82611de7565b67ffffffffffffffff811115612aa557612aa4611b29565b5b612aaf825461267c565b612aba8282856129f6565b600060209050601f831160018114612aed5760008415612adb578287015190505b612ae58582612a67565b865550612b4d565b601f198416612afb866128e1565b60005b82811015612b2357848901518255600182019150602085019450602081019050612afe565b86831015612b405784890151612b3c601f891682612a49565b8355505b6001600288020188555050505b505050505050565b6000604082019050612b6a6000830185611cc2565b612b776020830184611cc2565b939250505056fea26469706673582212209501de0f3a5c5b6fc92856d3315d5c6876d4bdb6b7f1dfd73dde97aadab311d164736f6c63430008170033",
  "linkReferences": {},
  "deployedLinkReferences": {}
}